{
    "_format": "hh-sol-artifact-1",
    "contractName": "CreatorContract",
    "sourceName": "contracts/CreatorContract.sol",
    "abi": [
        {
            "inputs": [
                {
                    "internalType": "address",
                    "name": "_createCon",
                    "type": "address"
                },
                {
                    "internalType": "address",
                    "name": "_createTickAdd",
                    "type": "address"
                }
            ],
            "stateMutability": "nonpayable",
            "type": "constructor"
        },
        {
            "inputs": [
                {
                    "internalType": "uint256",
                    "name": "",
                    "type": "uint256"
                }
            ],
            "name": "allShows",
            "outputs": [
                {
                    "internalType": "address",
                    "name": "ticketAddress",
                    "type": "address"
                },
                {
                    "internalType": "address",
                    "name": "escrowAddress",
                    "type": "address"
                },
                {
                    "internalType": "address",
                    "name": "controllerContract",
                    "type": "address"
                },
                {
                    "internalType": "address",
                    "name": "band",
                    "type": "address"
                },
                {
                    "internalType": "address",
                    "name": "venue",
                    "type": "address"
                },
                {
                    "internalType": "bool",
                    "name": "completed",
                    "type": "bool"
                }
            ],
            "stateMutability": "view",
            "type": "function"
        },
        {
            "inputs": [],
            "name": "createContAdd",
            "outputs": [
                {
                    "internalType": "address",
                    "name": "",
                    "type": "address"
                }
            ],
            "stateMutability": "view",
            "type": "function"
        },
        {
            "inputs": [
                {
                    "internalType": "string",
                    "name": "_name",
                    "type": "string"
                },
                {
                    "internalType": "string",
                    "name": "_symbol",
                    "type": "string"
                },
                {
                    "internalType": "address",
                    "name": "_bandAddress",
                    "type": "address"
                },
                {
                    "internalType": "address",
                    "name": "_venueAddress",
                    "type": "address"
                },
                {
                    "internalType": "uint256",
                    "name": "endDate",
                    "type": "uint256"
                },
                {
                    "internalType": "uint256",
                    "name": "price",
                    "type": "uint256"
                }
            ],
            "name": "createShow",
            "outputs": [],
            "stateMutability": "nonpayable",
            "type": "function"
        },
        {
            "inputs": [],
            "name": "createTickAdd",
            "outputs": [
                {
                    "internalType": "address",
                    "name": "",
                    "type": "address"
                }
            ],
            "stateMutability": "view",
            "type": "function"
        },
        {
            "inputs": [],
            "name": "showNumber",
            "outputs": [
                {
                    "internalType": "uint256",
                    "name": "",
                    "type": "uint256"
                }
            ],
            "stateMutability": "view",
            "type": "function"
        },
        {
            "stateMutability": "payable",
            "type": "receive"
        }
    ],
    "bytecode": "0x608060405234801561001057600080fd5b50604051620016553803806200165583398181016040528101906100349190610120565b81600160006101000a81548173ffffffffffffffffffffffffffffffffffffffff021916908373ffffffffffffffffffffffffffffffffffffffff16021790555080600260006101000a81548173ffffffffffffffffffffffffffffffffffffffff021916908373ffffffffffffffffffffffffffffffffffffffff1602179055505050610160565b600080fd5b600073ffffffffffffffffffffffffffffffffffffffff82169050919050565b60006100ed826100c2565b9050919050565b6100fd816100e2565b811461010857600080fd5b50565b60008151905061011a816100f4565b92915050565b60008060408385031215610137576101366100bd565b5b60006101458582860161010b565b92505060206101568582860161010b565b9150509250929050565b6114e580620001706000396000f3fe60806040526004361061004e5760003560e01c8063473025b31461005a5780635d4a389a14610085578063711da84b146100b057806376dad223146100d9578063d64d79d01461010457610055565b3661005557005b600080fd5b34801561006657600080fd5b5061006f610146565b60405161007c9190610799565b60405180910390f35b34801561009157600080fd5b5061009a61016c565b6040516100a79190610799565b60405180910390f35b3480156100bc57600080fd5b506100d760048036038101906100d29190610970565b610192565b005b3480156100e557600080fd5b506100ee61065c565b6040516100fb9190610a44565b60405180910390f35b34801561011057600080fd5b5061012b60048036038101906101269190610a5f565b610662565b60405161013d96959493929190610aa7565b60405180910390f35b600260009054906101000a900473ffffffffffffffffffffffffffffffffffffffff1681565b600160009054906101000a900473ffffffffffffffffffffffffffffffffffffffff1681565b6000808154809291906101a490610b37565b9190505550600080549050600042846101bd9190610b7f565b905060006040516101cd9061074b565b604051809103906000f0801580156101e9573d6000803e3d6000fd5b5090506000600260009054906101000a900473ffffffffffffffffffffffffffffffffffffffff1673ffffffffffffffffffffffffffffffffffffffff1663f14dde178b8b858c8c898c6040518863ffffffff1660e01b81526004016102559796959493929190610c32565b6020604051808303816000875af1158015610274573d6000803e3d6000fd5b505050506040513d601f19601f820116820180604052508101906102989190610cc4565b90506000600160009054906101000a900473ffffffffffffffffffffffffffffffffffffffff1673ffffffffffffffffffffffffffffffffffffffff1663dd5de44d868b8b866040518563ffffffff1660e01b81526004016102fd9493929190610cf1565b6020604051808303816000875af115801561031c573d6000803e3d6000fd5b505050506040513d601f19601f820116820180604052508101906103409190610cc4565b90508173ffffffffffffffffffffffffffffffffffffffff16638f283970826040518263ffffffff1660e01b815260040161037b9190610799565b600060405180830381600087803b15801561039557600080fd5b505af11580156103a9573d6000803e3d6000fd5b505050508273ffffffffffffffffffffffffffffffffffffffff1663c0caa772836040518263ffffffff1660e01b81526004016103e69190610799565b600060405180830381600087803b15801561040057600080fd5b505af1158015610414573d6000803e3d6000fd5b505050506040518060c001604052808373ffffffffffffffffffffffffffffffffffffffff1681526020018473ffffffffffffffffffffffffffffffffffffffff1681526020018273ffffffffffffffffffffffffffffffffffffffff1681526020018a73ffffffffffffffffffffffffffffffffffffffff1681526020018973ffffffffffffffffffffffffffffffffffffffff168152602001600015158152506003600087815260200190815260200160002060008201518160000160006101000a81548173ffffffffffffffffffffffffffffffffffffffff021916908373ffffffffffffffffffffffffffffffffffffffff16021790555060208201518160010160006101000a81548173ffffffffffffffffffffffffffffffffffffffff021916908373ffffffffffffffffffffffffffffffffffffffff16021790555060408201518160020160006101000a81548173ffffffffffffffffffffffffffffffffffffffff021916908373ffffffffffffffffffffffffffffffffffffffff16021790555060608201518160030160006101000a81548173ffffffffffffffffffffffffffffffffffffffff021916908373ffffffffffffffffffffffffffffffffffffffff16021790555060808201518160040160006101000a81548173ffffffffffffffffffffffffffffffffffffffff021916908373ffffffffffffffffffffffffffffffffffffffff16021790555060a08201518160040160146101000a81548160ff0219169083151502179055509050505050505050505050505050565b60005481565b60036020528060005260406000206000915090508060000160009054906101000a900473ffffffffffffffffffffffffffffffffffffffff16908060010160009054906101000a900473ffffffffffffffffffffffffffffffffffffffff16908060020160009054906101000a900473ffffffffffffffffffffffffffffffffffffffff16908060030160009054906101000a900473ffffffffffffffffffffffffffffffffffffffff16908060040160009054906101000a900473ffffffffffffffffffffffffffffffffffffffff16908060040160149054906101000a900460ff16905086565b61077980610d3783390190565b600073ffffffffffffffffffffffffffffffffffffffff82169050919050565b600061078382610758565b9050919050565b61079381610778565b82525050565b60006020820190506107ae600083018461078a565b92915050565b6000604051905090565b600080fd5b600080fd5b600080fd5b600080fd5b6000601f19601f8301169050919050565b7f4e487b7100000000000000000000000000000000000000000000000000000000600052604160045260246000fd5b61081b826107d2565b810181811067ffffffffffffffff8211171561083a576108396107e3565b5b80604052505050565b600061084d6107b4565b90506108598282610812565b919050565b600067ffffffffffffffff821115610879576108786107e3565b5b610882826107d2565b9050602081019050919050565b82818337600083830152505050565b60006108b16108ac8461085e565b610843565b9050828152602081018484840111156108cd576108cc6107cd565b5b6108d884828561088f565b509392505050565b600082601f8301126108f5576108f46107c8565b5b813561090584826020860161089e565b91505092915050565b61091781610778565b811461092257600080fd5b50565b6000813590506109348161090e565b92915050565b6000819050919050565b61094d8161093a565b811461095857600080fd5b50565b60008135905061096a81610944565b92915050565b60008060008060008060c0878903121561098d5761098c6107be565b5b600087013567ffffffffffffffff8111156109ab576109aa6107c3565b5b6109b789828a016108e0565b965050602087013567ffffffffffffffff8111156109d8576109d76107c3565b5b6109e489828a016108e0565b95505060406109f589828a01610925565b9450506060610a0689828a01610925565b9350506080610a1789828a0161095b565b92505060a0610a2889828a0161095b565b9150509295509295509295565b610a3e8161093a565b82525050565b6000602082019050610a596000830184610a35565b92915050565b600060208284031215610a7557610a746107be565b5b6000610a838482850161095b565b91505092915050565b60008115159050919050565b610aa181610a8c565b82525050565b600060c082019050610abc600083018961078a565b610ac9602083018861078a565b610ad6604083018761078a565b610ae3606083018661078a565b610af0608083018561078a565b610afd60a0830184610a98565b979650505050505050565b7f4e487b7100000000000000000000000000000000000000000000000000000000600052601160045260246000fd5b6000610b428261093a565b91507fffffffffffffffffffffffffffffffffffffffffffffffffffffffffffffffff8203610b7457610b73610b08565b5b600182019050919050565b6000610b8a8261093a565b9150610b958361093a565b9250828201905080821115610bad57610bac610b08565b5b92915050565b600081519050919050565b600082825260208201905092915050565b60005b83811015610bed578082015181840152602081019050610bd2565b60008484015250505050565b6000610c0482610bb3565b610c0e8185610bbe565b9350610c1e818560208601610bcf565b610c27816107d2565b840191505092915050565b600060e0820190508181036000830152610c4c818a610bf9565b90508181036020830152610c608189610bf9565b9050610c6f604083018861078a565b610c7c606083018761078a565b610c89608083018661078a565b610c9660a0830185610a35565b610ca360c0830184610a35565b98975050505050505050565b600081519050610cbe8161090e565b92915050565b600060208284031215610cda57610cd96107be565b5b6000610ce884828501610caf565b91505092915050565b6000608082019050610d066000830187610a35565b610d13602083018661078a565b610d20604083018561078a565b610d2d606083018461078a565b9594505050505056fe608060405234801561001057600080fd5b50336000806101000a81548173ffffffffffffffffffffffffffffffffffffffff021916908373ffffffffffffffffffffffffffffffffffffffff160217905550610719806100606000396000f3fe60806040526004361061004e5760003560e01c80631162f3dd1461005a57806369d8957514610085578063a99c20a31461008f578063c0c1a370146100b8578063c0caa772146100e157610055565b3661005557005b600080fd5b34801561006657600080fd5b5061006f61010a565b60405161007c919061048a565b60405180910390f35b61008d610110565b005b34801561009b57600080fd5b506100b660048036038101906100b191906104d6565b61020b565b005b3480156100c457600080fd5b506100df60048036038101906100da91906104d6565b610307565b005b3480156100ed57600080fd5b5061010860048036038101906101039190610561565b61039f565b005b60025481565b600160009054906101000a900473ffffffffffffffffffffffffffffffffffffffff1673ffffffffffffffffffffffffffffffffffffffff163373ffffffffffffffffffffffffffffffffffffffff16146101a0576040517f08c379a0000000000000000000000000000000000000000000000000000000008152600401610197906105eb565b60405180910390fd5b600160009054906101000a900473ffffffffffffffffffffffffffffffffffffffff1673ffffffffffffffffffffffffffffffffffffffff166108fc479081150290604051600060405180830381858888f19350505050158015610208573d6000803e3d6000fd5b50565b600160009054906101000a900473ffffffffffffffffffffffffffffffffffffffff1673ffffffffffffffffffffffffffffffffffffffff163373ffffffffffffffffffffffffffffffffffffffff161461029b576040517f08c379a0000000000000000000000000000000000000000000000000000000008152600401610292906105eb565b60405180910390fd5b600160009054906101000a900473ffffffffffffffffffffffffffffffffffffffff1673ffffffffffffffffffffffffffffffffffffffff166108fc829081150290604051600060405180830381858888f19350505050158015610303573d6000803e3d6000fd5b5050565b60008054906101000a900473ffffffffffffffffffffffffffffffffffffffff1673ffffffffffffffffffffffffffffffffffffffff163373ffffffffffffffffffffffffffffffffffffffff1614610395576040517f08c379a000000000000000000000000000000000000000000000000000000000815260040161038c90610657565b60405180910390fd5b8060028190555050565b60008054906101000a900473ffffffffffffffffffffffffffffffffffffffff1673ffffffffffffffffffffffffffffffffffffffff163373ffffffffffffffffffffffffffffffffffffffff161461042d576040517f08c379a0000000000000000000000000000000000000000000000000000000008152600401610424906106c3565b60405180910390fd5b80600160006101000a81548173ffffffffffffffffffffffffffffffffffffffff021916908373ffffffffffffffffffffffffffffffffffffffff16021790555050565b6000819050919050565b61048481610471565b82525050565b600060208201905061049f600083018461047b565b92915050565b600080fd5b6104b381610471565b81146104be57600080fd5b50565b6000813590506104d0816104aa565b92915050565b6000602082840312156104ec576104eb6104a5565b5b60006104fa848285016104c1565b91505092915050565b600073ffffffffffffffffffffffffffffffffffffffff82169050919050565b600061052e82610503565b9050919050565b61053e81610523565b811461054957600080fd5b50565b60008135905061055b81610535565b92915050565b600060208284031215610577576105766104a5565b5b60006105858482850161054c565b91505092915050565b600082825260208201905092915050565b7f6f6e6c79207469636b6574732066756e6374696f6e0000000000000000000000600082015250565b60006105d560158361058e565b91506105e08261059f565b602082019050919050565b60006020820190508181036000830152610604816105c8565b9050919050565b7f6f6e6c792061646d696e2066756e6374696f6e00000000000000000000000000600082015250565b600061064160138361058e565b915061064c8261060b565b602082019050919050565b6000602082019050818103600083015261067081610634565b9050919050565b7f6f6e6c792061646d696e00000000000000000000000000000000000000000000600082015250565b60006106ad600a8361058e565b91506106b882610677565b602082019050919050565b600060208201905081810360008301526106dc816106a0565b905091905056fea2646970667358221220e09c33777463e2c12b5981c6ce70732819a76af192b711d87a9319fd2f25d66964736f6c63430008110033a264697066735822122073876f52f89e56435b83e7eeaec029c0e6e021e124a2bc8b8ad51e567ec1bd0d64736f6c63430008110033",
    "linkReferences": {},
    "deployedLinkReferences": {}
}