{
  "_format": "hh-sol-artifact-1",
  "contractName": "Cryptickets",
  "sourceName": "contracts/Cryptickets.sol",
  "abi": [
    {
      "inputs": [
        {
          "internalType": "string",
          "name": "_name",
          "type": "string"
        },
        {
          "internalType": "string",
          "name": "_symbol",
          "type": "string"
        },
        {
          "internalType": "address",
          "name": "_escrowAddress",
          "type": "address"
        },
        {
          "internalType": "address",
          "name": "_bandAddress",
          "type": "address"
        },
        {
          "internalType": "address",
          "name": "_venueAddress",
          "type": "address"
        },
        {
          "internalType": "uint256",
          "name": "_endDate",
          "type": "uint256"
        },
        {
          "internalType": "uint256",
          "name": "_price",
          "type": "uint256"
        }
      ],
      "stateMutability": "nonpayable",
      "type": "constructor"
    },
    {
      "anonymous": false,
      "inputs": [
        {
          "indexed": true,
          "internalType": "address",
          "name": "owner",
          "type": "address"
        },
        {
          "indexed": true,
          "internalType": "address",
          "name": "approved",
          "type": "address"
        },
        {
          "indexed": true,
          "internalType": "uint256",
          "name": "tokenId",
          "type": "uint256"
        }
      ],
      "name": "Approval",
      "type": "event"
    },
    {
      "anonymous": false,
      "inputs": [
        {
          "indexed": true,
          "internalType": "address",
          "name": "owner",
          "type": "address"
        },
        {
          "indexed": true,
          "internalType": "address",
          "name": "operator",
          "type": "address"
        },
        {
          "indexed": false,
          "internalType": "bool",
          "name": "approved",
          "type": "bool"
        }
      ],
      "name": "ApprovalForAll",
      "type": "event"
    },
    {
      "anonymous": false,
      "inputs": [
        {
          "indexed": false,
          "internalType": "address",
          "name": "to",
          "type": "address"
        },
        {
          "indexed": false,
          "internalType": "uint256",
          "name": "amountPurchased",
          "type": "uint256"
        }
      ],
      "name": "TicketsPurchased",
      "type": "event"
    },
    {
      "anonymous": false,
      "inputs": [
        {
          "indexed": true,
          "internalType": "address",
          "name": "from",
          "type": "address"
        },
        {
          "indexed": true,
          "internalType": "address",
          "name": "to",
          "type": "address"
        },
        {
          "indexed": true,
          "internalType": "uint256",
          "name": "tokenId",
          "type": "uint256"
        }
      ],
      "name": "Transfer",
      "type": "event"
    },
    {
      "inputs": [],
      "name": "_tokenIds",
      "outputs": [
        {
          "internalType": "uint256",
          "name": "_value",
          "type": "uint256"
        }
      ],
      "stateMutability": "view",
      "type": "function"
    },
    {
      "inputs": [],
      "name": "admin",
      "outputs": [
        {
          "internalType": "address",
          "name": "",
          "type": "address"
        }
      ],
      "stateMutability": "view",
      "type": "function"
    },
    {
      "inputs": [
        {
          "internalType": "uint256",
          "name": "",
          "type": "uint256"
        }
      ],
      "name": "allOwners",
      "outputs": [
        {
          "internalType": "address",
          "name": "",
          "type": "address"
        }
      ],
      "stateMutability": "view",
      "type": "function"
    },
    {
      "inputs": [
        {
          "internalType": "address",
          "name": "to",
          "type": "address"
        },
        {
          "internalType": "uint256",
          "name": "tokenId",
          "type": "uint256"
        }
      ],
      "name": "approve",
      "outputs": [],
      "stateMutability": "nonpayable",
      "type": "function"
    },
    {
      "inputs": [
        {
          "internalType": "address",
          "name": "owner",
          "type": "address"
        }
      ],
      "name": "balanceOf",
      "outputs": [
        {
          "internalType": "uint256",
          "name": "",
          "type": "uint256"
        }
      ],
      "stateMutability": "view",
      "type": "function"
    },
    {
      "inputs": [],
      "name": "bandPercent",
      "outputs": [
        {
          "internalType": "uint256",
          "name": "",
          "type": "uint256"
        }
      ],
      "stateMutability": "view",
      "type": "function"
    },
    {
      "inputs": [],
      "name": "baseUri",
      "outputs": [
        {
          "internalType": "string",
          "name": "",
          "type": "string"
        }
      ],
      "stateMutability": "view",
      "type": "function"
    },
    {
      "inputs": [
        {
          "internalType": "address",
          "name": "_controller",
          "type": "address"
        }
      ],
      "name": "changeAdmin",
      "outputs": [],
      "stateMutability": "nonpayable",
      "type": "function"
    },
    {
      "inputs": [
        {
          "internalType": "uint256",
          "name": "_newShowDate",
          "type": "uint256"
        }
      ],
      "name": "changeShowDate",
      "outputs": [],
      "stateMutability": "nonpayable",
      "type": "function"
    },
    {
      "inputs": [],
      "name": "endDate",
      "outputs": [
        {
          "internalType": "uint256",
          "name": "",
          "type": "uint256"
        }
      ],
      "stateMutability": "view",
      "type": "function"
    },
    {
      "inputs": [
        {
          "internalType": "uint256",
          "name": "tokenId",
          "type": "uint256"
        }
      ],
      "name": "getApproved",
      "outputs": [
        {
          "internalType": "address",
          "name": "",
          "type": "address"
        }
      ],
      "stateMutability": "view",
      "type": "function"
    },
    {
      "inputs": [
        {
          "internalType": "address",
          "name": "owner",
          "type": "address"
        },
        {
          "internalType": "address",
          "name": "operator",
          "type": "address"
        }
      ],
      "name": "isApprovedForAll",
      "outputs": [
        {
          "internalType": "bool",
          "name": "",
          "type": "bool"
        }
      ],
      "stateMutability": "view",
      "type": "function"
    },
    {
      "inputs": [],
      "name": "maxSupply",
      "outputs": [
        {
          "internalType": "uint256",
          "name": "",
          "type": "uint256"
        }
      ],
      "stateMutability": "view",
      "type": "function"
    },
    {
      "inputs": [],
      "name": "name",
      "outputs": [
        {
          "internalType": "string",
          "name": "",
          "type": "string"
        }
      ],
      "stateMutability": "view",
      "type": "function"
    },
    {
      "inputs": [
        {
          "internalType": "uint256",
          "name": "tokenId",
          "type": "uint256"
        }
      ],
      "name": "ownerOf",
      "outputs": [
        {
          "internalType": "address",
          "name": "",
          "type": "address"
        }
      ],
      "stateMutability": "view",
      "type": "function"
    },
    {
      "inputs": [],
      "name": "payBandAndVenue",
      "outputs": [],
      "stateMutability": "payable",
      "type": "function"
    },
    {
      "inputs": [
        {
          "internalType": "uint256",
          "name": "amount",
          "type": "uint256"
        },
        {
          "internalType": "string",
          "name": "tokenUri",
          "type": "string"
        }
      ],
      "name": "purchaseTickets",
      "outputs": [],
      "stateMutability": "payable",
      "type": "function"
    },
    {
      "inputs": [],
      "name": "refundAllTickets",
      "outputs": [],
      "stateMutability": "payable",
      "type": "function"
    },
    {
      "inputs": [],
      "name": "requestRefund",
      "outputs": [],
      "stateMutability": "nonpayable",
      "type": "function"
    },
    {
      "inputs": [],
      "name": "rescheduled",
      "outputs": [
        {
          "internalType": "bool",
          "name": "",
          "type": "bool"
        }
      ],
      "stateMutability": "view",
      "type": "function"
    },
    {
      "inputs": [],
      "name": "returnAllOwners",
      "outputs": [
        {
          "internalType": "address[]",
          "name": "",
          "type": "address[]"
        }
      ],
      "stateMutability": "view",
      "type": "function"
    },
    {
      "inputs": [
        {
          "internalType": "address",
          "name": "from",
          "type": "address"
        },
        {
          "internalType": "address",
          "name": "to",
          "type": "address"
        },
        {
          "internalType": "uint256",
          "name": "tokenId",
          "type": "uint256"
        }
      ],
      "name": "safeTransferFrom",
      "outputs": [],
      "stateMutability": "nonpayable",
      "type": "function"
    },
    {
      "inputs": [
        {
          "internalType": "address",
          "name": "from",
          "type": "address"
        },
        {
          "internalType": "address",
          "name": "to",
          "type": "address"
        },
        {
          "internalType": "uint256",
          "name": "tokenId",
          "type": "uint256"
        },
        {
          "internalType": "bytes",
          "name": "data",
          "type": "bytes"
        }
      ],
      "name": "safeTransferFrom",
      "outputs": [],
      "stateMutability": "nonpayable",
      "type": "function"
    },
    {
      "inputs": [
        {
          "internalType": "address",
          "name": "operator",
          "type": "address"
        },
        {
          "internalType": "bool",
          "name": "approved",
          "type": "bool"
        }
      ],
      "name": "setApprovalForAll",
      "outputs": [],
      "stateMutability": "nonpayable",
      "type": "function"
    },
    {
      "inputs": [
        {
          "internalType": "string",
          "name": "_bseuri",
          "type": "string"
        }
      ],
      "name": "setBaseUri",
      "outputs": [],
      "stateMutability": "nonpayable",
      "type": "function"
    },
    {
      "inputs": [],
      "name": "setCancelledShow",
      "outputs": [],
      "stateMutability": "nonpayable",
      "type": "function"
    },
    {
      "inputs": [
        {
          "internalType": "uint256",
          "name": "_maxSupply",
          "type": "uint256"
        }
      ],
      "name": "setMaxSupply",
      "outputs": [],
      "stateMutability": "nonpayable",
      "type": "function"
    },
    {
      "inputs": [],
      "name": "showCancelled",
      "outputs": [
        {
          "internalType": "bool",
          "name": "",
          "type": "bool"
        }
      ],
      "stateMutability": "view",
      "type": "function"
    },
    {
      "inputs": [],
      "name": "showCompleted",
      "outputs": [
        {
          "internalType": "bool",
          "name": "",
          "type": "bool"
        }
      ],
      "stateMutability": "view",
      "type": "function"
    },
    {
      "inputs": [
        {
          "internalType": "bytes4",
          "name": "interfaceId",
          "type": "bytes4"
        }
      ],
      "name": "supportsInterface",
      "outputs": [
        {
          "internalType": "bool",
          "name": "",
          "type": "bool"
        }
      ],
      "stateMutability": "view",
      "type": "function"
    },
    {
      "inputs": [],
      "name": "symbol",
      "outputs": [
        {
          "internalType": "string",
          "name": "",
          "type": "string"
        }
      ],
      "stateMutability": "view",
      "type": "function"
    },
    {
      "inputs": [],
      "name": "ticketLimit",
      "outputs": [
        {
          "internalType": "uint256",
          "name": "",
          "type": "uint256"
        }
      ],
      "stateMutability": "view",
      "type": "function"
    },
    {
      "inputs": [],
      "name": "ticketPrice",
      "outputs": [
        {
          "internalType": "uint256",
          "name": "",
          "type": "uint256"
        }
      ],
      "stateMutability": "view",
      "type": "function"
    },
    {
      "inputs": [
        {
          "internalType": "address",
          "name": "",
          "type": "address"
        }
      ],
      "name": "ticketsPurchased",
      "outputs": [
        {
          "internalType": "uint256",
          "name": "",
          "type": "uint256"
        }
      ],
      "stateMutability": "view",
      "type": "function"
    },
    {
      "inputs": [
        {
          "internalType": "uint256",
          "name": "tokenId",
          "type": "uint256"
        }
      ],
      "name": "tokenURI",
      "outputs": [
        {
          "internalType": "string",
          "name": "",
          "type": "string"
        }
      ],
      "stateMutability": "view",
      "type": "function"
    },
    {
      "inputs": [
        {
          "internalType": "address",
          "name": "from",
          "type": "address"
        },
        {
          "internalType": "address",
          "name": "to",
          "type": "address"
        },
        {
          "internalType": "uint256",
          "name": "tokenId",
          "type": "uint256"
        }
      ],
      "name": "transferFrom",
      "outputs": [],
      "stateMutability": "nonpayable",
      "type": "function"
    },
    {
      "stateMutability": "payable",
      "type": "receive"
    }
  ],
  "bytecode": "0x60e06040526064600955600a600b556008600d553480156200002057600080fd5b5060405162004f9138038062004f91833981810160405281019062000046919062000399565b86868160009081620000599190620006cb565b5080600190816200006b9190620006cb565b50505033600a60006101000a81548173ffffffffffffffffffffffffffffffffffffffff021916908373ffffffffffffffffffffffffffffffffffffffff1602179055508473ffffffffffffffffffffffffffffffffffffffff1660c08173ffffffffffffffffffffffffffffffffffffffff16815250508373ffffffffffffffffffffffffffffffffffffffff1660808173ffffffffffffffffffffffffffffffffffffffff16815250508273ffffffffffffffffffffffffffffffffffffffff1660a08173ffffffffffffffffffffffffffffffffffffffff168152505081600e8190555080600c8190555050505050505050620007b2565b6000604051905090565b600080fd5b600080fd5b600080fd5b600080fd5b6000601f19601f8301169050919050565b7f4e487b7100000000000000000000000000000000000000000000000000000000600052604160045260246000fd5b620001cf8262000184565b810181811067ffffffffffffffff82111715620001f157620001f062000195565b5b80604052505050565b60006200020662000166565b9050620002148282620001c4565b919050565b600067ffffffffffffffff82111562000237576200023662000195565b5b620002428262000184565b9050602081019050919050565b60005b838110156200026f57808201518184015260208101905062000252565b60008484015250505050565b6000620002926200028c8462000219565b620001fa565b905082815260208101848484011115620002b157620002b06200017f565b5b620002be8482856200024f565b509392505050565b600082601f830112620002de57620002dd6200017a565b5b8151620002f08482602086016200027b565b91505092915050565b600073ffffffffffffffffffffffffffffffffffffffff82169050919050565b60006200032682620002f9565b9050919050565b620003388162000319565b81146200034457600080fd5b50565b60008151905062000358816200032d565b92915050565b6000819050919050565b62000373816200035e565b81146200037f57600080fd5b50565b600081519050620003938162000368565b92915050565b600080600080600080600060e0888a031215620003bb57620003ba62000170565b5b600088015167ffffffffffffffff811115620003dc57620003db62000175565b5b620003ea8a828b01620002c6565b975050602088015167ffffffffffffffff8111156200040e576200040d62000175565b5b6200041c8a828b01620002c6565b96505060406200042f8a828b0162000347565b9550506060620004428a828b0162000347565b9450506080620004558a828b0162000347565b93505060a0620004688a828b0162000382565b92505060c06200047b8a828b0162000382565b91505092959891949750929550565b600081519050919050565b7f4e487b7100000000000000000000000000000000000000000000000000000000600052602260045260246000fd5b60006002820490506001821680620004dd57607f821691505b602082108103620004f357620004f262000495565b5b50919050565b60008190508160005260206000209050919050565b60006020601f8301049050919050565b600082821b905092915050565b6000600883026200055d7fffffffffffffffffffffffffffffffffffffffffffffffffffffffffffffffff826200051e565b6200056986836200051e565b95508019841693508086168417925050509392505050565b6000819050919050565b6000620005ac620005a6620005a0846200035e565b62000581565b6200035e565b9050919050565b6000819050919050565b620005c8836200058b565b620005e0620005d782620005b3565b8484546200052b565b825550505050565b600090565b620005f7620005e8565b62000604818484620005bd565b505050565b5b818110156200062c5762000620600082620005ed565b6001810190506200060a565b5050565b601f8211156200067b576200064581620004f9565b62000650846200050e565b8101602085101562000660578190505b620006786200066f856200050e565b83018262000609565b50505b505050565b600082821c905092915050565b6000620006a06000198460080262000680565b1980831691505092915050565b6000620006bb83836200068d565b9150826002028217905092915050565b620006d6826200048a565b67ffffffffffffffff811115620006f257620006f162000195565b5b620006fe8254620004c4565b6200070b82828562000630565b600060209050601f8311600181146200074357600084156200072e578287015190505b6200073a8582620006ad565b865550620007aa565b601f1984166200075386620004f9565b60005b828110156200077d5784890151825560018201915060208501945060208101905062000756565b868310156200079d578489015162000799601f8916826200068d565b8355505b6001600288020188555050505b505050505050565b60805160a05160c05161479a620007f7600039600081816112060152818161174d01528181611a750152611b7501526000611cd701526000611c70015261479a6000f3fe6080604052600436106102135760003560e01c80638f28397011610118578063c24a0f8b116100a0578063d5cef1331161006f578063d5cef1331461077c578063e146f72714610793578063e985e9c51461079d578063ecaabf7f146107da578063f851a440146108055761021a565b8063c24a0f8b146106be578063c769a541146106e9578063c87b56dd14610714578063d5abeb01146107515761021a565b8063a0bcfc7f116100e7578063a0bcfc7f146105fc578063a22cb46514610625578063aa46a4001461064e578063b82af82d14610679578063b88d4fde146106955761021a565b80638f2839701461057357806395d89b411461059c57806399203d23146105c75780639abc8320146105d15761021a565b80635b7646bf1161019b5780636f8b44b01161016a5780636f8b44b0146104a057806370a08231146104c95780637389df8a1461050657806373b4dba11461051d578063833534bb146105485761021a565b80635b7646bf146103d25780635e321dfc146103fb5780636352211e146104265780636ccda0a6146104635761021a565b80631209b1f6116101e25780631209b1f6146102ed5780631516db091461031857806323b872dd146103555780632cc403e01461037e57806342842e0e146103a95761021a565b806301ffc9a71461021f57806306fdde031461025c578063081812fc14610287578063095ea7b3146102c45761021a565b3661021a57005b600080fd5b34801561022b57600080fd5b5061024660048036038101906102419190612f7e565b610830565b6040516102539190612fc6565b60405180910390f35b34801561026857600080fd5b50610271610912565b60405161027e9190613071565b60405180910390f35b34801561029357600080fd5b506102ae60048036038101906102a991906130c9565b6109a4565b6040516102bb9190613137565b60405180910390f35b3480156102d057600080fd5b506102eb60048036038101906102e6919061317e565b6109ea565b005b3480156102f957600080fd5b50610302610b01565b60405161030f91906131cd565b60405180910390f35b34801561032457600080fd5b5061033f600480360381019061033a91906130c9565b610b07565b60405161034c9190613137565b60405180910390f35b34801561036157600080fd5b5061037c600480360381019061037791906131e8565b610b46565b005b34801561038a57600080fd5b50610393610c09565b6040516103a091906131cd565b60405180910390f35b3480156103b557600080fd5b506103d060048036038101906103cb91906131e8565b610c0f565b005b3480156103de57600080fd5b506103f960048036038101906103f491906130c9565b610c2f565b005b34801561040757600080fd5b50610410610ce4565b60405161041d91906131cd565b60405180910390f35b34801561043257600080fd5b5061044d600480360381019061044891906130c9565b610cea565b60405161045a9190613137565b60405180910390f35b34801561046f57600080fd5b5061048a6004803603810190610485919061323b565b610d70565b60405161049791906131cd565b60405180910390f35b3480156104ac57600080fd5b506104c760048036038101906104c291906130c9565b610d88565b005b3480156104d557600080fd5b506104f060048036038101906104eb919061323b565b610e22565b6040516104fd91906131cd565b60405180910390f35b34801561051257600080fd5b5061051b610ed9565b005b34801561052957600080fd5b50610532610f86565b60405161053f9190612fc6565b60405180910390f35b34801561055457600080fd5b5061055d610f99565b60405161056a9190612fc6565b60405180910390f35b34801561057f57600080fd5b5061059a6004803603810190610595919061323b565b610fac565b005b3480156105a857600080fd5b506105b1611080565b6040516105be9190613071565b60405180910390f35b6105cf611112565b005b3480156105dd57600080fd5b506105e6611347565b6040516105f39190613071565b60405180910390f35b34801561060857600080fd5b50610623600480360381019061061e919061339d565b6113d5565b005b34801561063157600080fd5b5061064c60048036038101906106479190613412565b611478565b005b34801561065a57600080fd5b5061066361148e565b60405161067091906131cd565b60405180910390f35b610693600480360381019061068e9190613452565b61149a565b005b3480156106a157600080fd5b506106bc60048036038101906106b7919061354f565b6117ef565b005b3480156106ca57600080fd5b506106d3611851565b6040516106e091906131cd565b60405180910390f35b3480156106f557600080fd5b506106fe611857565b60405161070b9190612fc6565b60405180910390f35b34801561072057600080fd5b5061073b600480360381019061073691906130c9565b61186a565b6040516107489190613071565b60405180910390f35b34801561075d57600080fd5b5061076661197c565b60405161077391906131cd565b60405180910390f35b34801561078857600080fd5b50610791611982565b005b61079b611b02565b005b3480156107a957600080fd5b506107c460048036038101906107bf91906135d2565b611d3f565b6040516107d19190612fc6565b60405180910390f35b3480156107e657600080fd5b506107ef611dd3565b6040516107fc91906136d0565b60405180910390f35b34801561081157600080fd5b5061081a611f7e565b6040516108279190613137565b60405180910390f35b60007f80ac58cd000000000000000000000000000000000000000000000000000000007bffffffffffffffffffffffffffffffffffffffffffffffffffffffff1916827bffffffffffffffffffffffffffffffffffffffffffffffffffffffff191614806108fb57507f5b5e139f000000000000000000000000000000000000000000000000000000007bffffffffffffffffffffffffffffffffffffffffffffffffffffffff1916827bffffffffffffffffffffffffffffffffffffffffffffffffffffffff1916145b8061090b575061090a82611fa4565b5b9050919050565b60606000805461092190613721565b80601f016020809104026020016040519081016040528092919081815260200182805461094d90613721565b801561099a5780601f1061096f5761010080835404028352916020019161099a565b820191906000526020600020905b81548152906001019060200180831161097d57829003601f168201915b5050505050905090565b60006109af8261200e565b6004600083815260200190815260200160002060009054906101000a900473ffffffffffffffffffffffffffffffffffffffff169050919050565b60006109f582610cea565b90508073ffffffffffffffffffffffffffffffffffffffff168373ffffffffffffffffffffffffffffffffffffffff1603610a65576040517f08c379a0000000000000000000000000000000000000000000000000000000008152600401610a5c906137c4565b60405180910390fd5b8073ffffffffffffffffffffffffffffffffffffffff16610a84612059565b73ffffffffffffffffffffffffffffffffffffffff161480610ab35750610ab281610aad612059565b611d3f565b5b610af2576040517f08c379a0000000000000000000000000000000000000000000000000000000008152600401610ae990613856565b60405180910390fd5b610afc8383612061565b505050565b600c5481565b60108181548110610b1757600080fd5b906000526020600020016000915054906101000a900473ffffffffffffffffffffffffffffffffffffffff1681565b610b57610b51612059565b8261211a565b610b96576040517f08c379a0000000000000000000000000000000000000000000000000000000008152600401610b8d906138e8565b60405180910390fd5b6010829080600181540180825580915050600190039060005260206000200160009091909190916101000a81548173ffffffffffffffffffffffffffffffffffffffff021916908373ffffffffffffffffffffffffffffffffffffffff160217905550610c048383836121af565b505050565b600b5481565b610c2a838383604051806020016040528060008152506117ef565b505050565b600a60009054906101000a900473ffffffffffffffffffffffffffffffffffffffff1673ffffffffffffffffffffffffffffffffffffffff163373ffffffffffffffffffffffffffffffffffffffff1614610cbf576040517f08c379a0000000000000000000000000000000000000000000000000000000008152600401610cb690613954565b60405180910390fd5b80600e819055506001600f60026101000a81548160ff02191690831515021790555050565b600d5481565b600080610cf6836124a8565b9050600073ffffffffffffffffffffffffffffffffffffffff168173ffffffffffffffffffffffffffffffffffffffff1603610d67576040517f08c379a0000000000000000000000000000000000000000000000000000000008152600401610d5e906139c0565b60405180910390fd5b80915050919050565b60116020528060005260406000206000915090505481565b600a60009054906101000a900473ffffffffffffffffffffffffffffffffffffffff1673ffffffffffffffffffffffffffffffffffffffff163373ffffffffffffffffffffffffffffffffffffffff1614610e18576040517f08c379a0000000000000000000000000000000000000000000000000000000008152600401610e0f90613954565b60405180910390fd5b8060098190555050565b60008073ffffffffffffffffffffffffffffffffffffffff168273ffffffffffffffffffffffffffffffffffffffff1603610e92576040517f08c379a0000000000000000000000000000000000000000000000000000000008152600401610e8990613a52565b60405180910390fd5b600360008373ffffffffffffffffffffffffffffffffffffffff1673ffffffffffffffffffffffffffffffffffffffff168152602001908152602001600020549050919050565b600a60009054906101000a900473ffffffffffffffffffffffffffffffffffffffff1673ffffffffffffffffffffffffffffffffffffffff163373ffffffffffffffffffffffffffffffffffffffff1614610f69576040517f08c379a0000000000000000000000000000000000000000000000000000000008152600401610f6090613abe565b60405180910390fd5b6001600f60006101000a81548160ff021916908315150217905550565b600f60019054906101000a900460ff1681565b600f60029054906101000a900460ff1681565b600a60009054906101000a900473ffffffffffffffffffffffffffffffffffffffff1673ffffffffffffffffffffffffffffffffffffffff163373ffffffffffffffffffffffffffffffffffffffff161461103c576040517f08c379a000000000000000000000000000000000000000000000000000000000815260040161103390613954565b60405180910390fd5b80600a60006101000a81548173ffffffffffffffffffffffffffffffffffffffff021916908373ffffffffffffffffffffffffffffffffffffffff16021790555050565b60606001805461108f90613721565b80601f01602080910402602001604051908101604052809291908181526020018280546110bb90613721565b80156111085780601f106110dd57610100808354040283529160200191611108565b820191906000526020600020905b8154815290600101906020018083116110eb57829003601f168201915b5050505050905090565b60011515600f60009054906101000a900460ff16151514611168576040517f08c379a000000000000000000000000000000000000000000000000000000000815260040161115f90613b2a565b60405180910390fd5b600a60009054906101000a900473ffffffffffffffffffffffffffffffffffffffff1673ffffffffffffffffffffffffffffffffffffffff163373ffffffffffffffffffffffffffffffffffffffff16146111f8576040517f08c379a00000000000000000000000000000000000000000000000000000000081526004016111ef90613954565b60405180910390fd5b6000611202611dd3565b90507f000000000000000000000000000000000000000000000000000000000000000073ffffffffffffffffffffffffffffffffffffffff166369d895756040518163ffffffff1660e01b8152600401600060405180830381600087803b15801561126c57600080fd5b505af1158015611280573d6000803e3d6000fd5b5050505060005b6010805490508110156113435760006112b98383815181106112ac576112ab613b4a565b5b6020026020010151610e22565b90506000600c54826112cb9190613ba8565b90508383815181106112e0576112df613b4a565b5b602002602001015173ffffffffffffffffffffffffffffffffffffffff166108fc829081150290604051600060405180830381858888f1935050505015801561132d573d6000803e3d6000fd5b505050808061133b90613bea565b915050611287565b5050565b6008805461135490613721565b80601f016020809104026020016040519081016040528092919081815260200182805461138090613721565b80156113cd5780601f106113a2576101008083540402835291602001916113cd565b820191906000526020600020905b8154815290600101906020018083116113b057829003601f168201915b505050505081565b600a60009054906101000a900473ffffffffffffffffffffffffffffffffffffffff1673ffffffffffffffffffffffffffffffffffffffff163373ffffffffffffffffffffffffffffffffffffffff1614611465576040517f08c379a000000000000000000000000000000000000000000000000000000000815260040161145c90613c7e565b60405180910390fd5b80600890816114749190613e4a565b5050565b61148a611483612059565b83836124e5565b5050565b60078060000154905081565b81600c546114a89190613ba8565b3410156114ea576040517f08c379a00000000000000000000000000000000000000000000000000000000081526004016114e190613f68565b60405180910390fd5b600d5482601160003373ffffffffffffffffffffffffffffffffffffffff1673ffffffffffffffffffffffffffffffffffffffff168152602001908152602001600020546115389190613f88565b1115611579576040517f08c379a000000000000000000000000000000000000000000000000000000000815260040161157090614008565b60405180910390fd5b600954826115876007612651565b6115919190613f88565b11156115d2576040517f08c379a00000000000000000000000000000000000000000000000000000000081526004016115c990614074565b60405180910390fd5b60001515600f60009054906101000a900460ff1615151480611607575060011515600f60019054906101000a900460ff161515145b611646576040517f08c379a000000000000000000000000000000000000000000000000000000000815260040161163d906140e0565b60405180910390fd5b81601160003373ffffffffffffffffffffffffffffffffffffffff1673ffffffffffffffffffffffffffffffffffffffff16815260200190815260200160002060008282546116959190613f88565b925050819055506010339080600181540180825580915050600190039060005260206000200160009091909190916101000a81548173ffffffffffffffffffffffffffffffffffffffff021916908373ffffffffffffffffffffffffffffffffffffffff16021790555060005b8281101561174a57611714600761265f565b60006117206007612651565b905061172c3382612675565b6117368184612892565b50808061174290613bea565b915050611702565b507f000000000000000000000000000000000000000000000000000000000000000073ffffffffffffffffffffffffffffffffffffffff166108fc349081150290604051600060405180830381858888f193505050501580156117b1573d6000803e3d6000fd5b507fe11731cb4f1eb3ec3dd09bdc96809bb07365f4c881cda3192b397a4bc0b6da4033836040516117e3929190614100565b60405180910390a15050565b6118006117fa612059565b8361211a565b61183f576040517f08c379a0000000000000000000000000000000000000000000000000000000008152600401611836906138e8565b60405180910390fd5b61184b848484846128ff565b50505050565b600e5481565b600f60009054906101000a900460ff1681565b60606118758261200e565b600060066000848152602001908152602001600020805461189590613721565b80601f01602080910402602001604051908101604052809291908181526020018280546118c190613721565b801561190e5780601f106118e35761010080835404028352916020019161190e565b820191906000526020600020905b8154815290600101906020018083116118f157829003601f168201915b50505050509050600061191f61295b565b90506000815103611934578192505050611977565b600082511115611969578082604051602001611951929190614165565b60405160208183030381529060405292505050611977565b61197284612972565b925050505b919050565b60095481565b60011515600f60029054906101000a900460ff161515146119d8576040517f08c379a00000000000000000000000000000000000000000000000000000000081526004016119cf906141d5565b60405180910390fd5b6000601160003373ffffffffffffffffffffffffffffffffffffffff1673ffffffffffffffffffffffffffffffffffffffff1681526020019081526020016000205490506000600c5482611a2c9190613ba8565b90506000601160003373ffffffffffffffffffffffffffffffffffffffff1673ffffffffffffffffffffffffffffffffffffffff168152602001908152602001600020819055507f000000000000000000000000000000000000000000000000000000000000000073ffffffffffffffffffffffffffffffffffffffff1663a99c20a3826040518263ffffffff1660e01b8152600401611acc91906131cd565b600060405180830381600087803b158015611ae657600080fd5b505af1158015611afa573d6000803e3d6000fd5b505050505050565b60001515600f60009054906101000a900460ff16151514611b58576040517f08c379a0000000000000000000000000000000000000000000000000000000008152600401611b4f90614241565b60405180910390fd5b6001600f60016101000a81548160ff0219169083151502179055507f000000000000000000000000000000000000000000000000000000000000000073ffffffffffffffffffffffffffffffffffffffff166369d895756040518163ffffffff1660e01b8152600401600060405180830381600087803b158015611bdb57600080fd5b505af1158015611bef573d6000803e3d6000fd5b505050506000600b5447611c039190614290565b9050600a60009054906101000a900473ffffffffffffffffffffffffffffffffffffffff1673ffffffffffffffffffffffffffffffffffffffff166108fc829081150290604051600060405180830381858888f19350505050158015611c6d573d6000803e3d6000fd5b507f000000000000000000000000000000000000000000000000000000000000000073ffffffffffffffffffffffffffffffffffffffff166108fc829081150290604051600060405180830381858888f19350505050158015611cd4573d6000803e3d6000fd5b507f000000000000000000000000000000000000000000000000000000000000000073ffffffffffffffffffffffffffffffffffffffff166108fc479081150290604051600060405180830381858888f19350505050158015611d3b573d6000803e3d6000fd5b5050565b6000600560008473ffffffffffffffffffffffffffffffffffffffff1673ffffffffffffffffffffffffffffffffffffffff16815260200190815260200160002060008373ffffffffffffffffffffffffffffffffffffffff1673ffffffffffffffffffffffffffffffffffffffff16815260200190815260200160002060009054906101000a900460ff16905092915050565b6060600a60009054906101000a900473ffffffffffffffffffffffffffffffffffffffff1673ffffffffffffffffffffffffffffffffffffffff163373ffffffffffffffffffffffffffffffffffffffff1614611e65576040517f08c379a0000000000000000000000000000000000000000000000000000000008152600401611e5c90613c7e565b60405180910390fd5b600060108054905067ffffffffffffffff811115611e8657611e85613272565b5b604051908082528060200260200182016040528015611eb45781602001602082028036833780820191505090505b5090506000805b601080549050811015611f755760108181548110611edc57611edb613b4a565b5b9060005260206000200160009054906101000a900473ffffffffffffffffffffffffffffffffffffffff16838381518110611f1a57611f19613b4a565b5b602002602001019073ffffffffffffffffffffffffffffffffffffffff16908173ffffffffffffffffffffffffffffffffffffffff16815250508180611f5f90613bea565b9250508080611f6d90613bea565b915050611ebb565b50819250505090565b600a60009054906101000a900473ffffffffffffffffffffffffffffffffffffffff1681565b60007f01ffc9a7000000000000000000000000000000000000000000000000000000007bffffffffffffffffffffffffffffffffffffffffffffffffffffffff1916827bffffffffffffffffffffffffffffffffffffffffffffffffffffffff1916149050919050565b612017816129da565b612056576040517f08c379a000000000000000000000000000000000000000000000000000000000815260040161204d906139c0565b60405180910390fd5b50565b600033905090565b816004600083815260200190815260200160002060006101000a81548173ffffffffffffffffffffffffffffffffffffffff021916908373ffffffffffffffffffffffffffffffffffffffff160217905550808273ffffffffffffffffffffffffffffffffffffffff166120d483610cea565b73ffffffffffffffffffffffffffffffffffffffff167f8c5be1e5ebec7d5bd14f71427d1e84f3dd0314c0f7b2291e5b200ac8c7c3b92560405160405180910390a45050565b60008061212683610cea565b90508073ffffffffffffffffffffffffffffffffffffffff168473ffffffffffffffffffffffffffffffffffffffff16148061216857506121678185611d3f565b5b806121a657508373ffffffffffffffffffffffffffffffffffffffff1661218e846109a4565b73ffffffffffffffffffffffffffffffffffffffff16145b91505092915050565b8273ffffffffffffffffffffffffffffffffffffffff166121cf82610cea565b73ffffffffffffffffffffffffffffffffffffffff1614612225576040517f08c379a000000000000000000000000000000000000000000000000000000000815260040161221c90614333565b60405180910390fd5b600073ffffffffffffffffffffffffffffffffffffffff168273ffffffffffffffffffffffffffffffffffffffff1603612294576040517f08c379a000000000000000000000000000000000000000000000000000000000815260040161228b906143c5565b60405180910390fd5b6122a18383836001612a1b565b8273ffffffffffffffffffffffffffffffffffffffff166122c182610cea565b73ffffffffffffffffffffffffffffffffffffffff1614612317576040517f08c379a000000000000000000000000000000000000000000000000000000000815260040161230e90614333565b60405180910390fd5b6004600082815260200190815260200160002060006101000a81549073ffffffffffffffffffffffffffffffffffffffff02191690556001600360008573ffffffffffffffffffffffffffffffffffffffff1673ffffffffffffffffffffffffffffffffffffffff168152602001908152602001600020600082825403925050819055506001600360008473ffffffffffffffffffffffffffffffffffffffff1673ffffffffffffffffffffffffffffffffffffffff16815260200190815260200160002060008282540192505081905550816002600083815260200190815260200160002060006101000a81548173ffffffffffffffffffffffffffffffffffffffff021916908373ffffffffffffffffffffffffffffffffffffffff160217905550808273ffffffffffffffffffffffffffffffffffffffff168473ffffffffffffffffffffffffffffffffffffffff167fddf252ad1be2c89b69c2b068fc378daa952ba7f163c4a11628f55a4df523b3ef60405160405180910390a46124a38383836001612b41565b505050565b60006002600083815260200190815260200160002060009054906101000a900473ffffffffffffffffffffffffffffffffffffffff169050919050565b8173ffffffffffffffffffffffffffffffffffffffff168373ffffffffffffffffffffffffffffffffffffffff1603612553576040517f08c379a000000000000000000000000000000000000000000000000000000000815260040161254a90614431565b60405180910390fd5b80600560008573ffffffffffffffffffffffffffffffffffffffff1673ffffffffffffffffffffffffffffffffffffffff16815260200190815260200160002060008473ffffffffffffffffffffffffffffffffffffffff1673ffffffffffffffffffffffffffffffffffffffff16815260200190815260200160002060006101000a81548160ff0219169083151502179055508173ffffffffffffffffffffffffffffffffffffffff168373ffffffffffffffffffffffffffffffffffffffff167f17307eab39ab6107e8899845ad3d59bd9653f200f220920489ca2b5937696c31836040516126449190612fc6565b60405180910390a3505050565b600081600001549050919050565b6001816000016000828254019250508190555050565b600073ffffffffffffffffffffffffffffffffffffffff168273ffffffffffffffffffffffffffffffffffffffff16036126e4576040517f08c379a00000000000000000000000000000000000000000000000000000000081526004016126db9061449d565b60405180910390fd5b6126ed816129da565b1561272d576040517f08c379a000000000000000000000000000000000000000000000000000000000815260040161272490614509565b60405180910390fd5b61273b600083836001612a1b565b612744816129da565b15612784576040517f08c379a000000000000000000000000000000000000000000000000000000000815260040161277b90614509565b60405180910390fd5b6001600360008473ffffffffffffffffffffffffffffffffffffffff1673ffffffffffffffffffffffffffffffffffffffff16815260200190815260200160002060008282540192505081905550816002600083815260200190815260200160002060006101000a81548173ffffffffffffffffffffffffffffffffffffffff021916908373ffffffffffffffffffffffffffffffffffffffff160217905550808273ffffffffffffffffffffffffffffffffffffffff16600073ffffffffffffffffffffffffffffffffffffffff167fddf252ad1be2c89b69c2b068fc378daa952ba7f163c4a11628f55a4df523b3ef60405160405180910390a461288e600083836001612b41565b5050565b61289b826129da565b6128da576040517f08c379a00000000000000000000000000000000000000000000000000000000081526004016128d19061459b565b60405180910390fd5b806006600084815260200190815260200160002090816128fa9190613e4a565b505050565b61290a8484846121af565b61291684848484612b47565b612955576040517f08c379a000000000000000000000000000000000000000000000000000000000815260040161294c9061462d565b60405180910390fd5b50505050565b606060405180602001604052806000815250905090565b606061297d8261200e565b600061298761295b565b905060008151116129a757604051806020016040528060008152506129d2565b806129b184612cce565b6040516020016129c2929190614165565b6040516020818303038152906040525b915050919050565b60008073ffffffffffffffffffffffffffffffffffffffff166129fc836124a8565b73ffffffffffffffffffffffffffffffffffffffff1614159050919050565b6001811115612b3b57600073ffffffffffffffffffffffffffffffffffffffff168473ffffffffffffffffffffffffffffffffffffffff1614612aaf5780600360008673ffffffffffffffffffffffffffffffffffffffff1673ffffffffffffffffffffffffffffffffffffffff1681526020019081526020016000206000828254612aa7919061464d565b925050819055505b600073ffffffffffffffffffffffffffffffffffffffff168373ffffffffffffffffffffffffffffffffffffffff1614612b3a5780600360008573ffffffffffffffffffffffffffffffffffffffff1673ffffffffffffffffffffffffffffffffffffffff1681526020019081526020016000206000828254612b329190613f88565b925050819055505b5b50505050565b50505050565b6000612b688473ffffffffffffffffffffffffffffffffffffffff16612d9c565b15612cc1578373ffffffffffffffffffffffffffffffffffffffff1663150b7a02612b91612059565b8786866040518563ffffffff1660e01b8152600401612bb394939291906146d6565b6020604051808303816000875af1925050508015612bef57506040513d601f19601f82011682018060405250810190612bec9190614737565b60015b612c71573d8060008114612c1f576040519150601f19603f3d011682016040523d82523d6000602084013e612c24565b606091505b506000815103612c69576040517f08c379a0000000000000000000000000000000000000000000000000000000008152600401612c609061462d565b60405180910390fd5b805181602001fd5b63150b7a0260e01b7bffffffffffffffffffffffffffffffffffffffffffffffffffffffff1916817bffffffffffffffffffffffffffffffffffffffffffffffffffffffff191614915050612cc6565b600190505b949350505050565b606060006001612cdd84612dbf565b01905060008167ffffffffffffffff811115612cfc57612cfb613272565b5b6040519080825280601f01601f191660200182016040528015612d2e5781602001600182028036833780820191505090505b509050600082602001820190505b600115612d91578080600190039150507f3031323334353637383961626364656600000000000000000000000000000000600a86061a8153600a8581612d8557612d84614261565b5b04945060008503612d3c575b819350505050919050565b6000808273ffffffffffffffffffffffffffffffffffffffff163b119050919050565b600080600090507a184f03e93ff9f4daa797ed6e38ed64bf6a1f0100000000000000008310612e1d577a184f03e93ff9f4daa797ed6e38ed64bf6a1f0100000000000000008381612e1357612e12614261565b5b0492506040810190505b6d04ee2d6d415b85acef81000000008310612e5a576d04ee2d6d415b85acef81000000008381612e5057612e4f614261565b5b0492506020810190505b662386f26fc100008310612e8957662386f26fc100008381612e7f57612e7e614261565b5b0492506010810190505b6305f5e1008310612eb2576305f5e1008381612ea857612ea7614261565b5b0492506008810190505b6127108310612ed7576127108381612ecd57612ecc614261565b5b0492506004810190505b60648310612efa5760648381612ef057612eef614261565b5b0492506002810190505b600a8310612f09576001810190505b80915050919050565b6000604051905090565b600080fd5b600080fd5b60007fffffffff0000000000000000000000000000000000000000000000000000000082169050919050565b612f5b81612f26565b8114612f6657600080fd5b50565b600081359050612f7881612f52565b92915050565b600060208284031215612f9457612f93612f1c565b5b6000612fa284828501612f69565b91505092915050565b60008115159050919050565b612fc081612fab565b82525050565b6000602082019050612fdb6000830184612fb7565b92915050565b600081519050919050565b600082825260208201905092915050565b60005b8381101561301b578082015181840152602081019050613000565b60008484015250505050565b6000601f19601f8301169050919050565b600061304382612fe1565b61304d8185612fec565b935061305d818560208601612ffd565b61306681613027565b840191505092915050565b6000602082019050818103600083015261308b8184613038565b905092915050565b6000819050919050565b6130a681613093565b81146130b157600080fd5b50565b6000813590506130c38161309d565b92915050565b6000602082840312156130df576130de612f1c565b5b60006130ed848285016130b4565b91505092915050565b600073ffffffffffffffffffffffffffffffffffffffff82169050919050565b6000613121826130f6565b9050919050565b61313181613116565b82525050565b600060208201905061314c6000830184613128565b92915050565b61315b81613116565b811461316657600080fd5b50565b60008135905061317881613152565b92915050565b6000806040838503121561319557613194612f1c565b5b60006131a385828601613169565b92505060206131b4858286016130b4565b9150509250929050565b6131c781613093565b82525050565b60006020820190506131e260008301846131be565b92915050565b60008060006060848603121561320157613200612f1c565b5b600061320f86828701613169565b935050602061322086828701613169565b9250506040613231868287016130b4565b9150509250925092565b60006020828403121561325157613250612f1c565b5b600061325f84828501613169565b91505092915050565b600080fd5b600080fd5b7f4e487b7100000000000000000000000000000000000000000000000000000000600052604160045260246000fd5b6132aa82613027565b810181811067ffffffffffffffff821117156132c9576132c8613272565b5b80604052505050565b60006132dc612f12565b90506132e882826132a1565b919050565b600067ffffffffffffffff82111561330857613307613272565b5b61331182613027565b9050602081019050919050565b82818337600083830152505050565b600061334061333b846132ed565b6132d2565b90508281526020810184848401111561335c5761335b61326d565b5b61336784828561331e565b509392505050565b600082601f83011261338457613383613268565b5b813561339484826020860161332d565b91505092915050565b6000602082840312156133b3576133b2612f1c565b5b600082013567ffffffffffffffff8111156133d1576133d0612f21565b5b6133dd8482850161336f565b91505092915050565b6133ef81612fab565b81146133fa57600080fd5b50565b60008135905061340c816133e6565b92915050565b6000806040838503121561342957613428612f1c565b5b600061343785828601613169565b9250506020613448858286016133fd565b9150509250929050565b6000806040838503121561346957613468612f1c565b5b6000613477858286016130b4565b925050602083013567ffffffffffffffff81111561349857613497612f21565b5b6134a48582860161336f565b9150509250929050565b600067ffffffffffffffff8211156134c9576134c8613272565b5b6134d282613027565b9050602081019050919050565b60006134f26134ed846134ae565b6132d2565b90508281526020810184848401111561350e5761350d61326d565b5b61351984828561331e565b509392505050565b600082601f83011261353657613535613268565b5b81356135468482602086016134df565b91505092915050565b6000806000806080858703121561356957613568612f1c565b5b600061357787828801613169565b945050602061358887828801613169565b9350506040613599878288016130b4565b925050606085013567ffffffffffffffff8111156135ba576135b9612f21565b5b6135c687828801613521565b91505092959194509250565b600080604083850312156135e9576135e8612f1c565b5b60006135f785828601613169565b925050602061360885828601613169565b9150509250929050565b600081519050919050565b600082825260208201905092915050565b6000819050602082019050919050565b61364781613116565b82525050565b6000613659838361363e565b60208301905092915050565b6000602082019050919050565b600061367d82613612565b613687818561361d565b93506136928361362e565b8060005b838110156136c35781516136aa888261364d565b97506136b583613665565b925050600181019050613696565b5085935050505092915050565b600060208201905081810360008301526136ea8184613672565b905092915050565b7f4e487b7100000000000000000000000000000000000000000000000000000000600052602260045260246000fd5b6000600282049050600182168061373957607f821691505b60208210810361374c5761374b6136f2565b5b50919050565b7f4552433732313a20617070726f76616c20746f2063757272656e74206f776e6560008201527f7200000000000000000000000000000000000000000000000000000000000000602082015250565b60006137ae602183612fec565b91506137b982613752565b604082019050919050565b600060208201905081810360008301526137dd816137a1565b9050919050565b7f4552433732313a20617070726f76652063616c6c6572206973206e6f7420746f60008201527f6b656e206f776e6572206f7220617070726f76656420666f7220616c6c000000602082015250565b6000613840603d83612fec565b915061384b826137e4565b604082019050919050565b6000602082019050818103600083015261386f81613833565b9050919050565b7f4552433732313a2063616c6c6572206973206e6f7420746f6b656e206f776e6560008201527f72206f7220617070726f76656400000000000000000000000000000000000000602082015250565b60006138d2602d83612fec565b91506138dd82613876565b604082019050919050565b60006020820190508181036000830152613901816138c5565b9050919050565b7f6f6e6c792061646d696e00000000000000000000000000000000000000000000600082015250565b600061393e600a83612fec565b915061394982613908565b602082019050919050565b6000602082019050818103600083015261396d81613931565b9050919050565b7f4552433732313a20696e76616c696420746f6b656e2049440000000000000000600082015250565b60006139aa601883612fec565b91506139b582613974565b602082019050919050565b600060208201905081810360008301526139d98161399d565b9050919050565b7f4552433732313a2061646472657373207a65726f206973206e6f74206120766160008201527f6c6964206f776e65720000000000000000000000000000000000000000000000602082015250565b6000613a3c602983612fec565b9150613a47826139e0565b604082019050919050565b60006020820190508181036000830152613a6b81613a2f565b9050919050565b7f6f6e6c7941646d696e0000000000000000000000000000000000000000000000600082015250565b6000613aa8600983612fec565b9150613ab382613a72565b602082019050919050565b60006020820190508181036000830152613ad781613a9b565b9050919050565b7f73686f77206e6f742063616e63656c6c65640000000000000000000000000000600082015250565b6000613b14601283612fec565b9150613b1f82613ade565b602082019050919050565b60006020820190508181036000830152613b4381613b07565b9050919050565b7f4e487b7100000000000000000000000000000000000000000000000000000000600052603260045260246000fd5b7f4e487b7100000000000000000000000000000000000000000000000000000000600052601160045260246000fd5b6000613bb382613093565b9150613bbe83613093565b9250828202613bcc81613093565b91508282048414831517613be357613be2613b79565b5b5092915050565b6000613bf582613093565b91507fffffffffffffffffffffffffffffffffffffffffffffffffffffffffffffffff8203613c2757613c26613b79565b5b600182019050919050565b7f6f61000000000000000000000000000000000000000000000000000000000000600082015250565b6000613c68600283612fec565b9150613c7382613c32565b602082019050919050565b60006020820190508181036000830152613c9781613c5b565b9050919050565b60008190508160005260206000209050919050565b60006020601f8301049050919050565b600082821b905092915050565b600060088302613d007fffffffffffffffffffffffffffffffffffffffffffffffffffffffffffffffff82613cc3565b613d0a8683613cc3565b95508019841693508086168417925050509392505050565b6000819050919050565b6000613d47613d42613d3d84613093565b613d22565b613093565b9050919050565b6000819050919050565b613d6183613d2c565b613d75613d6d82613d4e565b848454613cd0565b825550505050565b600090565b613d8a613d7d565b613d95818484613d58565b505050565b5b81811015613db957613dae600082613d82565b600181019050613d9b565b5050565b601f821115613dfe57613dcf81613c9e565b613dd884613cb3565b81016020851015613de7578190505b613dfb613df385613cb3565b830182613d9a565b50505b505050565b600082821c905092915050565b6000613e2160001984600802613e03565b1980831691505092915050565b6000613e3a8383613e10565b9150826002028217905092915050565b613e5382612fe1565b67ffffffffffffffff811115613e6c57613e6b613272565b5b613e768254613721565b613e81828285613dbd565b600060209050601f831160018114613eb45760008415613ea2578287015190505b613eac8582613e2e565b865550613f14565b601f198416613ec286613c9e565b60005b82811015613eea57848901518255600182019150602085019450602081019050613ec5565b86831015613f075784890151613f03601f891682613e10565b8355505b6001600288020188555050505b505050505050565b7f7061790000000000000000000000000000000000000000000000000000000000600082015250565b6000613f52600383612fec565b9150613f5d82613f1c565b602082019050919050565b60006020820190508181036000830152613f8181613f45565b9050919050565b6000613f9382613093565b9150613f9e83613093565b9250828201905080821115613fb657613fb5613b79565b5b92915050565b7f6d61782074697800000000000000000000000000000000000000000000000000600082015250565b6000613ff2600783612fec565b9150613ffd82613fbc565b602082019050919050565b6000602082019050818103600083015261402181613fe5565b9050919050565b7f736f6c64206f7574000000000000000000000000000000000000000000000000600082015250565b600061405e600883612fec565b915061406982614028565b602082019050919050565b6000602082019050818103600083015261408d81614051565b9050919050565b7f73686f77206973206e6f74206f70656e00000000000000000000000000000000600082015250565b60006140ca601083612fec565b91506140d582614094565b602082019050919050565b600060208201905081810360008301526140f9816140bd565b9050919050565b60006040820190506141156000830185613128565b61412260208301846131be565b9392505050565b600081905092915050565b600061413f82612fe1565b6141498185614129565b9350614159818560208601612ffd565b80840191505092915050565b60006141718285614134565b915061417d8284614134565b91508190509392505050565b7f6e6f742072657363686564756c65640000000000000000000000000000000000600082015250565b60006141bf600f83612fec565b91506141ca82614189565b602082019050919050565b600060208201905081810360008301526141ee816141b2565b9050919050565b7f73686f77206e6f7420636f6d706c657465640000000000000000000000000000600082015250565b600061422b601283612fec565b9150614236826141f5565b602082019050919050565b6000602082019050818103600083015261425a8161421e565b9050919050565b7f4e487b7100000000000000000000000000000000000000000000000000000000600052601260045260246000fd5b600061429b82613093565b91506142a683613093565b9250826142b6576142b5614261565b5b828204905092915050565b7f4552433732313a207472616e736665722066726f6d20696e636f72726563742060008201527f6f776e6572000000000000000000000000000000000000000000000000000000602082015250565b600061431d602583612fec565b9150614328826142c1565b604082019050919050565b6000602082019050818103600083015261434c81614310565b9050919050565b7f4552433732313a207472616e7366657220746f20746865207a65726f2061646460008201527f7265737300000000000000000000000000000000000000000000000000000000602082015250565b60006143af602483612fec565b91506143ba82614353565b604082019050919050565b600060208201905081810360008301526143de816143a2565b9050919050565b7f4552433732313a20617070726f766520746f2063616c6c657200000000000000600082015250565b600061441b601983612fec565b9150614426826143e5565b602082019050919050565b6000602082019050818103600083015261444a8161440e565b9050919050565b7f4552433732313a206d696e7420746f20746865207a65726f2061646472657373600082015250565b6000614487602083612fec565b915061449282614451565b602082019050919050565b600060208201905081810360008301526144b68161447a565b9050919050565b7f4552433732313a20746f6b656e20616c7265616479206d696e74656400000000600082015250565b60006144f3601c83612fec565b91506144fe826144bd565b602082019050919050565b60006020820190508181036000830152614522816144e6565b9050919050565b7f45524337323155524953746f726167653a2055524920736574206f66206e6f6e60008201527f6578697374656e7420746f6b656e000000000000000000000000000000000000602082015250565b6000614585602e83612fec565b915061459082614529565b604082019050919050565b600060208201905081810360008301526145b481614578565b9050919050565b7f4552433732313a207472616e7366657220746f206e6f6e20455243373231526560008201527f63656976657220696d706c656d656e7465720000000000000000000000000000602082015250565b6000614617603283612fec565b9150614622826145bb565b604082019050919050565b600060208201905081810360008301526146468161460a565b9050919050565b600061465882613093565b915061466383613093565b925082820390508181111561467b5761467a613b79565b5b92915050565b600081519050919050565b600082825260208201905092915050565b60006146a882614681565b6146b2818561468c565b93506146c2818560208601612ffd565b6146cb81613027565b840191505092915050565b60006080820190506146eb6000830187613128565b6146f86020830186613128565b61470560408301856131be565b8181036060830152614717818461469d565b905095945050505050565b60008151905061473181612f52565b92915050565b60006020828403121561474d5761474c612f1c565b5b600061475b84828501614722565b9150509291505056fea264697066735822122046502b904f687ca49d9686828a51acf95cbbcbee5b4c2e869c5a61116b88379b64736f6c63430008110033",
  "linkReferences": {},
  "deployedLinkReferences": {}
}