{
  "_format": "hh-sol-artifact-1",
  "contractName": "ControlShow",
  "sourceName": "contracts/ControlShow.sol",
  "abi": [
    {
      "inputs": [
        {
          "internalType": "uint256",
          "name": "_showNumber",
          "type": "uint256"
        },
        {
          "internalType": "address",
          "name": "_band",
          "type": "address"
        },
        {
          "internalType": "address",
          "name": "_venue",
          "type": "address"
        }
      ],
      "stateMutability": "nonpayable",
      "type": "constructor"
    },
    {
      "inputs": [],
      "name": "completeShow",
      "outputs": [],
      "stateMutability": "nonpayable",
      "type": "function"
    },
    {
      "inputs": [],
      "name": "refundShow",
      "outputs": [],
      "stateMutability": "nonpayable",
      "type": "function"
    },
    {
      "inputs": [
        {
          "internalType": "address",
          "name": "_ticketContract",
          "type": "address"
        }
      ],
      "name": "setTicketContract",
      "outputs": [],
      "stateMutability": "nonpayable",
      "type": "function"
    },
    {
      "inputs": [],
      "name": "showCompleted",
      "outputs": [
        {
          "internalType": "bool",
          "name": "",
          "type": "bool"
        }
      ],
      "stateMutability": "view",
      "type": "function"
    },
    {
      "inputs": [],
      "name": "showNumber",
      "outputs": [
        {
          "internalType": "uint256",
          "name": "",
          "type": "uint256"
        }
      ],
      "stateMutability": "view",
      "type": "function"
    },
    {
      "stateMutability": "payable",
      "type": "receive"
    }
  ],
  "bytecode": "0x60e060405234801561001057600080fd5b5060405161093338038061093383398181016040528101906100329190610184565b8260c081815250508173ffffffffffffffffffffffffffffffffffffffff1660808173ffffffffffffffffffffffffffffffffffffffff16815250508073ffffffffffffffffffffffffffffffffffffffff1660a08173ffffffffffffffffffffffffffffffffffffffff168152505033600160006101000a81548173ffffffffffffffffffffffffffffffffffffffff021916908373ffffffffffffffffffffffffffffffffffffffff1602179055505050506101d7565b600080fd5b6000819050919050565b610103816100f0565b811461010e57600080fd5b50565b600081519050610120816100fa565b92915050565b600073ffffffffffffffffffffffffffffffffffffffff82169050919050565b600061015182610126565b9050919050565b61016181610146565b811461016c57600080fd5b50565b60008151905061017e81610158565b92915050565b60008060006060848603121561019d5761019c6100eb565b5b60006101ab86828701610111565b93505060206101bc8682870161016f565b92505060406101cd8682870161016f565b9150509250925092565b60805160a05160c05161072661020d600039600061011c01526000818161019501526103790152600061014001526107266000f3fe60806040526004361061004e5760003560e01c806373b4dba11461005a57806376dad22314610085578063a2a5aa3a146100b0578063c0caa772146100c7578063cb00953f146100f057610055565b3661005557005b600080fd5b34801561006657600080fd5b5061006f610107565b60405161007c91906104bc565b60405180910390f35b34801561009157600080fd5b5061009a61011a565b6040516100a791906104f0565b60405180910390f35b3480156100bc57600080fd5b506100c561013e565b005b3480156100d357600080fd5b506100ee60048036038101906100e9919061056e565b6102a4565b005b3480156100fc57600080fd5b50610105610377565b005b600160149054906101000a900460ff1681565b7f000000000000000000000000000000000000000000000000000000000000000081565b7f000000000000000000000000000000000000000000000000000000000000000073ffffffffffffffffffffffffffffffffffffffff163373ffffffffffffffffffffffffffffffffffffffff1614806101e357507f000000000000000000000000000000000000000000000000000000000000000073ffffffffffffffffffffffffffffffffffffffff163373ffffffffffffffffffffffffffffffffffffffff16145b610222576040517f08c379a0000000000000000000000000000000000000000000000000000000008152600401610219906105f8565b60405180910390fd5b60008054906101000a900473ffffffffffffffffffffffffffffffffffffffff1673ffffffffffffffffffffffffffffffffffffffff166399203d236040518163ffffffff1660e01b8152600401600060405180830381600087803b15801561028a57600080fd5b505af115801561029e573d6000803e3d6000fd5b50505050565b600160009054906101000a900473ffffffffffffffffffffffffffffffffffffffff1673ffffffffffffffffffffffffffffffffffffffff163373ffffffffffffffffffffffffffffffffffffffff1614610334576040517f08c379a000000000000000000000000000000000000000000000000000000000815260040161032b90610664565b60405180910390fd5b806000806101000a81548173ffffffffffffffffffffffffffffffffffffffff021916908373ffffffffffffffffffffffffffffffffffffffff16021790555050565b7f000000000000000000000000000000000000000000000000000000000000000073ffffffffffffffffffffffffffffffffffffffff163373ffffffffffffffffffffffffffffffffffffffff1614610405576040517f08c379a00000000000000000000000000000000000000000000000000000000081526004016103fc906106d0565b60405180910390fd5b60018060146101000a81548160ff02191690831515021790555060008054906101000a900473ffffffffffffffffffffffffffffffffffffffff1673ffffffffffffffffffffffffffffffffffffffff1663e146f7276040518163ffffffff1660e01b8152600401600060405180830381600087803b15801561048757600080fd5b505af115801561049b573d6000803e3d6000fd5b50505050565b60008115159050919050565b6104b6816104a1565b82525050565b60006020820190506104d160008301846104ad565b92915050565b6000819050919050565b6104ea816104d7565b82525050565b600060208201905061050560008301846104e1565b92915050565b600080fd5b600073ffffffffffffffffffffffffffffffffffffffff82169050919050565b600061053b82610510565b9050919050565b61054b81610530565b811461055657600080fd5b50565b60008135905061056881610542565b92915050565b6000602082840312156105845761058361050b565b5b600061059284828501610559565b91505092915050565b600082825260208201905092915050565b7f6f6e6c792062616e64206f722076656e75650000000000000000000000000000600082015250565b60006105e260128361059b565b91506105ed826105ac565b602082019050919050565b60006020820190508181036000830152610611816105d5565b9050919050565b7f6f6e6c792063726561746f722063616e2063616c6c0000000000000000000000600082015250565b600061064e60158361059b565b915061065982610618565b602082019050919050565b6000602082019050818103600083015261067d81610641565b9050919050565b7f6f6e6c792076656e756500000000000000000000000000000000000000000000600082015250565b60006106ba600a8361059b565b91506106c582610684565b602082019050919050565b600060208201905081810360008301526106e9816106ad565b905091905056fea2646970667358221220d2a2b2c45c1c3bea27e62cc6f6207626ad3a682cf25f7d77d007dcb82ed19f0f64736f6c63430008110033",
  "linkReferences": {},
  "deployedLinkReferences": {}
}