{
    "_format": "hh-sol-artifact-1",
    "contractName": "Cryptickets",
    "sourceName": "contracts/Cryptickets.sol",
    "abi": [
        {
            "inputs": [
                {
                    "internalType": "string",
                    "name": "_name",
                    "type": "string"
                },
                {
                    "internalType": "string",
                    "name": "_symbol",
                    "type": "string"
                },
                {
                    "internalType": "address",
                    "name": "_escrowAddress",
                    "type": "address"
                },
                {
                    "internalType": "address",
                    "name": "_bandAddress",
                    "type": "address"
                },
                {
                    "internalType": "address",
                    "name": "_venueAddress",
                    "type": "address"
                }
            ],
            "stateMutability": "nonpayable",
            "type": "constructor"
        },
        {
            "anonymous": false,
            "inputs": [
                {
                    "indexed": true,
                    "internalType": "address",
                    "name": "owner",
                    "type": "address"
                },
                {
                    "indexed": true,
                    "internalType": "address",
                    "name": "approved",
                    "type": "address"
                },
                {
                    "indexed": true,
                    "internalType": "uint256",
                    "name": "tokenId",
                    "type": "uint256"
                }
            ],
            "name": "Approval",
            "type": "event"
        },
        {
            "anonymous": false,
            "inputs": [
                {
                    "indexed": true,
                    "internalType": "address",
                    "name": "owner",
                    "type": "address"
                },
                {
                    "indexed": true,
                    "internalType": "address",
                    "name": "operator",
                    "type": "address"
                },
                {
                    "indexed": false,
                    "internalType": "bool",
                    "name": "approved",
                    "type": "bool"
                }
            ],
            "name": "ApprovalForAll",
            "type": "event"
        },
        {
            "anonymous": false,
            "inputs": [
                {
                    "indexed": false,
                    "internalType": "address",
                    "name": "to",
                    "type": "address"
                },
                {
                    "indexed": false,
                    "internalType": "uint256",
                    "name": "amountPurchased",
                    "type": "uint256"
                }
            ],
            "name": "TicketsPurchased",
            "type": "event"
        },
        {
            "anonymous": false,
            "inputs": [
                {
                    "indexed": true,
                    "internalType": "address",
                    "name": "from",
                    "type": "address"
                },
                {
                    "indexed": true,
                    "internalType": "address",
                    "name": "to",
                    "type": "address"
                },
                {
                    "indexed": true,
                    "internalType": "uint256",
                    "name": "tokenId",
                    "type": "uint256"
                }
            ],
            "name": "Transfer",
            "type": "event"
        },
        {
            "inputs": [
                {
                    "internalType": "uint256",
                    "name": "",
                    "type": "uint256"
                }
            ],
            "name": "allOwners",
            "outputs": [
                {
                    "internalType": "address",
                    "name": "",
                    "type": "address"
                }
            ],
            "stateMutability": "view",
            "type": "function"
        },
        {
            "inputs": [
                {
                    "internalType": "address",
                    "name": "to",
                    "type": "address"
                },
                {
                    "internalType": "uint256",
                    "name": "tokenId",
                    "type": "uint256"
                }
            ],
            "name": "approve",
            "outputs": [],
            "stateMutability": "nonpayable",
            "type": "function"
        },
        {
            "inputs": [
                {
                    "internalType": "address",
                    "name": "owner",
                    "type": "address"
                }
            ],
            "name": "balanceOf",
            "outputs": [
                {
                    "internalType": "uint256",
                    "name": "",
                    "type": "uint256"
                }
            ],
            "stateMutability": "view",
            "type": "function"
        },
        {
            "inputs": [],
            "name": "bandPercent",
            "outputs": [
                {
                    "internalType": "uint256",
                    "name": "",
                    "type": "uint256"
                }
            ],
            "stateMutability": "view",
            "type": "function"
        },
        {
            "inputs": [],
            "name": "baseUri",
            "outputs": [
                {
                    "internalType": "string",
                    "name": "",
                    "type": "string"
                }
            ],
            "stateMutability": "view",
            "type": "function"
        },
        {
            "inputs": [],
            "name": "endDate",
            "outputs": [
                {
                    "internalType": "uint256",
                    "name": "",
                    "type": "uint256"
                }
            ],
            "stateMutability": "view",
            "type": "function"
        },
        {
            "inputs": [
                {
                    "internalType": "uint256",
                    "name": "tokenId",
                    "type": "uint256"
                }
            ],
            "name": "getApproved",
            "outputs": [
                {
                    "internalType": "address",
                    "name": "",
                    "type": "address"
                }
            ],
            "stateMutability": "view",
            "type": "function"
        },
        {
            "inputs": [
                {
                    "internalType": "address",
                    "name": "owner",
                    "type": "address"
                },
                {
                    "internalType": "address",
                    "name": "operator",
                    "type": "address"
                }
            ],
            "name": "isApprovedForAll",
            "outputs": [
                {
                    "internalType": "bool",
                    "name": "",
                    "type": "bool"
                }
            ],
            "stateMutability": "view",
            "type": "function"
        },
        {
            "inputs": [],
            "name": "maxSupply",
            "outputs": [
                {
                    "internalType": "uint256",
                    "name": "",
                    "type": "uint256"
                }
            ],
            "stateMutability": "view",
            "type": "function"
        },
        {
            "inputs": [],
            "name": "name",
            "outputs": [
                {
                    "internalType": "string",
                    "name": "",
                    "type": "string"
                }
            ],
            "stateMutability": "view",
            "type": "function"
        },
        {
            "inputs": [
                {
                    "internalType": "uint256",
                    "name": "tokenId",
                    "type": "uint256"
                }
            ],
            "name": "ownerOf",
            "outputs": [
                {
                    "internalType": "address",
                    "name": "",
                    "type": "address"
                }
            ],
            "stateMutability": "view",
            "type": "function"
        },
        {
            "inputs": [],
            "name": "payBandAndVenue",
            "outputs": [],
            "stateMutability": "payable",
            "type": "function"
        },
        {
            "inputs": [
                {
                    "internalType": "uint256",
                    "name": "amount",
                    "type": "uint256"
                }
            ],
            "name": "purchaseTickets",
            "outputs": [],
            "stateMutability": "payable",
            "type": "function"
        },
        {
            "inputs": [],
            "name": "refundAllTickets",
            "outputs": [],
            "stateMutability": "payable",
            "type": "function"
        },
        {
            "inputs": [],
            "name": "returnAdmin",
            "outputs": [
                {
                    "internalType": "address",
                    "name": "",
                    "type": "address"
                }
            ],
            "stateMutability": "view",
            "type": "function"
        },
        {
            "inputs": [],
            "name": "returnAllOwners",
            "outputs": [
                {
                    "internalType": "address[]",
                    "name": "",
                    "type": "address[]"
                }
            ],
            "stateMutability": "view",
            "type": "function"
        },
        {
            "inputs": [
                {
                    "internalType": "address",
                    "name": "from",
                    "type": "address"
                },
                {
                    "internalType": "address",
                    "name": "to",
                    "type": "address"
                },
                {
                    "internalType": "uint256",
                    "name": "tokenId",
                    "type": "uint256"
                }
            ],
            "name": "safeTransferFrom",
            "outputs": [],
            "stateMutability": "nonpayable",
            "type": "function"
        },
        {
            "inputs": [
                {
                    "internalType": "address",
                    "name": "from",
                    "type": "address"
                },
                {
                    "internalType": "address",
                    "name": "to",
                    "type": "address"
                },
                {
                    "internalType": "uint256",
                    "name": "tokenId",
                    "type": "uint256"
                },
                {
                    "internalType": "bytes",
                    "name": "data",
                    "type": "bytes"
                }
            ],
            "name": "safeTransferFrom",
            "outputs": [],
            "stateMutability": "nonpayable",
            "type": "function"
        },
        {
            "inputs": [
                {
                    "internalType": "address",
                    "name": "operator",
                    "type": "address"
                },
                {
                    "internalType": "bool",
                    "name": "approved",
                    "type": "bool"
                }
            ],
            "name": "setApprovalForAll",
            "outputs": [],
            "stateMutability": "nonpayable",
            "type": "function"
        },
        {
            "inputs": [],
            "name": "setCancelledShow",
            "outputs": [],
            "stateMutability": "nonpayable",
            "type": "function"
        },
        {
            "inputs": [
                {
                    "internalType": "uint256",
                    "name": "newEndDate",
                    "type": "uint256"
                }
            ],
            "name": "setEndDate",
            "outputs": [],
            "stateMutability": "nonpayable",
            "type": "function"
        },
        {
            "inputs": [
                {
                    "internalType": "uint256",
                    "name": "_maxSupply",
                    "type": "uint256"
                }
            ],
            "name": "setMaxSupply",
            "outputs": [],
            "stateMutability": "nonpayable",
            "type": "function"
        },
        {
            "inputs": [
                {
                    "internalType": "uint256",
                    "name": "newPrice",
                    "type": "uint256"
                }
            ],
            "name": "setTicketPrice",
            "outputs": [],
            "stateMutability": "nonpayable",
            "type": "function"
        },
        {
            "inputs": [],
            "name": "showCancelled",
            "outputs": [
                {
                    "internalType": "bool",
                    "name": "",
                    "type": "bool"
                }
            ],
            "stateMutability": "view",
            "type": "function"
        },
        {
            "inputs": [],
            "name": "showCompleted",
            "outputs": [
                {
                    "internalType": "bool",
                    "name": "",
                    "type": "bool"
                }
            ],
            "stateMutability": "view",
            "type": "function"
        },
        {
            "inputs": [
                {
                    "internalType": "bytes4",
                    "name": "interfaceId",
                    "type": "bytes4"
                }
            ],
            "name": "supportsInterface",
            "outputs": [
                {
                    "internalType": "bool",
                    "name": "",
                    "type": "bool"
                }
            ],
            "stateMutability": "view",
            "type": "function"
        },
        {
            "inputs": [],
            "name": "symbol",
            "outputs": [
                {
                    "internalType": "string",
                    "name": "",
                    "type": "string"
                }
            ],
            "stateMutability": "view",
            "type": "function"
        },
        {
            "inputs": [],
            "name": "ticketLimit",
            "outputs": [
                {
                    "internalType": "uint256",
                    "name": "",
                    "type": "uint256"
                }
            ],
            "stateMutability": "view",
            "type": "function"
        },
        {
            "inputs": [],
            "name": "ticketPrice",
            "outputs": [
                {
                    "internalType": "uint256",
                    "name": "",
                    "type": "uint256"
                }
            ],
            "stateMutability": "view",
            "type": "function"
        },
        {
            "inputs": [
                {
                    "internalType": "address",
                    "name": "",
                    "type": "address"
                }
            ],
            "name": "ticketsPurchased",
            "outputs": [
                {
                    "internalType": "uint256",
                    "name": "",
                    "type": "uint256"
                }
            ],
            "stateMutability": "view",
            "type": "function"
        },
        {
            "inputs": [
                {
                    "internalType": "uint256",
                    "name": "tokenId",
                    "type": "uint256"
                }
            ],
            "name": "tokenURI",
            "outputs": [
                {
                    "internalType": "string",
                    "name": "",
                    "type": "string"
                }
            ],
            "stateMutability": "view",
            "type": "function"
        },
        {
            "inputs": [
                {
                    "internalType": "address",
                    "name": "from",
                    "type": "address"
                },
                {
                    "internalType": "address",
                    "name": "to",
                    "type": "address"
                },
                {
                    "internalType": "uint256",
                    "name": "tokenId",
                    "type": "uint256"
                }
            ],
            "name": "transferFrom",
            "outputs": [],
            "stateMutability": "nonpayable",
            "type": "function"
        },
        {
            "stateMutability": "payable",
            "type": "receive"
        }
    ],
    "bytecode": "0x6101006040526040518060400160405280600a81526020017f53414d504c454241534500000000000000000000000000000000000000000000815250600890816200004b91906200040a565b506064600955600a80556008600c553480156200006757600080fd5b506040516200490d3803806200490d83398181016040528101906200008d9190620006ba565b84848160009081620000a091906200040a565b508060019081620000b291906200040a565b5050503373ffffffffffffffffffffffffffffffffffffffff1660808173ffffffffffffffffffffffffffffffffffffffff16815250508273ffffffffffffffffffffffffffffffffffffffff1660e08173ffffffffffffffffffffffffffffffffffffffff16815250508173ffffffffffffffffffffffffffffffffffffffff1660a08173ffffffffffffffffffffffffffffffffffffffff16815250508073ffffffffffffffffffffffffffffffffffffffff1660c08173ffffffffffffffffffffffffffffffffffffffff1681525050505050505062000780565b600081519050919050565b7f4e487b7100000000000000000000000000000000000000000000000000000000600052604160045260246000fd5b7f4e487b7100000000000000000000000000000000000000000000000000000000600052602260045260246000fd5b600060028204905060018216806200021257607f821691505b602082108103620002285762000227620001ca565b5b50919050565b60008190508160005260206000209050919050565b60006020601f8301049050919050565b600082821b905092915050565b600060088302620002927fffffffffffffffffffffffffffffffffffffffffffffffffffffffffffffffff8262000253565b6200029e868362000253565b95508019841693508086168417925050509392505050565b6000819050919050565b6000819050919050565b6000620002eb620002e5620002df84620002b6565b620002c0565b620002b6565b9050919050565b6000819050919050565b6200030783620002ca565b6200031f6200031682620002f2565b84845462000260565b825550505050565b600090565b6200033662000327565b62000343818484620002fc565b505050565b5b818110156200036b576200035f6000826200032c565b60018101905062000349565b5050565b601f821115620003ba5762000384816200022e565b6200038f8462000243565b810160208510156200039f578190505b620003b7620003ae8562000243565b83018262000348565b50505b505050565b600082821c905092915050565b6000620003df60001984600802620003bf565b1980831691505092915050565b6000620003fa8383620003cc565b9150826002028217905092915050565b620004158262000190565b67ffffffffffffffff8111156200043157620004306200019b565b5b6200043d8254620001f9565b6200044a8282856200036f565b600060209050601f8311600181146200048257600084156200046d578287015190505b620004798582620003ec565b865550620004e9565b601f19841662000492866200022e565b60005b82811015620004bc5784890151825560018201915060208501945060208101905062000495565b86831015620004dc5784890151620004d8601f891682620003cc565b8355505b6001600288020188555050505b505050505050565b6000604051905090565b600080fd5b600080fd5b600080fd5b600080fd5b6000601f19601f8301169050919050565b6200052b826200050f565b810181811067ffffffffffffffff821117156200054d576200054c6200019b565b5b80604052505050565b600062000562620004f1565b905062000570828262000520565b919050565b600067ffffffffffffffff8211156200059357620005926200019b565b5b6200059e826200050f565b9050602081019050919050565b60005b83811015620005cb578082015181840152602081019050620005ae565b60008484015250505050565b6000620005ee620005e88462000575565b62000556565b9050828152602081018484840111156200060d576200060c6200050a565b5b6200061a848285620005ab565b509392505050565b600082601f8301126200063a576200063962000505565b5b81516200064c848260208601620005d7565b91505092915050565b600073ffffffffffffffffffffffffffffffffffffffff82169050919050565b6000620006828262000655565b9050919050565b620006948162000675565b8114620006a057600080fd5b50565b600081519050620006b48162000689565b92915050565b600080600080600060a08688031215620006d957620006d8620004fb565b5b600086015167ffffffffffffffff811115620006fa57620006f962000500565b5b620007088882890162000622565b955050602086015167ffffffffffffffff8111156200072c576200072b62000500565b5b6200073a8882890162000622565b94505060406200074d88828901620006a3565b93505060606200076088828901620006a3565b92505060806200077388828901620006a3565b9150509295509295909350565b60805160a05160c05160e051614129620007e46000396000818161106c01526114a2015260006117fe01526000611797015260008181610a8601528181610be701528181610ca701528181610d6b01528181610eba01526118fe01526141296000f3fe6080604052600436106101e75760003560e01c806370a0823111610102578063b88d4fde11610095578063d5abeb0111610064578063d5abeb01146106d1578063e146f727146106fc578063e985e9c514610706578063ecaabf7f14610743576101ee565b8063b88d4fde14610615578063c24a0f8b1461063e578063c769a54114610669578063c87b56dd14610694576101ee565b806399203d23116100d157806399203d231461059b5780639abc8320146105a5578063a1277600146105d0578063a22cb465146105ec576101ee565b806370a08231146104f15780637389df8a1461052e57806373b4dba11461054557806395d89b4114610570576101ee565b80632cc403e01161017a578063607cec4911610149578063607cec49146104235780636352211e1461044e5780636ccda0a61461048b5780636f8b44b0146104c8576101ee565b80632cc403e01461037b5780633784f000146103a657806342842e0e146103cf5780635e321dfc146103f8576101ee565b80631209b1f6116101b65780631209b1f6146102c15780631516db09146102ec578063159816501461032957806323b872dd14610352576101ee565b806301ffc9a7146101f357806306fdde0314610230578063081812fc1461025b578063095ea7b314610298576101ee565b366101ee57005b600080fd5b3480156101ff57600080fd5b5061021a60048036038101906102159190612a7d565b61076e565b6040516102279190612ac5565b60405180910390f35b34801561023c57600080fd5b50610245610850565b6040516102529190612b70565b60405180910390f35b34801561026757600080fd5b50610282600480360381019061027d9190612bc8565b6108e2565b60405161028f9190612c36565b60405180910390f35b3480156102a457600080fd5b506102bf60048036038101906102ba9190612c7d565b610928565b005b3480156102cd57600080fd5b506102d6610a3f565b6040516102e39190612ccc565b60405180910390f35b3480156102f857600080fd5b50610313600480360381019061030e9190612bc8565b610a45565b6040516103209190612c36565b60405180910390f35b34801561033557600080fd5b50610350600480360381019061034b9190612bc8565b610a84565b005b34801561035e57600080fd5b5061037960048036038101906103749190612ce7565b610b1c565b005b34801561038757600080fd5b50610390610bdf565b60405161039d9190612ccc565b60405180910390f35b3480156103b257600080fd5b506103cd60048036038101906103c89190612bc8565b610be5565b005b3480156103db57600080fd5b506103f660048036038101906103f19190612ce7565b610c7d565b005b34801561040457600080fd5b5061040d610c9d565b60405161041a9190612ccc565b60405180910390f35b34801561042f57600080fd5b50610438610ca3565b6040516104459190612c36565b60405180910390f35b34801561045a57600080fd5b5061047560048036038101906104709190612bc8565b610ccb565b6040516104829190612c36565b60405180910390f35b34801561049757600080fd5b506104b260048036038101906104ad9190612d3a565b610d51565b6040516104bf9190612ccc565b60405180910390f35b3480156104d457600080fd5b506104ef60048036038101906104ea9190612bc8565b610d69565b005b3480156104fd57600080fd5b5061051860048036038101906105139190612d3a565b610e01565b6040516105259190612ccc565b60405180910390f35b34801561053a57600080fd5b50610543610eb8565b005b34801561055157600080fd5b5061055a610f63565b6040516105679190612ac5565b60405180910390f35b34801561057c57600080fd5b50610585610f76565b6040516105929190612b70565b60405180910390f35b6105a3611008565b005b3480156105b157600080fd5b506105ba6111ad565b6040516105c79190612b70565b60405180910390f35b6105ea60048036038101906105e59190612bc8565b61123b565b005b3480156105f857600080fd5b50610613600480360381019061060e9190612d93565b6115bf565b005b34801561062157600080fd5b5061063c60048036038101906106379190612f08565b6115d5565b005b34801561064a57600080fd5b50610653611637565b6040516106609190612ccc565b60405180910390f35b34801561067557600080fd5b5061067e61163d565b60405161068b9190612ac5565b60405180910390f35b3480156106a057600080fd5b506106bb60048036038101906106b69190612bc8565b611650565b6040516106c89190612b70565b60405180910390f35b3480156106dd57600080fd5b506106e6611762565b6040516106f39190612ccc565b60405180910390f35b610704611768565b005b34801561071257600080fd5b5061072d60048036038101906107289190612f8b565b611866565b60405161073a9190612ac5565b60405180910390f35b34801561074f57600080fd5b506107586118fa565b6040516107659190613089565b60405180910390f35b60007f80ac58cd000000000000000000000000000000000000000000000000000000007bffffffffffffffffffffffffffffffffffffffffffffffffffffffff1916827bffffffffffffffffffffffffffffffffffffffffffffffffffffffff1916148061083957507f5b5e139f000000000000000000000000000000000000000000000000000000007bffffffffffffffffffffffffffffffffffffffffffffffffffffffff1916827bffffffffffffffffffffffffffffffffffffffffffffffffffffffff1916145b80610849575061084882611aa3565b5b9050919050565b60606000805461085f906130da565b80601f016020809104026020016040519081016040528092919081815260200182805461088b906130da565b80156108d85780601f106108ad576101008083540402835291602001916108d8565b820191906000526020600020905b8154815290600101906020018083116108bb57829003601f168201915b5050505050905090565b60006108ed82611b0d565b6004600083815260200190815260200160002060009054906101000a900473ffffffffffffffffffffffffffffffffffffffff169050919050565b600061093382610ccb565b90508073ffffffffffffffffffffffffffffffffffffffff168373ffffffffffffffffffffffffffffffffffffffff16036109a3576040517f08c379a000000000000000000000000000000000000000000000000000000000815260040161099a9061317d565b60405180910390fd5b8073ffffffffffffffffffffffffffffffffffffffff166109c2611b58565b73ffffffffffffffffffffffffffffffffffffffff1614806109f157506109f0816109eb611b58565b611866565b5b610a30576040517f08c379a0000000000000000000000000000000000000000000000000000000008152600401610a279061320f565b60405180910390fd5b610a3a8383611b60565b505050565b600b5481565b600f8181548110610a5557600080fd5b906000526020600020016000915054906101000a900473ffffffffffffffffffffffffffffffffffffffff1681565b7f000000000000000000000000000000000000000000000000000000000000000073ffffffffffffffffffffffffffffffffffffffff163373ffffffffffffffffffffffffffffffffffffffff1614610b12576040517f08c379a0000000000000000000000000000000000000000000000000000000008152600401610b099061327b565b60405180910390fd5b80600b8190555050565b610b2d610b27611b58565b82611c19565b610b6c576040517f08c379a0000000000000000000000000000000000000000000000000000000008152600401610b639061330d565b60405180910390fd5b600f829080600181540180825580915050600190039060005260206000200160009091909190916101000a81548173ffffffffffffffffffffffffffffffffffffffff021916908373ffffffffffffffffffffffffffffffffffffffff160217905550610bda838383611cae565b505050565b600a5481565b7f000000000000000000000000000000000000000000000000000000000000000073ffffffffffffffffffffffffffffffffffffffff163373ffffffffffffffffffffffffffffffffffffffff1614610c73576040517f08c379a0000000000000000000000000000000000000000000000000000000008152600401610c6a9061327b565b60405180910390fd5b80600d8190555050565b610c98838383604051806020016040528060008152506115d5565b505050565b600c5481565b60007f0000000000000000000000000000000000000000000000000000000000000000905090565b600080610cd783611fa7565b9050600073ffffffffffffffffffffffffffffffffffffffff168173ffffffffffffffffffffffffffffffffffffffff1603610d48576040517f08c379a0000000000000000000000000000000000000000000000000000000008152600401610d3f90613379565b60405180910390fd5b80915050919050565b60106020528060005260406000206000915090505481565b7f000000000000000000000000000000000000000000000000000000000000000073ffffffffffffffffffffffffffffffffffffffff163373ffffffffffffffffffffffffffffffffffffffff1614610df7576040517f08c379a0000000000000000000000000000000000000000000000000000000008152600401610dee9061327b565b60405180910390fd5b8060098190555050565b60008073ffffffffffffffffffffffffffffffffffffffff168273ffffffffffffffffffffffffffffffffffffffff1603610e71576040517f08c379a0000000000000000000000000000000000000000000000000000000008152600401610e689061340b565b60405180910390fd5b600360008373ffffffffffffffffffffffffffffffffffffffff1673ffffffffffffffffffffffffffffffffffffffff168152602001908152602001600020549050919050565b7f000000000000000000000000000000000000000000000000000000000000000073ffffffffffffffffffffffffffffffffffffffff163373ffffffffffffffffffffffffffffffffffffffff1614610f46576040517f08c379a0000000000000000000000000000000000000000000000000000000008152600401610f3d90613477565b60405180910390fd5b6001600e60006101000a81548160ff021916908315150217905550565b600e60019054906101000a900460ff1681565b606060018054610f85906130da565b80601f0160208091040260200160405190810160405280929190818152602001828054610fb1906130da565b8015610ffe5780601f10610fd357610100808354040283529160200191610ffe565b820191906000526020600020905b815481529060010190602001808311610fe157829003601f168201915b5050505050905090565b60011515600e60009054906101000a900460ff1615151461105e576040517f08c379a0000000000000000000000000000000000000000000000000000000008152600401611055906134e3565b60405180910390fd5b60006110686118fa565b90507f000000000000000000000000000000000000000000000000000000000000000073ffffffffffffffffffffffffffffffffffffffff166369d895756040518163ffffffff1660e01b8152600401600060405180830381600087803b1580156110d257600080fd5b505af11580156110e6573d6000803e3d6000fd5b5050505060005b600f805490508110156111a957600061111f83838151811061111257611111613503565b5b6020026020010151610e01565b90506000600b54826111319190613561565b905083838151811061114657611145613503565b5b602002602001015173ffffffffffffffffffffffffffffffffffffffff166108fc829081150290604051600060405180830381858888f19350505050158015611193573d6000803e3d6000fd5b50505080806111a1906135a3565b9150506110ed565b5050565b600880546111ba906130da565b80601f01602080910402602001604051908101604052809291908181526020018280546111e6906130da565b80156112335780601f1061120857610100808354040283529160200191611233565b820191906000526020600020905b81548152906001019060200180831161121657829003601f168201915b505050505081565b80600b546112499190613561565b34101561128b576040517f08c379a000000000000000000000000000000000000000000000000000000000815260040161128290613637565b60405180910390fd5b600c5481601060003373ffffffffffffffffffffffffffffffffffffffff1673ffffffffffffffffffffffffffffffffffffffff168152602001908152602001600020546112d99190613657565b111561131a576040517f08c379a0000000000000000000000000000000000000000000000000000000008152600401611311906136d7565b60405180910390fd5b600954816113286007611fe4565b6113329190613657565b1115611373576040517f08c379a000000000000000000000000000000000000000000000000000000000815260040161136a90613743565b60405180910390fd5b60001515600e60009054906101000a900460ff16151514806113a8575060011515600e60019054906101000a900460ff161515145b6113e7576040517f08c379a00000000000000000000000000000000000000000000000000000000081526004016113de906137af565b60405180910390fd5b80601060003373ffffffffffffffffffffffffffffffffffffffff1673ffffffffffffffffffffffffffffffffffffffff16815260200190815260200160002060008282546114369190613657565b92505081905550600f339080600181540180825580915050600190039060005260206000200160009091909190916101000a81548173ffffffffffffffffffffffffffffffffffffffff021916908373ffffffffffffffffffffffffffffffffffffffff1602179055507f000000000000000000000000000000000000000000000000000000000000000073ffffffffffffffffffffffffffffffffffffffff166108fc349081150290604051600060405180830381858888f19350505050158015611506573d6000803e3d6000fd5b5060005b818110156115825761151c6007611ff2565b60006115286007611fe4565b90506115343382612008565b6000600861154183612225565b6040516020016115529291906138b4565b604051602081830303815290604052905061156d82826122f3565b5050808061157a906135a3565b91505061150a565b507fe11731cb4f1eb3ec3dd09bdc96809bb07365f4c881cda3192b397a4bc0b6da4033826040516115b49291906138fe565b60405180910390a150565b6115d16115ca611b58565b8383612360565b5050565b6115e66115e0611b58565b83611c19565b611625576040517f08c379a000000000000000000000000000000000000000000000000000000000815260040161161c9061330d565b60405180910390fd5b611631848484846124cc565b50505050565b600d5481565b600e60009054906101000a900460ff1681565b606061165b82611b0d565b600060066000848152602001908152602001600020805461167b906130da565b80601f01602080910402602001604051908101604052809291908181526020018280546116a7906130da565b80156116f45780601f106116c9576101008083540402835291602001916116f4565b820191906000526020600020905b8154815290600101906020018083116116d757829003601f168201915b505050505090506000611705612528565b9050600081510361171a57819250505061175d565b60008251111561174f578082604051602001611737929190613963565b6040516020818303038152906040529250505061175d565b6117588461253f565b925050505b919050565b60095481565b6001600e60016101000a81548160ff0219169083151502179055506000600a544761179391906139b6565b90507f000000000000000000000000000000000000000000000000000000000000000073ffffffffffffffffffffffffffffffffffffffff166108fc829081150290604051600060405180830381858888f193505050501580156117fb573d6000803e3d6000fd5b507f000000000000000000000000000000000000000000000000000000000000000073ffffffffffffffffffffffffffffffffffffffff166108fc479081150290604051600060405180830381858888f19350505050158015611862573d6000803e3d6000fd5b5050565b6000600560008473ffffffffffffffffffffffffffffffffffffffff1673ffffffffffffffffffffffffffffffffffffffff16815260200190815260200160002060008373ffffffffffffffffffffffffffffffffffffffff1673ffffffffffffffffffffffffffffffffffffffff16815260200190815260200160002060009054906101000a900460ff16905092915050565b60607f000000000000000000000000000000000000000000000000000000000000000073ffffffffffffffffffffffffffffffffffffffff163373ffffffffffffffffffffffffffffffffffffffff161461198a576040517f08c379a00000000000000000000000000000000000000000000000000000000081526004016119819061327b565b60405180910390fd5b6000600f8054905067ffffffffffffffff8111156119ab576119aa612ddd565b5b6040519080825280602002602001820160405280156119d95781602001602082028036833780820191505090505b5090506000805b600f80549050811015611a9a57600f8181548110611a0157611a00613503565b5b9060005260206000200160009054906101000a900473ffffffffffffffffffffffffffffffffffffffff16838381518110611a3f57611a3e613503565b5b602002602001019073ffffffffffffffffffffffffffffffffffffffff16908173ffffffffffffffffffffffffffffffffffffffff16815250508180611a84906135a3565b9250508080611a92906135a3565b9150506119e0565b50819250505090565b60007f01ffc9a7000000000000000000000000000000000000000000000000000000007bffffffffffffffffffffffffffffffffffffffffffffffffffffffff1916827bffffffffffffffffffffffffffffffffffffffffffffffffffffffff1916149050919050565b611b16816125a7565b611b55576040517f08c379a0000000000000000000000000000000000000000000000000000000008152600401611b4c90613379565b60405180910390fd5b50565b600033905090565b816004600083815260200190815260200160002060006101000a81548173ffffffffffffffffffffffffffffffffffffffff021916908373ffffffffffffffffffffffffffffffffffffffff160217905550808273ffffffffffffffffffffffffffffffffffffffff16611bd383610ccb565b73ffffffffffffffffffffffffffffffffffffffff167f8c5be1e5ebec7d5bd14f71427d1e84f3dd0314c0f7b2291e5b200ac8c7c3b92560405160405180910390a45050565b600080611c2583610ccb565b90508073ffffffffffffffffffffffffffffffffffffffff168473ffffffffffffffffffffffffffffffffffffffff161480611c675750611c668185611866565b5b80611ca557508373ffffffffffffffffffffffffffffffffffffffff16611c8d846108e2565b73ffffffffffffffffffffffffffffffffffffffff16145b91505092915050565b8273ffffffffffffffffffffffffffffffffffffffff16611cce82610ccb565b73ffffffffffffffffffffffffffffffffffffffff1614611d24576040517f08c379a0000000000000000000000000000000000000000000000000000000008152600401611d1b90613a59565b60405180910390fd5b600073ffffffffffffffffffffffffffffffffffffffff168273ffffffffffffffffffffffffffffffffffffffff1603611d93576040517f08c379a0000000000000000000000000000000000000000000000000000000008152600401611d8a90613aeb565b60405180910390fd5b611da083838360016125e8565b8273ffffffffffffffffffffffffffffffffffffffff16611dc082610ccb565b73ffffffffffffffffffffffffffffffffffffffff1614611e16576040517f08c379a0000000000000000000000000000000000000000000000000000000008152600401611e0d90613a59565b60405180910390fd5b6004600082815260200190815260200160002060006101000a81549073ffffffffffffffffffffffffffffffffffffffff02191690556001600360008573ffffffffffffffffffffffffffffffffffffffff1673ffffffffffffffffffffffffffffffffffffffff168152602001908152602001600020600082825403925050819055506001600360008473ffffffffffffffffffffffffffffffffffffffff1673ffffffffffffffffffffffffffffffffffffffff16815260200190815260200160002060008282540192505081905550816002600083815260200190815260200160002060006101000a81548173ffffffffffffffffffffffffffffffffffffffff021916908373ffffffffffffffffffffffffffffffffffffffff160217905550808273ffffffffffffffffffffffffffffffffffffffff168473ffffffffffffffffffffffffffffffffffffffff167fddf252ad1be2c89b69c2b068fc378daa952ba7f163c4a11628f55a4df523b3ef60405160405180910390a4611fa2838383600161270e565b505050565b60006002600083815260200190815260200160002060009054906101000a900473ffffffffffffffffffffffffffffffffffffffff169050919050565b600081600001549050919050565b6001816000016000828254019250508190555050565b600073ffffffffffffffffffffffffffffffffffffffff168273ffffffffffffffffffffffffffffffffffffffff1603612077576040517f08c379a000000000000000000000000000000000000000000000000000000000815260040161206e90613b57565b60405180910390fd5b612080816125a7565b156120c0576040517f08c379a00000000000000000000000000000000000000000000000000000000081526004016120b790613bc3565b60405180910390fd5b6120ce6000838360016125e8565b6120d7816125a7565b15612117576040517f08c379a000000000000000000000000000000000000000000000000000000000815260040161210e90613bc3565b60405180910390fd5b6001600360008473ffffffffffffffffffffffffffffffffffffffff1673ffffffffffffffffffffffffffffffffffffffff16815260200190815260200160002060008282540192505081905550816002600083815260200190815260200160002060006101000a81548173ffffffffffffffffffffffffffffffffffffffff021916908373ffffffffffffffffffffffffffffffffffffffff160217905550808273ffffffffffffffffffffffffffffffffffffffff16600073ffffffffffffffffffffffffffffffffffffffff167fddf252ad1be2c89b69c2b068fc378daa952ba7f163c4a11628f55a4df523b3ef60405160405180910390a461222160008383600161270e565b5050565b60606000600161223484612714565b01905060008167ffffffffffffffff81111561225357612252612ddd565b5b6040519080825280601f01601f1916602001820160405280156122855781602001600182028036833780820191505090505b509050600082602001820190505b6001156122e8578080600190039150507f3031323334353637383961626364656600000000000000000000000000000000600a86061a8153600a85816122dc576122db613987565b5b04945060008503612293575b819350505050919050565b6122fc826125a7565b61233b576040517f08c379a000000000000000000000000000000000000000000000000000000000815260040161233290613c55565b60405180910390fd5b8060066000848152602001908152602001600020908161235b9190613e0c565b505050565b8173ffffffffffffffffffffffffffffffffffffffff168373ffffffffffffffffffffffffffffffffffffffff16036123ce576040517f08c379a00000000000000000000000000000000000000000000000000000000081526004016123c590613f2a565b60405180910390fd5b80600560008573ffffffffffffffffffffffffffffffffffffffff1673ffffffffffffffffffffffffffffffffffffffff16815260200190815260200160002060008473ffffffffffffffffffffffffffffffffffffffff1673ffffffffffffffffffffffffffffffffffffffff16815260200190815260200160002060006101000a81548160ff0219169083151502179055508173ffffffffffffffffffffffffffffffffffffffff168373ffffffffffffffffffffffffffffffffffffffff167f17307eab39ab6107e8899845ad3d59bd9653f200f220920489ca2b5937696c31836040516124bf9190612ac5565b60405180910390a3505050565b6124d7848484611cae565b6124e384848484612867565b612522576040517f08c379a000000000000000000000000000000000000000000000000000000000815260040161251990613fbc565b60405180910390fd5b50505050565b606060405180602001604052806000815250905090565b606061254a82611b0d565b6000612554612528565b90506000815111612574576040518060200160405280600081525061259f565b8061257e84612225565b60405160200161258f929190613963565b6040516020818303038152906040525b915050919050565b60008073ffffffffffffffffffffffffffffffffffffffff166125c983611fa7565b73ffffffffffffffffffffffffffffffffffffffff1614159050919050565b600181111561270857600073ffffffffffffffffffffffffffffffffffffffff168473ffffffffffffffffffffffffffffffffffffffff161461267c5780600360008673ffffffffffffffffffffffffffffffffffffffff1673ffffffffffffffffffffffffffffffffffffffff16815260200190815260200160002060008282546126749190613fdc565b925050819055505b600073ffffffffffffffffffffffffffffffffffffffff168373ffffffffffffffffffffffffffffffffffffffff16146127075780600360008573ffffffffffffffffffffffffffffffffffffffff1673ffffffffffffffffffffffffffffffffffffffff16815260200190815260200160002060008282546126ff9190613657565b925050819055505b5b50505050565b50505050565b600080600090507a184f03e93ff9f4daa797ed6e38ed64bf6a1f0100000000000000008310612772577a184f03e93ff9f4daa797ed6e38ed64bf6a1f010000000000000000838161276857612767613987565b5b0492506040810190505b6d04ee2d6d415b85acef810000000083106127af576d04ee2d6d415b85acef810000000083816127a5576127a4613987565b5b0492506020810190505b662386f26fc1000083106127de57662386f26fc1000083816127d4576127d3613987565b5b0492506010810190505b6305f5e1008310612807576305f5e10083816127fd576127fc613987565b5b0492506008810190505b612710831061282c57612710838161282257612821613987565b5b0492506004810190505b6064831061284f576064838161284557612844613987565b5b0492506002810190505b600a831061285e576001810190505b80915050919050565b60006128888473ffffffffffffffffffffffffffffffffffffffff166129ee565b156129e1578373ffffffffffffffffffffffffffffffffffffffff1663150b7a026128b1611b58565b8786866040518563ffffffff1660e01b81526004016128d39493929190614065565b6020604051808303816000875af192505050801561290f57506040513d601f19601f8201168201806040525081019061290c91906140c6565b60015b612991573d806000811461293f576040519150601f19603f3d011682016040523d82523d6000602084013e612944565b606091505b506000815103612989576040517f08c379a000000000000000000000000000000000000000000000000000000000815260040161298090613fbc565b60405180910390fd5b805181602001fd5b63150b7a0260e01b7bffffffffffffffffffffffffffffffffffffffffffffffffffffffff1916817bffffffffffffffffffffffffffffffffffffffffffffffffffffffff1916149150506129e6565b600190505b949350505050565b6000808273ffffffffffffffffffffffffffffffffffffffff163b119050919050565b6000604051905090565b600080fd5b600080fd5b60007fffffffff0000000000000000000000000000000000000000000000000000000082169050919050565b612a5a81612a25565b8114612a6557600080fd5b50565b600081359050612a7781612a51565b92915050565b600060208284031215612a9357612a92612a1b565b5b6000612aa184828501612a68565b91505092915050565b60008115159050919050565b612abf81612aaa565b82525050565b6000602082019050612ada6000830184612ab6565b92915050565b600081519050919050565b600082825260208201905092915050565b60005b83811015612b1a578082015181840152602081019050612aff565b60008484015250505050565b6000601f19601f8301169050919050565b6000612b4282612ae0565b612b4c8185612aeb565b9350612b5c818560208601612afc565b612b6581612b26565b840191505092915050565b60006020820190508181036000830152612b8a8184612b37565b905092915050565b6000819050919050565b612ba581612b92565b8114612bb057600080fd5b50565b600081359050612bc281612b9c565b92915050565b600060208284031215612bde57612bdd612a1b565b5b6000612bec84828501612bb3565b91505092915050565b600073ffffffffffffffffffffffffffffffffffffffff82169050919050565b6000612c2082612bf5565b9050919050565b612c3081612c15565b82525050565b6000602082019050612c4b6000830184612c27565b92915050565b612c5a81612c15565b8114612c6557600080fd5b50565b600081359050612c7781612c51565b92915050565b60008060408385031215612c9457612c93612a1b565b5b6000612ca285828601612c68565b9250506020612cb385828601612bb3565b9150509250929050565b612cc681612b92565b82525050565b6000602082019050612ce16000830184612cbd565b92915050565b600080600060608486031215612d0057612cff612a1b565b5b6000612d0e86828701612c68565b9350506020612d1f86828701612c68565b9250506040612d3086828701612bb3565b9150509250925092565b600060208284031215612d5057612d4f612a1b565b5b6000612d5e84828501612c68565b91505092915050565b612d7081612aaa565b8114612d7b57600080fd5b50565b600081359050612d8d81612d67565b92915050565b60008060408385031215612daa57612da9612a1b565b5b6000612db885828601612c68565b9250506020612dc985828601612d7e565b9150509250929050565b600080fd5b600080fd5b7f4e487b7100000000000000000000000000000000000000000000000000000000600052604160045260246000fd5b612e1582612b26565b810181811067ffffffffffffffff82111715612e3457612e33612ddd565b5b80604052505050565b6000612e47612a11565b9050612e538282612e0c565b919050565b600067ffffffffffffffff821115612e7357612e72612ddd565b5b612e7c82612b26565b9050602081019050919050565b82818337600083830152505050565b6000612eab612ea684612e58565b612e3d565b905082815260208101848484011115612ec757612ec6612dd8565b5b612ed2848285612e89565b509392505050565b600082601f830112612eef57612eee612dd3565b5b8135612eff848260208601612e98565b91505092915050565b60008060008060808587031215612f2257612f21612a1b565b5b6000612f3087828801612c68565b9450506020612f4187828801612c68565b9350506040612f5287828801612bb3565b925050606085013567ffffffffffffffff811115612f7357612f72612a20565b5b612f7f87828801612eda565b91505092959194509250565b60008060408385031215612fa257612fa1612a1b565b5b6000612fb085828601612c68565b9250506020612fc185828601612c68565b9150509250929050565b600081519050919050565b600082825260208201905092915050565b6000819050602082019050919050565b61300081612c15565b82525050565b60006130128383612ff7565b60208301905092915050565b6000602082019050919050565b600061303682612fcb565b6130408185612fd6565b935061304b83612fe7565b8060005b8381101561307c5781516130638882613006565b975061306e8361301e565b92505060018101905061304f565b5085935050505092915050565b600060208201905081810360008301526130a3818461302b565b905092915050565b7f4e487b7100000000000000000000000000000000000000000000000000000000600052602260045260246000fd5b600060028204905060018216806130f257607f821691505b602082108103613105576131046130ab565b5b50919050565b7f4552433732313a20617070726f76616c20746f2063757272656e74206f776e6560008201527f7200000000000000000000000000000000000000000000000000000000000000602082015250565b6000613167602183612aeb565b91506131728261310b565b604082019050919050565b600060208201905081810360008301526131968161315a565b9050919050565b7f4552433732313a20617070726f76652063616c6c6572206973206e6f7420746f60008201527f6b656e206f776e6572206f7220617070726f76656420666f7220616c6c000000602082015250565b60006131f9603d83612aeb565b91506132048261319d565b604082019050919050565b60006020820190508181036000830152613228816131ec565b9050919050565b7f6f6e6c792061646d696e00000000000000000000000000000000000000000000600082015250565b6000613265600a83612aeb565b91506132708261322f565b602082019050919050565b6000602082019050818103600083015261329481613258565b9050919050565b7f4552433732313a2063616c6c6572206973206e6f7420746f6b656e206f776e6560008201527f72206f7220617070726f76656400000000000000000000000000000000000000602082015250565b60006132f7602d83612aeb565b91506133028261329b565b604082019050919050565b60006020820190508181036000830152613326816132ea565b9050919050565b7f4552433732313a20696e76616c696420746f6b656e2049440000000000000000600082015250565b6000613363601883612aeb565b915061336e8261332d565b602082019050919050565b6000602082019050818103600083015261339281613356565b9050919050565b7f4552433732313a2061646472657373207a65726f206973206e6f74206120766160008201527f6c6964206f776e65720000000000000000000000000000000000000000000000602082015250565b60006133f5602983612aeb565b915061340082613399565b604082019050919050565b60006020820190508181036000830152613424816133e8565b9050919050565b7f6f6e6c7941646d696e0000000000000000000000000000000000000000000000600082015250565b6000613461600983612aeb565b915061346c8261342b565b602082019050919050565b6000602082019050818103600083015261349081613454565b9050919050565b7f73686f77206e6f742063616e63656c6c65640000000000000000000000000000600082015250565b60006134cd601283612aeb565b91506134d882613497565b602082019050919050565b600060208201905081810360008301526134fc816134c0565b9050919050565b7f4e487b7100000000000000000000000000000000000000000000000000000000600052603260045260246000fd5b7f4e487b7100000000000000000000000000000000000000000000000000000000600052601160045260246000fd5b600061356c82612b92565b915061357783612b92565b925082820261358581612b92565b9150828204841483151761359c5761359b613532565b5b5092915050565b60006135ae82612b92565b91507fffffffffffffffffffffffffffffffffffffffffffffffffffffffffffffffff82036135e0576135df613532565b5b600182019050919050565b7f70617920666f72207469636b6574730000000000000000000000000000000000600082015250565b6000613621600f83612aeb565b915061362c826135eb565b602082019050919050565b6000602082019050818103600083015261365081613614565b9050919050565b600061366282612b92565b915061366d83612b92565b925082820190508082111561368557613684613532565b5b92915050565b7f6d6178207469636b657473207075726368617365640000000000000000000000600082015250565b60006136c1601583612aeb565b91506136cc8261368b565b602082019050919050565b600060208201905081810360008301526136f0816136b4565b9050919050565b7f736f6c64206f7574000000000000000000000000000000000000000000000000600082015250565b600061372d600883612aeb565b9150613738826136f7565b602082019050919050565b6000602082019050818103600083015261375c81613720565b9050919050565b7f73686f77206973206e6f74206f70656e00000000000000000000000000000000600082015250565b6000613799601083612aeb565b91506137a482613763565b602082019050919050565b600060208201905081810360008301526137c88161378c565b9050919050565b60008190508160005260206000209050919050565b600081546137f1816130da565b6137fb8186612aeb565b94506001821660008114613816576001811461382c5761385f565b60ff19831686528115156020028601935061385f565b613835856137cf565b60005b8381101561385757815481890152600182019150602081019050613838565b808801955050505b50505092915050565b7f2e6a736f6e000000000000000000000000000000000000000000000000000000600082015250565b600061389e600583612aeb565b91506138a982613868565b602082019050919050565b600060608201905081810360008301526138ce81856137e4565b905081810360208301526138e28184612b37565b905081810360408301526138f581613891565b90509392505050565b60006040820190506139136000830185612c27565b6139206020830184612cbd565b9392505050565b600081905092915050565b600061393d82612ae0565b6139478185613927565b9350613957818560208601612afc565b80840191505092915050565b600061396f8285613932565b915061397b8284613932565b91508190509392505050565b7f4e487b7100000000000000000000000000000000000000000000000000000000600052601260045260246000fd5b60006139c182612b92565b91506139cc83612b92565b9250826139dc576139db613987565b5b828204905092915050565b7f4552433732313a207472616e736665722066726f6d20696e636f72726563742060008201527f6f776e6572000000000000000000000000000000000000000000000000000000602082015250565b6000613a43602583612aeb565b9150613a4e826139e7565b604082019050919050565b60006020820190508181036000830152613a7281613a36565b9050919050565b7f4552433732313a207472616e7366657220746f20746865207a65726f2061646460008201527f7265737300000000000000000000000000000000000000000000000000000000602082015250565b6000613ad5602483612aeb565b9150613ae082613a79565b604082019050919050565b60006020820190508181036000830152613b0481613ac8565b9050919050565b7f4552433732313a206d696e7420746f20746865207a65726f2061646472657373600082015250565b6000613b41602083612aeb565b9150613b4c82613b0b565b602082019050919050565b60006020820190508181036000830152613b7081613b34565b9050919050565b7f4552433732313a20746f6b656e20616c7265616479206d696e74656400000000600082015250565b6000613bad601c83612aeb565b9150613bb882613b77565b602082019050919050565b60006020820190508181036000830152613bdc81613ba0565b9050919050565b7f45524337323155524953746f726167653a2055524920736574206f66206e6f6e60008201527f6578697374656e7420746f6b656e000000000000000000000000000000000000602082015250565b6000613c3f602e83612aeb565b9150613c4a82613be3565b604082019050919050565b60006020820190508181036000830152613c6e81613c32565b9050919050565b60006020601f8301049050919050565b600082821b905092915050565b600060088302613cc27fffffffffffffffffffffffffffffffffffffffffffffffffffffffffffffffff82613c85565b613ccc8683613c85565b95508019841693508086168417925050509392505050565b6000819050919050565b6000613d09613d04613cff84612b92565b613ce4565b612b92565b9050919050565b6000819050919050565b613d2383613cee565b613d37613d2f82613d10565b848454613c92565b825550505050565b600090565b613d4c613d3f565b613d57818484613d1a565b505050565b5b81811015613d7b57613d70600082613d44565b600181019050613d5d565b5050565b601f821115613dc057613d91816137cf565b613d9a84613c75565b81016020851015613da9578190505b613dbd613db585613c75565b830182613d5c565b50505b505050565b600082821c905092915050565b6000613de360001984600802613dc5565b1980831691505092915050565b6000613dfc8383613dd2565b9150826002028217905092915050565b613e1582612ae0565b67ffffffffffffffff811115613e2e57613e2d612ddd565b5b613e3882546130da565b613e43828285613d7f565b600060209050601f831160018114613e765760008415613e64578287015190505b613e6e8582613df0565b865550613ed6565b601f198416613e84866137cf565b60005b82811015613eac57848901518255600182019150602085019450602081019050613e87565b86831015613ec95784890151613ec5601f891682613dd2565b8355505b6001600288020188555050505b505050505050565b7f4552433732313a20617070726f766520746f2063616c6c657200000000000000600082015250565b6000613f14601983612aeb565b9150613f1f82613ede565b602082019050919050565b60006020820190508181036000830152613f4381613f07565b9050919050565b7f4552433732313a207472616e7366657220746f206e6f6e20455243373231526560008201527f63656976657220696d706c656d656e7465720000000000000000000000000000602082015250565b6000613fa6603283612aeb565b9150613fb182613f4a565b604082019050919050565b60006020820190508181036000830152613fd581613f99565b9050919050565b6000613fe782612b92565b9150613ff283612b92565b925082820390508181111561400a57614009613532565b5b92915050565b600081519050919050565b600082825260208201905092915050565b600061403782614010565b614041818561401b565b9350614051818560208601612afc565b61405a81612b26565b840191505092915050565b600060808201905061407a6000830187612c27565b6140876020830186612c27565b6140946040830185612cbd565b81810360608301526140a6818461402c565b905095945050505050565b6000815190506140c081612a51565b92915050565b6000602082840312156140dc576140db612a1b565b5b60006140ea848285016140b1565b9150509291505056fea2646970667358221220808b30c72d83e191d721bad10a75f691f2bb275b4b9dc49d840266d12147ce4b64736f6c63430008110033",
    "linkReferences": {},
    "deployedLinkReferences": {}
}