{
  "_format": "hh-sol-artifact-1",
  "contractName": "Cryptickets",
  "sourceName": "contracts/Cryptickets.sol",
  "abi": [
    {
      "inputs": [
        {
          "internalType": "string",
          "name": "_name",
          "type": "string"
        },
        {
          "internalType": "string",
          "name": "_symbol",
          "type": "string"
        },
        {
          "internalType": "address",
          "name": "_escrowAddress",
          "type": "address"
        },
        {
          "internalType": "address",
          "name": "_bandAddress",
          "type": "address"
        },
        {
          "internalType": "address",
          "name": "_venueAddress",
          "type": "address"
        },
        {
          "internalType": "uint256",
          "name": "_endDate",
          "type": "uint256"
        },
        {
          "internalType": "uint256",
          "name": "_price",
          "type": "uint256"
        }
      ],
      "stateMutability": "nonpayable",
      "type": "constructor"
    },
    {
      "anonymous": false,
      "inputs": [
        {
          "indexed": true,
          "internalType": "address",
          "name": "owner",
          "type": "address"
        },
        {
          "indexed": true,
          "internalType": "address",
          "name": "approved",
          "type": "address"
        },
        {
          "indexed": true,
          "internalType": "uint256",
          "name": "tokenId",
          "type": "uint256"
        }
      ],
      "name": "Approval",
      "type": "event"
    },
    {
      "anonymous": false,
      "inputs": [
        {
          "indexed": true,
          "internalType": "address",
          "name": "owner",
          "type": "address"
        },
        {
          "indexed": true,
          "internalType": "address",
          "name": "operator",
          "type": "address"
        },
        {
          "indexed": false,
          "internalType": "bool",
          "name": "approved",
          "type": "bool"
        }
      ],
      "name": "ApprovalForAll",
      "type": "event"
    },
    {
      "anonymous": false,
      "inputs": [
        {
          "indexed": false,
          "internalType": "address",
          "name": "to",
          "type": "address"
        },
        {
          "indexed": false,
          "internalType": "uint256",
          "name": "amountPurchased",
          "type": "uint256"
        }
      ],
      "name": "TicketsPurchased",
      "type": "event"
    },
    {
      "anonymous": false,
      "inputs": [
        {
          "indexed": true,
          "internalType": "address",
          "name": "from",
          "type": "address"
        },
        {
          "indexed": true,
          "internalType": "address",
          "name": "to",
          "type": "address"
        },
        {
          "indexed": true,
          "internalType": "uint256",
          "name": "tokenId",
          "type": "uint256"
        }
      ],
      "name": "Transfer",
      "type": "event"
    },
    {
      "inputs": [],
      "name": "admin",
      "outputs": [
        {
          "internalType": "address",
          "name": "",
          "type": "address"
        }
      ],
      "stateMutability": "view",
      "type": "function"
    },
    {
      "inputs": [
        {
          "internalType": "uint256",
          "name": "",
          "type": "uint256"
        }
      ],
      "name": "allOwners",
      "outputs": [
        {
          "internalType": "address",
          "name": "",
          "type": "address"
        }
      ],
      "stateMutability": "view",
      "type": "function"
    },
    {
      "inputs": [
        {
          "internalType": "address",
          "name": "to",
          "type": "address"
        },
        {
          "internalType": "uint256",
          "name": "tokenId",
          "type": "uint256"
        }
      ],
      "name": "approve",
      "outputs": [],
      "stateMutability": "nonpayable",
      "type": "function"
    },
    {
      "inputs": [
        {
          "internalType": "address",
          "name": "owner",
          "type": "address"
        }
      ],
      "name": "balanceOf",
      "outputs": [
        {
          "internalType": "uint256",
          "name": "",
          "type": "uint256"
        }
      ],
      "stateMutability": "view",
      "type": "function"
    },
    {
      "inputs": [],
      "name": "bandPercent",
      "outputs": [
        {
          "internalType": "uint256",
          "name": "",
          "type": "uint256"
        }
      ],
      "stateMutability": "view",
      "type": "function"
    },
    {
      "inputs": [],
      "name": "baseUri",
      "outputs": [
        {
          "internalType": "string",
          "name": "",
          "type": "string"
        }
      ],
      "stateMutability": "view",
      "type": "function"
    },
    {
      "inputs": [
        {
          "internalType": "address",
          "name": "_controller",
          "type": "address"
        }
      ],
      "name": "changeAdmin",
      "outputs": [],
      "stateMutability": "nonpayable",
      "type": "function"
    },
    {
      "inputs": [
        {
          "internalType": "uint256",
          "name": "_newShowDate",
          "type": "uint256"
        }
      ],
      "name": "changeShowDate",
      "outputs": [],
      "stateMutability": "nonpayable",
      "type": "function"
    },
    {
      "inputs": [],
      "name": "endDate",
      "outputs": [
        {
          "internalType": "uint256",
          "name": "",
          "type": "uint256"
        }
      ],
      "stateMutability": "view",
      "type": "function"
    },
    {
      "inputs": [
        {
          "internalType": "uint256",
          "name": "tokenId",
          "type": "uint256"
        }
      ],
      "name": "getApproved",
      "outputs": [
        {
          "internalType": "address",
          "name": "",
          "type": "address"
        }
      ],
      "stateMutability": "view",
      "type": "function"
    },
    {
      "inputs": [
        {
          "internalType": "address",
          "name": "owner",
          "type": "address"
        },
        {
          "internalType": "address",
          "name": "operator",
          "type": "address"
        }
      ],
      "name": "isApprovedForAll",
      "outputs": [
        {
          "internalType": "bool",
          "name": "",
          "type": "bool"
        }
      ],
      "stateMutability": "view",
      "type": "function"
    },
    {
      "inputs": [],
      "name": "maxSupply",
      "outputs": [
        {
          "internalType": "uint256",
          "name": "",
          "type": "uint256"
        }
      ],
      "stateMutability": "view",
      "type": "function"
    },
    {
      "inputs": [],
      "name": "name",
      "outputs": [
        {
          "internalType": "string",
          "name": "",
          "type": "string"
        }
      ],
      "stateMutability": "view",
      "type": "function"
    },
    {
      "inputs": [
        {
          "internalType": "uint256",
          "name": "tokenId",
          "type": "uint256"
        }
      ],
      "name": "ownerOf",
      "outputs": [
        {
          "internalType": "address",
          "name": "",
          "type": "address"
        }
      ],
      "stateMutability": "view",
      "type": "function"
    },
    {
      "inputs": [],
      "name": "payBandAndVenue",
      "outputs": [],
      "stateMutability": "payable",
      "type": "function"
    },
    {
      "inputs": [
        {
          "internalType": "uint256",
          "name": "amount",
          "type": "uint256"
        }
      ],
      "name": "purchaseTickets",
      "outputs": [],
      "stateMutability": "payable",
      "type": "function"
    },
    {
      "inputs": [],
      "name": "refundAllTickets",
      "outputs": [],
      "stateMutability": "payable",
      "type": "function"
    },
    {
      "inputs": [],
      "name": "requestRefund",
      "outputs": [],
      "stateMutability": "nonpayable",
      "type": "function"
    },
    {
      "inputs": [],
      "name": "rescheduled",
      "outputs": [
        {
          "internalType": "bool",
          "name": "",
          "type": "bool"
        }
      ],
      "stateMutability": "view",
      "type": "function"
    },
    {
      "inputs": [],
      "name": "returnAllOwners",
      "outputs": [
        {
          "internalType": "address[]",
          "name": "",
          "type": "address[]"
        }
      ],
      "stateMutability": "view",
      "type": "function"
    },
    {
      "inputs": [
        {
          "internalType": "address",
          "name": "from",
          "type": "address"
        },
        {
          "internalType": "address",
          "name": "to",
          "type": "address"
        },
        {
          "internalType": "uint256",
          "name": "tokenId",
          "type": "uint256"
        }
      ],
      "name": "safeTransferFrom",
      "outputs": [],
      "stateMutability": "nonpayable",
      "type": "function"
    },
    {
      "inputs": [
        {
          "internalType": "address",
          "name": "from",
          "type": "address"
        },
        {
          "internalType": "address",
          "name": "to",
          "type": "address"
        },
        {
          "internalType": "uint256",
          "name": "tokenId",
          "type": "uint256"
        },
        {
          "internalType": "bytes",
          "name": "data",
          "type": "bytes"
        }
      ],
      "name": "safeTransferFrom",
      "outputs": [],
      "stateMutability": "nonpayable",
      "type": "function"
    },
    {
      "inputs": [
        {
          "internalType": "address",
          "name": "operator",
          "type": "address"
        },
        {
          "internalType": "bool",
          "name": "approved",
          "type": "bool"
        }
      ],
      "name": "setApprovalForAll",
      "outputs": [],
      "stateMutability": "nonpayable",
      "type": "function"
    },
    {
      "inputs": [],
      "name": "setCancelledShow",
      "outputs": [],
      "stateMutability": "nonpayable",
      "type": "function"
    },
    {
      "inputs": [
        {
          "internalType": "uint256",
          "name": "_maxSupply",
          "type": "uint256"
        }
      ],
      "name": "setMaxSupply",
      "outputs": [],
      "stateMutability": "nonpayable",
      "type": "function"
    },
    {
      "inputs": [],
      "name": "showCancelled",
      "outputs": [
        {
          "internalType": "bool",
          "name": "",
          "type": "bool"
        }
      ],
      "stateMutability": "view",
      "type": "function"
    },
    {
      "inputs": [],
      "name": "showCompleted",
      "outputs": [
        {
          "internalType": "bool",
          "name": "",
          "type": "bool"
        }
      ],
      "stateMutability": "view",
      "type": "function"
    },
    {
      "inputs": [
        {
          "internalType": "bytes4",
          "name": "interfaceId",
          "type": "bytes4"
        }
      ],
      "name": "supportsInterface",
      "outputs": [
        {
          "internalType": "bool",
          "name": "",
          "type": "bool"
        }
      ],
      "stateMutability": "view",
      "type": "function"
    },
    {
      "inputs": [],
      "name": "symbol",
      "outputs": [
        {
          "internalType": "string",
          "name": "",
          "type": "string"
        }
      ],
      "stateMutability": "view",
      "type": "function"
    },
    {
      "inputs": [],
      "name": "ticketLimit",
      "outputs": [
        {
          "internalType": "uint256",
          "name": "",
          "type": "uint256"
        }
      ],
      "stateMutability": "view",
      "type": "function"
    },
    {
      "inputs": [],
      "name": "ticketPrice",
      "outputs": [
        {
          "internalType": "uint256",
          "name": "",
          "type": "uint256"
        }
      ],
      "stateMutability": "view",
      "type": "function"
    },
    {
      "inputs": [
        {
          "internalType": "address",
          "name": "",
          "type": "address"
        }
      ],
      "name": "ticketsPurchased",
      "outputs": [
        {
          "internalType": "uint256",
          "name": "",
          "type": "uint256"
        }
      ],
      "stateMutability": "view",
      "type": "function"
    },
    {
      "inputs": [
        {
          "internalType": "uint256",
          "name": "tokenId",
          "type": "uint256"
        }
      ],
      "name": "tokenURI",
      "outputs": [
        {
          "internalType": "string",
          "name": "",
          "type": "string"
        }
      ],
      "stateMutability": "view",
      "type": "function"
    },
    {
      "inputs": [
        {
          "internalType": "address",
          "name": "from",
          "type": "address"
        },
        {
          "internalType": "address",
          "name": "to",
          "type": "address"
        },
        {
          "internalType": "uint256",
          "name": "tokenId",
          "type": "uint256"
        }
      ],
      "name": "transferFrom",
      "outputs": [],
      "stateMutability": "nonpayable",
      "type": "function"
    },
    {
      "stateMutability": "payable",
      "type": "receive"
    }
  ],
  "bytecode": "0x60e06040526040518060400160405280600a81526020017f53414d504c454241534500000000000000000000000000000000000000000000815250600890816200004a919062000427565b506064600955600a600b556008600d553480156200006757600080fd5b5060405162004ec238038062004ec283398181016040528101906200008d919062000708565b86868160009081620000a0919062000427565b508060019081620000b2919062000427565b50505033600a60006101000a81548173ffffffffffffffffffffffffffffffffffffffff021916908373ffffffffffffffffffffffffffffffffffffffff1602179055508473ffffffffffffffffffffffffffffffffffffffff1660c08173ffffffffffffffffffffffffffffffffffffffff16815250508373ffffffffffffffffffffffffffffffffffffffff1660808173ffffffffffffffffffffffffffffffffffffffff16815250508273ffffffffffffffffffffffffffffffffffffffff1660a08173ffffffffffffffffffffffffffffffffffffffff168152505081600e8190555080600c8190555050505050505050620007f9565b600081519050919050565b7f4e487b7100000000000000000000000000000000000000000000000000000000600052604160045260246000fd5b7f4e487b7100000000000000000000000000000000000000000000000000000000600052602260045260246000fd5b600060028204905060018216806200022f57607f821691505b602082108103620002455762000244620001e7565b5b50919050565b60008190508160005260206000209050919050565b60006020601f8301049050919050565b600082821b905092915050565b600060088302620002af7fffffffffffffffffffffffffffffffffffffffffffffffffffffffffffffffff8262000270565b620002bb868362000270565b95508019841693508086168417925050509392505050565b6000819050919050565b6000819050919050565b60006200030862000302620002fc84620002d3565b620002dd565b620002d3565b9050919050565b6000819050919050565b6200032483620002e7565b6200033c62000333826200030f565b8484546200027d565b825550505050565b600090565b6200035362000344565b6200036081848462000319565b505050565b5b8181101562000388576200037c60008262000349565b60018101905062000366565b5050565b601f821115620003d757620003a1816200024b565b620003ac8462000260565b81016020851015620003bc578190505b620003d4620003cb8562000260565b83018262000365565b50505b505050565b600082821c905092915050565b6000620003fc60001984600802620003dc565b1980831691505092915050565b6000620004178383620003e9565b9150826002028217905092915050565b6200043282620001ad565b67ffffffffffffffff8111156200044e576200044d620001b8565b5b6200045a825462000216565b620004678282856200038c565b600060209050601f8311600181146200049f57600084156200048a578287015190505b62000496858262000409565b86555062000506565b601f198416620004af866200024b565b60005b82811015620004d957848901518255600182019150602085019450602081019050620004b2565b86831015620004f95784890151620004f5601f891682620003e9565b8355505b6001600288020188555050505b505050505050565b6000604051905090565b600080fd5b600080fd5b600080fd5b600080fd5b6000601f19601f8301169050919050565b62000548826200052c565b810181811067ffffffffffffffff821117156200056a5762000569620001b8565b5b80604052505050565b60006200057f6200050e565b90506200058d82826200053d565b919050565b600067ffffffffffffffff821115620005b057620005af620001b8565b5b620005bb826200052c565b9050602081019050919050565b60005b83811015620005e8578082015181840152602081019050620005cb565b60008484015250505050565b60006200060b620006058462000592565b62000573565b9050828152602081018484840111156200062a576200062962000527565b5b62000637848285620005c8565b509392505050565b600082601f83011262000657576200065662000522565b5b815162000669848260208601620005f4565b91505092915050565b600073ffffffffffffffffffffffffffffffffffffffff82169050919050565b60006200069f8262000672565b9050919050565b620006b18162000692565b8114620006bd57600080fd5b50565b600081519050620006d181620006a6565b92915050565b620006e281620002d3565b8114620006ee57600080fd5b50565b6000815190506200070281620006d7565b92915050565b600080600080600080600060e0888a0312156200072a576200072962000518565b5b600088015167ffffffffffffffff8111156200074b576200074a6200051d565b5b620007598a828b016200063f565b975050602088015167ffffffffffffffff8111156200077d576200077c6200051d565b5b6200078b8a828b016200063f565b96505060406200079e8a828b01620006c0565b9550506060620007b18a828b01620006c0565b9450506080620007c48a828b01620006c0565b93505060a0620007d78a828b01620006f1565b92505060c0620007ea8a828b01620006f1565b91505092959891949750929550565b60805160a05160c0516146846200083e6000396000818161119c0152818161164e0152818161198b0152611a8b01526000611bed01526000611b8601526146846000f3fe6080604052600436106101fd5760003560e01c8063833534bb1161010d578063c24a0f8b116100a0578063d5cef1331161006f578063d5cef13314610712578063e146f72714610729578063e985e9c514610733578063ecaabf7f14610770578063f851a4401461079b57610204565b8063c24a0f8b14610654578063c769a5411461067f578063c87b56dd146106aa578063d5abeb01146106e757610204565b80639abc8320116100dc5780639abc8320146105bb578063a1277600146105e6578063a22cb46514610602578063b88d4fde1461062b57610204565b8063833534bb146105325780638f2839701461055d57806395d89b411461058657806399203d23146105b157610204565b806342842e0e116101905780636ccda0a61161015f5780636ccda0a61461044d5780636f8b44b01461048a57806370a08231146104b35780637389df8a146104f057806373b4dba11461050757610204565b806342842e0e146103935780635b7646bf146103bc5780635e321dfc146103e55780636352211e1461041057610204565b80631209b1f6116101cc5780631209b1f6146102d75780631516db091461030257806323b872dd1461033f5780632cc403e01461036857610204565b806301ffc9a71461020957806306fdde0314610246578063081812fc14610271578063095ea7b3146102ae57610204565b3661020457005b600080fd5b34801561021557600080fd5b50610230600480360381019061022b9190612e94565b6107c6565b60405161023d9190612edc565b60405180910390f35b34801561025257600080fd5b5061025b6108a8565b6040516102689190612f87565b60405180910390f35b34801561027d57600080fd5b5061029860048036038101906102939190612fdf565b61093a565b6040516102a5919061304d565b60405180910390f35b3480156102ba57600080fd5b506102d560048036038101906102d09190613094565b610980565b005b3480156102e357600080fd5b506102ec610a97565b6040516102f991906130e3565b60405180910390f35b34801561030e57600080fd5b5061032960048036038101906103249190612fdf565b610a9d565b604051610336919061304d565b60405180910390f35b34801561034b57600080fd5b50610366600480360381019061036191906130fe565b610adc565b005b34801561037457600080fd5b5061037d610b9f565b60405161038a91906130e3565b60405180910390f35b34801561039f57600080fd5b506103ba60048036038101906103b591906130fe565b610ba5565b005b3480156103c857600080fd5b506103e360048036038101906103de9190612fdf565b610bc5565b005b3480156103f157600080fd5b506103fa610c7a565b60405161040791906130e3565b60405180910390f35b34801561041c57600080fd5b5061043760048036038101906104329190612fdf565b610c80565b604051610444919061304d565b60405180910390f35b34801561045957600080fd5b50610474600480360381019061046f9190613151565b610d06565b60405161048191906130e3565b60405180910390f35b34801561049657600080fd5b506104b160048036038101906104ac9190612fdf565b610d1e565b005b3480156104bf57600080fd5b506104da60048036038101906104d59190613151565b610db8565b6040516104e791906130e3565b60405180910390f35b3480156104fc57600080fd5b50610505610e6f565b005b34801561051357600080fd5b5061051c610f1c565b6040516105299190612edc565b60405180910390f35b34801561053e57600080fd5b50610547610f2f565b6040516105549190612edc565b60405180910390f35b34801561056957600080fd5b50610584600480360381019061057f9190613151565b610f42565b005b34801561059257600080fd5b5061059b611016565b6040516105a89190612f87565b60405180910390f35b6105b96110a8565b005b3480156105c757600080fd5b506105d06112dd565b6040516105dd9190612f87565b60405180910390f35b61060060048036038101906105fb9190612fdf565b61136b565b005b34801561060e57600080fd5b50610629600480360381019061062491906131aa565b6116ef565b005b34801561063757600080fd5b50610652600480360381019061064d919061331f565b611705565b005b34801561066057600080fd5b50610669611767565b60405161067691906130e3565b60405180910390f35b34801561068b57600080fd5b5061069461176d565b6040516106a19190612edc565b60405180910390f35b3480156106b657600080fd5b506106d160048036038101906106cc9190612fdf565b611780565b6040516106de9190612f87565b60405180910390f35b3480156106f357600080fd5b506106fc611892565b60405161070991906130e3565b60405180910390f35b34801561071e57600080fd5b50610727611898565b005b610731611a18565b005b34801561073f57600080fd5b5061075a600480360381019061075591906133a2565b611c55565b6040516107679190612edc565b60405180910390f35b34801561077c57600080fd5b50610785611ce9565b60405161079291906134a0565b60405180910390f35b3480156107a757600080fd5b506107b0611e94565b6040516107bd919061304d565b60405180910390f35b60007f80ac58cd000000000000000000000000000000000000000000000000000000007bffffffffffffffffffffffffffffffffffffffffffffffffffffffff1916827bffffffffffffffffffffffffffffffffffffffffffffffffffffffff1916148061089157507f5b5e139f000000000000000000000000000000000000000000000000000000007bffffffffffffffffffffffffffffffffffffffffffffffffffffffff1916827bffffffffffffffffffffffffffffffffffffffffffffffffffffffff1916145b806108a157506108a082611eba565b5b9050919050565b6060600080546108b7906134f1565b80601f01602080910402602001604051908101604052809291908181526020018280546108e3906134f1565b80156109305780601f1061090557610100808354040283529160200191610930565b820191906000526020600020905b81548152906001019060200180831161091357829003601f168201915b5050505050905090565b600061094582611f24565b6004600083815260200190815260200160002060009054906101000a900473ffffffffffffffffffffffffffffffffffffffff169050919050565b600061098b82610c80565b90508073ffffffffffffffffffffffffffffffffffffffff168373ffffffffffffffffffffffffffffffffffffffff16036109fb576040517f08c379a00000000000000000000000000000000000000000000000000000000081526004016109f290613594565b60405180910390fd5b8073ffffffffffffffffffffffffffffffffffffffff16610a1a611f6f565b73ffffffffffffffffffffffffffffffffffffffff161480610a495750610a4881610a43611f6f565b611c55565b5b610a88576040517f08c379a0000000000000000000000000000000000000000000000000000000008152600401610a7f90613626565b60405180910390fd5b610a928383611f77565b505050565b600c5481565b60108181548110610aad57600080fd5b906000526020600020016000915054906101000a900473ffffffffffffffffffffffffffffffffffffffff1681565b610aed610ae7611f6f565b82612030565b610b2c576040517f08c379a0000000000000000000000000000000000000000000000000000000008152600401610b23906136b8565b60405180910390fd5b6010829080600181540180825580915050600190039060005260206000200160009091909190916101000a81548173ffffffffffffffffffffffffffffffffffffffff021916908373ffffffffffffffffffffffffffffffffffffffff160217905550610b9a8383836120c5565b505050565b600b5481565b610bc083838360405180602001604052806000815250611705565b505050565b600a60009054906101000a900473ffffffffffffffffffffffffffffffffffffffff1673ffffffffffffffffffffffffffffffffffffffff163373ffffffffffffffffffffffffffffffffffffffff1614610c55576040517f08c379a0000000000000000000000000000000000000000000000000000000008152600401610c4c90613724565b60405180910390fd5b80600e819055506001600f60026101000a81548160ff02191690831515021790555050565b600d5481565b600080610c8c836123be565b9050600073ffffffffffffffffffffffffffffffffffffffff168173ffffffffffffffffffffffffffffffffffffffff1603610cfd576040517f08c379a0000000000000000000000000000000000000000000000000000000008152600401610cf490613790565b60405180910390fd5b80915050919050565b60116020528060005260406000206000915090505481565b600a60009054906101000a900473ffffffffffffffffffffffffffffffffffffffff1673ffffffffffffffffffffffffffffffffffffffff163373ffffffffffffffffffffffffffffffffffffffff1614610dae576040517f08c379a0000000000000000000000000000000000000000000000000000000008152600401610da590613724565b60405180910390fd5b8060098190555050565b60008073ffffffffffffffffffffffffffffffffffffffff168273ffffffffffffffffffffffffffffffffffffffff1603610e28576040517f08c379a0000000000000000000000000000000000000000000000000000000008152600401610e1f90613822565b60405180910390fd5b600360008373ffffffffffffffffffffffffffffffffffffffff1673ffffffffffffffffffffffffffffffffffffffff168152602001908152602001600020549050919050565b600a60009054906101000a900473ffffffffffffffffffffffffffffffffffffffff1673ffffffffffffffffffffffffffffffffffffffff163373ffffffffffffffffffffffffffffffffffffffff1614610eff576040517f08c379a0000000000000000000000000000000000000000000000000000000008152600401610ef69061388e565b60405180910390fd5b6001600f60006101000a81548160ff021916908315150217905550565b600f60019054906101000a900460ff1681565b600f60029054906101000a900460ff1681565b600a60009054906101000a900473ffffffffffffffffffffffffffffffffffffffff1673ffffffffffffffffffffffffffffffffffffffff163373ffffffffffffffffffffffffffffffffffffffff1614610fd2576040517f08c379a0000000000000000000000000000000000000000000000000000000008152600401610fc990613724565b60405180910390fd5b80600a60006101000a81548173ffffffffffffffffffffffffffffffffffffffff021916908373ffffffffffffffffffffffffffffffffffffffff16021790555050565b606060018054611025906134f1565b80601f0160208091040260200160405190810160405280929190818152602001828054611051906134f1565b801561109e5780601f106110735761010080835404028352916020019161109e565b820191906000526020600020905b81548152906001019060200180831161108157829003601f168201915b5050505050905090565b60011515600f60009054906101000a900460ff161515146110fe576040517f08c379a00000000000000000000000000000000000000000000000000000000081526004016110f5906138fa565b60405180910390fd5b600a60009054906101000a900473ffffffffffffffffffffffffffffffffffffffff1673ffffffffffffffffffffffffffffffffffffffff163373ffffffffffffffffffffffffffffffffffffffff161461118e576040517f08c379a000000000000000000000000000000000000000000000000000000000815260040161118590613724565b60405180910390fd5b6000611198611ce9565b90507f000000000000000000000000000000000000000000000000000000000000000073ffffffffffffffffffffffffffffffffffffffff166369d895756040518163ffffffff1660e01b8152600401600060405180830381600087803b15801561120257600080fd5b505af1158015611216573d6000803e3d6000fd5b5050505060005b6010805490508110156112d957600061124f8383815181106112425761124161391a565b5b6020026020010151610db8565b90506000600c54826112619190613978565b90508383815181106112765761127561391a565b5b602002602001015173ffffffffffffffffffffffffffffffffffffffff166108fc829081150290604051600060405180830381858888f193505050501580156112c3573d6000803e3d6000fd5b50505080806112d1906139ba565b91505061121d565b5050565b600880546112ea906134f1565b80601f0160208091040260200160405190810160405280929190818152602001828054611316906134f1565b80156113635780601f1061133857610100808354040283529160200191611363565b820191906000526020600020905b81548152906001019060200180831161134657829003601f168201915b505050505081565b80600c546113799190613978565b3410156113bb576040517f08c379a00000000000000000000000000000000000000000000000000000000081526004016113b290613a4e565b60405180910390fd5b600d5481601160003373ffffffffffffffffffffffffffffffffffffffff1673ffffffffffffffffffffffffffffffffffffffff168152602001908152602001600020546114099190613a6e565b111561144a576040517f08c379a000000000000000000000000000000000000000000000000000000000815260040161144190613aee565b60405180910390fd5b6009548161145860076123fb565b6114629190613a6e565b11156114a3576040517f08c379a000000000000000000000000000000000000000000000000000000000815260040161149a90613b5a565b60405180910390fd5b60001515600f60009054906101000a900460ff16151514806114d8575060011515600f60019054906101000a900460ff161515145b611517576040517f08c379a000000000000000000000000000000000000000000000000000000000815260040161150e90613bc6565b60405180910390fd5b80601160003373ffffffffffffffffffffffffffffffffffffffff1673ffffffffffffffffffffffffffffffffffffffff16815260200190815260200160002060008282546115669190613a6e565b925050819055506010339080600181540180825580915050600190039060005260206000200160009091909190916101000a81548173ffffffffffffffffffffffffffffffffffffffff021916908373ffffffffffffffffffffffffffffffffffffffff16021790555060005b8181101561164b576115e56007612409565b60006115f160076123fb565b90506115fd338261241f565b6000600861160a8361263c565b60405160200161161b929190613ccb565b6040516020818303038152906040529050611636828261270a565b50508080611643906139ba565b9150506115d3565b507f000000000000000000000000000000000000000000000000000000000000000073ffffffffffffffffffffffffffffffffffffffff166108fc349081150290604051600060405180830381858888f193505050501580156116b2573d6000803e3d6000fd5b507fe11731cb4f1eb3ec3dd09bdc96809bb07365f4c881cda3192b397a4bc0b6da4033826040516116e4929190613d15565b60405180910390a150565b6117016116fa611f6f565b8383612777565b5050565b611716611710611f6f565b83612030565b611755576040517f08c379a000000000000000000000000000000000000000000000000000000000815260040161174c906136b8565b60405180910390fd5b611761848484846128e3565b50505050565b600e5481565b600f60009054906101000a900460ff1681565b606061178b82611f24565b60006006600084815260200190815260200160002080546117ab906134f1565b80601f01602080910402602001604051908101604052809291908181526020018280546117d7906134f1565b80156118245780601f106117f957610100808354040283529160200191611824565b820191906000526020600020905b81548152906001019060200180831161180757829003601f168201915b50505050509050600061183561293f565b9050600081510361184a57819250505061188d565b60008251111561187f578082604051602001611867929190613d7a565b6040516020818303038152906040529250505061188d565b61188884612956565b925050505b919050565b60095481565b60011515600f60029054906101000a900460ff161515146118ee576040517f08c379a00000000000000000000000000000000000000000000000000000000081526004016118e590613dea565b60405180910390fd5b6000601160003373ffffffffffffffffffffffffffffffffffffffff1673ffffffffffffffffffffffffffffffffffffffff1681526020019081526020016000205490506000600c54826119429190613978565b90506000601160003373ffffffffffffffffffffffffffffffffffffffff1673ffffffffffffffffffffffffffffffffffffffff168152602001908152602001600020819055507f000000000000000000000000000000000000000000000000000000000000000073ffffffffffffffffffffffffffffffffffffffff1663a99c20a3826040518263ffffffff1660e01b81526004016119e291906130e3565b600060405180830381600087803b1580156119fc57600080fd5b505af1158015611a10573d6000803e3d6000fd5b505050505050565b60001515600f60009054906101000a900460ff16151514611a6e576040517f08c379a0000000000000000000000000000000000000000000000000000000008152600401611a6590613e56565b60405180910390fd5b6001600f60016101000a81548160ff0219169083151502179055507f000000000000000000000000000000000000000000000000000000000000000073ffffffffffffffffffffffffffffffffffffffff166369d895756040518163ffffffff1660e01b8152600401600060405180830381600087803b158015611af157600080fd5b505af1158015611b05573d6000803e3d6000fd5b505050506000600b5447611b199190613ea5565b9050600a60009054906101000a900473ffffffffffffffffffffffffffffffffffffffff1673ffffffffffffffffffffffffffffffffffffffff166108fc829081150290604051600060405180830381858888f19350505050158015611b83573d6000803e3d6000fd5b507f000000000000000000000000000000000000000000000000000000000000000073ffffffffffffffffffffffffffffffffffffffff166108fc829081150290604051600060405180830381858888f19350505050158015611bea573d6000803e3d6000fd5b507f000000000000000000000000000000000000000000000000000000000000000073ffffffffffffffffffffffffffffffffffffffff166108fc479081150290604051600060405180830381858888f19350505050158015611c51573d6000803e3d6000fd5b5050565b6000600560008473ffffffffffffffffffffffffffffffffffffffff1673ffffffffffffffffffffffffffffffffffffffff16815260200190815260200160002060008373ffffffffffffffffffffffffffffffffffffffff1673ffffffffffffffffffffffffffffffffffffffff16815260200190815260200160002060009054906101000a900460ff16905092915050565b6060600a60009054906101000a900473ffffffffffffffffffffffffffffffffffffffff1673ffffffffffffffffffffffffffffffffffffffff163373ffffffffffffffffffffffffffffffffffffffff1614611d7b576040517f08c379a0000000000000000000000000000000000000000000000000000000008152600401611d7290613f22565b60405180910390fd5b600060108054905067ffffffffffffffff811115611d9c57611d9b6131f4565b5b604051908082528060200260200182016040528015611dca5781602001602082028036833780820191505090505b5090506000805b601080549050811015611e8b5760108181548110611df257611df161391a565b5b9060005260206000200160009054906101000a900473ffffffffffffffffffffffffffffffffffffffff16838381518110611e3057611e2f61391a565b5b602002602001019073ffffffffffffffffffffffffffffffffffffffff16908173ffffffffffffffffffffffffffffffffffffffff16815250508180611e75906139ba565b9250508080611e83906139ba565b915050611dd1565b50819250505090565b600a60009054906101000a900473ffffffffffffffffffffffffffffffffffffffff1681565b60007f01ffc9a7000000000000000000000000000000000000000000000000000000007bffffffffffffffffffffffffffffffffffffffffffffffffffffffff1916827bffffffffffffffffffffffffffffffffffffffffffffffffffffffff1916149050919050565b611f2d816129be565b611f6c576040517f08c379a0000000000000000000000000000000000000000000000000000000008152600401611f6390613790565b60405180910390fd5b50565b600033905090565b816004600083815260200190815260200160002060006101000a81548173ffffffffffffffffffffffffffffffffffffffff021916908373ffffffffffffffffffffffffffffffffffffffff160217905550808273ffffffffffffffffffffffffffffffffffffffff16611fea83610c80565b73ffffffffffffffffffffffffffffffffffffffff167f8c5be1e5ebec7d5bd14f71427d1e84f3dd0314c0f7b2291e5b200ac8c7c3b92560405160405180910390a45050565b60008061203c83610c80565b90508073ffffffffffffffffffffffffffffffffffffffff168473ffffffffffffffffffffffffffffffffffffffff16148061207e575061207d8185611c55565b5b806120bc57508373ffffffffffffffffffffffffffffffffffffffff166120a48461093a565b73ffffffffffffffffffffffffffffffffffffffff16145b91505092915050565b8273ffffffffffffffffffffffffffffffffffffffff166120e582610c80565b73ffffffffffffffffffffffffffffffffffffffff161461213b576040517f08c379a000000000000000000000000000000000000000000000000000000000815260040161213290613fb4565b60405180910390fd5b600073ffffffffffffffffffffffffffffffffffffffff168273ffffffffffffffffffffffffffffffffffffffff16036121aa576040517f08c379a00000000000000000000000000000000000000000000000000000000081526004016121a190614046565b60405180910390fd5b6121b783838360016129ff565b8273ffffffffffffffffffffffffffffffffffffffff166121d782610c80565b73ffffffffffffffffffffffffffffffffffffffff161461222d576040517f08c379a000000000000000000000000000000000000000000000000000000000815260040161222490613fb4565b60405180910390fd5b6004600082815260200190815260200160002060006101000a81549073ffffffffffffffffffffffffffffffffffffffff02191690556001600360008573ffffffffffffffffffffffffffffffffffffffff1673ffffffffffffffffffffffffffffffffffffffff168152602001908152602001600020600082825403925050819055506001600360008473ffffffffffffffffffffffffffffffffffffffff1673ffffffffffffffffffffffffffffffffffffffff16815260200190815260200160002060008282540192505081905550816002600083815260200190815260200160002060006101000a81548173ffffffffffffffffffffffffffffffffffffffff021916908373ffffffffffffffffffffffffffffffffffffffff160217905550808273ffffffffffffffffffffffffffffffffffffffff168473ffffffffffffffffffffffffffffffffffffffff167fddf252ad1be2c89b69c2b068fc378daa952ba7f163c4a11628f55a4df523b3ef60405160405180910390a46123b98383836001612b25565b505050565b60006002600083815260200190815260200160002060009054906101000a900473ffffffffffffffffffffffffffffffffffffffff169050919050565b600081600001549050919050565b6001816000016000828254019250508190555050565b600073ffffffffffffffffffffffffffffffffffffffff168273ffffffffffffffffffffffffffffffffffffffff160361248e576040517f08c379a0000000000000000000000000000000000000000000000000000000008152600401612485906140b2565b60405180910390fd5b612497816129be565b156124d7576040517f08c379a00000000000000000000000000000000000000000000000000000000081526004016124ce9061411e565b60405180910390fd5b6124e56000838360016129ff565b6124ee816129be565b1561252e576040517f08c379a00000000000000000000000000000000000000000000000000000000081526004016125259061411e565b60405180910390fd5b6001600360008473ffffffffffffffffffffffffffffffffffffffff1673ffffffffffffffffffffffffffffffffffffffff16815260200190815260200160002060008282540192505081905550816002600083815260200190815260200160002060006101000a81548173ffffffffffffffffffffffffffffffffffffffff021916908373ffffffffffffffffffffffffffffffffffffffff160217905550808273ffffffffffffffffffffffffffffffffffffffff16600073ffffffffffffffffffffffffffffffffffffffff167fddf252ad1be2c89b69c2b068fc378daa952ba7f163c4a11628f55a4df523b3ef60405160405180910390a4612638600083836001612b25565b5050565b60606000600161264b84612b2b565b01905060008167ffffffffffffffff81111561266a576126696131f4565b5b6040519080825280601f01601f19166020018201604052801561269c5781602001600182028036833780820191505090505b509050600082602001820190505b6001156126ff578080600190039150507f3031323334353637383961626364656600000000000000000000000000000000600a86061a8153600a85816126f3576126f2613e76565b5b049450600085036126aa575b819350505050919050565b612713826129be565b612752576040517f08c379a0000000000000000000000000000000000000000000000000000000008152600401612749906141b0565b60405180910390fd5b806006600084815260200190815260200160002090816127729190614367565b505050565b8173ffffffffffffffffffffffffffffffffffffffff168373ffffffffffffffffffffffffffffffffffffffff16036127e5576040517f08c379a00000000000000000000000000000000000000000000000000000000081526004016127dc90614485565b60405180910390fd5b80600560008573ffffffffffffffffffffffffffffffffffffffff1673ffffffffffffffffffffffffffffffffffffffff16815260200190815260200160002060008473ffffffffffffffffffffffffffffffffffffffff1673ffffffffffffffffffffffffffffffffffffffff16815260200190815260200160002060006101000a81548160ff0219169083151502179055508173ffffffffffffffffffffffffffffffffffffffff168373ffffffffffffffffffffffffffffffffffffffff167f17307eab39ab6107e8899845ad3d59bd9653f200f220920489ca2b5937696c31836040516128d69190612edc565b60405180910390a3505050565b6128ee8484846120c5565b6128fa84848484612c7e565b612939576040517f08c379a000000000000000000000000000000000000000000000000000000000815260040161293090614517565b60405180910390fd5b50505050565b606060405180602001604052806000815250905090565b606061296182611f24565b600061296b61293f565b9050600081511161298b57604051806020016040528060008152506129b6565b806129958461263c565b6040516020016129a6929190613d7a565b6040516020818303038152906040525b915050919050565b60008073ffffffffffffffffffffffffffffffffffffffff166129e0836123be565b73ffffffffffffffffffffffffffffffffffffffff1614159050919050565b6001811115612b1f57600073ffffffffffffffffffffffffffffffffffffffff168473ffffffffffffffffffffffffffffffffffffffff1614612a935780600360008673ffffffffffffffffffffffffffffffffffffffff1673ffffffffffffffffffffffffffffffffffffffff1681526020019081526020016000206000828254612a8b9190614537565b925050819055505b600073ffffffffffffffffffffffffffffffffffffffff168373ffffffffffffffffffffffffffffffffffffffff1614612b1e5780600360008573ffffffffffffffffffffffffffffffffffffffff1673ffffffffffffffffffffffffffffffffffffffff1681526020019081526020016000206000828254612b169190613a6e565b925050819055505b5b50505050565b50505050565b600080600090507a184f03e93ff9f4daa797ed6e38ed64bf6a1f0100000000000000008310612b89577a184f03e93ff9f4daa797ed6e38ed64bf6a1f0100000000000000008381612b7f57612b7e613e76565b5b0492506040810190505b6d04ee2d6d415b85acef81000000008310612bc6576d04ee2d6d415b85acef81000000008381612bbc57612bbb613e76565b5b0492506020810190505b662386f26fc100008310612bf557662386f26fc100008381612beb57612bea613e76565b5b0492506010810190505b6305f5e1008310612c1e576305f5e1008381612c1457612c13613e76565b5b0492506008810190505b6127108310612c43576127108381612c3957612c38613e76565b5b0492506004810190505b60648310612c665760648381612c5c57612c5b613e76565b5b0492506002810190505b600a8310612c75576001810190505b80915050919050565b6000612c9f8473ffffffffffffffffffffffffffffffffffffffff16612e05565b15612df8578373ffffffffffffffffffffffffffffffffffffffff1663150b7a02612cc8611f6f565b8786866040518563ffffffff1660e01b8152600401612cea94939291906145c0565b6020604051808303816000875af1925050508015612d2657506040513d601f19601f82011682018060405250810190612d239190614621565b60015b612da8573d8060008114612d56576040519150601f19603f3d011682016040523d82523d6000602084013e612d5b565b606091505b506000815103612da0576040517f08c379a0000000000000000000000000000000000000000000000000000000008152600401612d9790614517565b60405180910390fd5b805181602001fd5b63150b7a0260e01b7bffffffffffffffffffffffffffffffffffffffffffffffffffffffff1916817bffffffffffffffffffffffffffffffffffffffffffffffffffffffff191614915050612dfd565b600190505b949350505050565b6000808273ffffffffffffffffffffffffffffffffffffffff163b119050919050565b6000604051905090565b600080fd5b600080fd5b60007fffffffff0000000000000000000000000000000000000000000000000000000082169050919050565b612e7181612e3c565b8114612e7c57600080fd5b50565b600081359050612e8e81612e68565b92915050565b600060208284031215612eaa57612ea9612e32565b5b6000612eb884828501612e7f565b91505092915050565b60008115159050919050565b612ed681612ec1565b82525050565b6000602082019050612ef16000830184612ecd565b92915050565b600081519050919050565b600082825260208201905092915050565b60005b83811015612f31578082015181840152602081019050612f16565b60008484015250505050565b6000601f19601f8301169050919050565b6000612f5982612ef7565b612f638185612f02565b9350612f73818560208601612f13565b612f7c81612f3d565b840191505092915050565b60006020820190508181036000830152612fa18184612f4e565b905092915050565b6000819050919050565b612fbc81612fa9565b8114612fc757600080fd5b50565b600081359050612fd981612fb3565b92915050565b600060208284031215612ff557612ff4612e32565b5b600061300384828501612fca565b91505092915050565b600073ffffffffffffffffffffffffffffffffffffffff82169050919050565b60006130378261300c565b9050919050565b6130478161302c565b82525050565b6000602082019050613062600083018461303e565b92915050565b6130718161302c565b811461307c57600080fd5b50565b60008135905061308e81613068565b92915050565b600080604083850312156130ab576130aa612e32565b5b60006130b98582860161307f565b92505060206130ca85828601612fca565b9150509250929050565b6130dd81612fa9565b82525050565b60006020820190506130f860008301846130d4565b92915050565b60008060006060848603121561311757613116612e32565b5b60006131258682870161307f565b93505060206131368682870161307f565b925050604061314786828701612fca565b9150509250925092565b60006020828403121561316757613166612e32565b5b60006131758482850161307f565b91505092915050565b61318781612ec1565b811461319257600080fd5b50565b6000813590506131a48161317e565b92915050565b600080604083850312156131c1576131c0612e32565b5b60006131cf8582860161307f565b92505060206131e085828601613195565b9150509250929050565b600080fd5b600080fd5b7f4e487b7100000000000000000000000000000000000000000000000000000000600052604160045260246000fd5b61322c82612f3d565b810181811067ffffffffffffffff8211171561324b5761324a6131f4565b5b80604052505050565b600061325e612e28565b905061326a8282613223565b919050565b600067ffffffffffffffff82111561328a576132896131f4565b5b61329382612f3d565b9050602081019050919050565b82818337600083830152505050565b60006132c26132bd8461326f565b613254565b9050828152602081018484840111156132de576132dd6131ef565b5b6132e98482856132a0565b509392505050565b600082601f830112613306576133056131ea565b5b81356133168482602086016132af565b91505092915050565b6000806000806080858703121561333957613338612e32565b5b60006133478782880161307f565b94505060206133588782880161307f565b935050604061336987828801612fca565b925050606085013567ffffffffffffffff81111561338a57613389612e37565b5b613396878288016132f1565b91505092959194509250565b600080604083850312156133b9576133b8612e32565b5b60006133c78582860161307f565b92505060206133d88582860161307f565b9150509250929050565b600081519050919050565b600082825260208201905092915050565b6000819050602082019050919050565b6134178161302c565b82525050565b6000613429838361340e565b60208301905092915050565b6000602082019050919050565b600061344d826133e2565b61345781856133ed565b9350613462836133fe565b8060005b8381101561349357815161347a888261341d565b975061348583613435565b925050600181019050613466565b5085935050505092915050565b600060208201905081810360008301526134ba8184613442565b905092915050565b7f4e487b7100000000000000000000000000000000000000000000000000000000600052602260045260246000fd5b6000600282049050600182168061350957607f821691505b60208210810361351c5761351b6134c2565b5b50919050565b7f4552433732313a20617070726f76616c20746f2063757272656e74206f776e6560008201527f7200000000000000000000000000000000000000000000000000000000000000602082015250565b600061357e602183612f02565b915061358982613522565b604082019050919050565b600060208201905081810360008301526135ad81613571565b9050919050565b7f4552433732313a20617070726f76652063616c6c6572206973206e6f7420746f60008201527f6b656e206f776e6572206f7220617070726f76656420666f7220616c6c000000602082015250565b6000613610603d83612f02565b915061361b826135b4565b604082019050919050565b6000602082019050818103600083015261363f81613603565b9050919050565b7f4552433732313a2063616c6c6572206973206e6f7420746f6b656e206f776e6560008201527f72206f7220617070726f76656400000000000000000000000000000000000000602082015250565b60006136a2602d83612f02565b91506136ad82613646565b604082019050919050565b600060208201905081810360008301526136d181613695565b9050919050565b7f6f6e6c792061646d696e00000000000000000000000000000000000000000000600082015250565b600061370e600a83612f02565b9150613719826136d8565b602082019050919050565b6000602082019050818103600083015261373d81613701565b9050919050565b7f4552433732313a20696e76616c696420746f6b656e2049440000000000000000600082015250565b600061377a601883612f02565b915061378582613744565b602082019050919050565b600060208201905081810360008301526137a98161376d565b9050919050565b7f4552433732313a2061646472657373207a65726f206973206e6f74206120766160008201527f6c6964206f776e65720000000000000000000000000000000000000000000000602082015250565b600061380c602983612f02565b9150613817826137b0565b604082019050919050565b6000602082019050818103600083015261383b816137ff565b9050919050565b7f6f6e6c7941646d696e0000000000000000000000000000000000000000000000600082015250565b6000613878600983612f02565b915061388382613842565b602082019050919050565b600060208201905081810360008301526138a78161386b565b9050919050565b7f73686f77206e6f742063616e63656c6c65640000000000000000000000000000600082015250565b60006138e4601283612f02565b91506138ef826138ae565b602082019050919050565b60006020820190508181036000830152613913816138d7565b9050919050565b7f4e487b7100000000000000000000000000000000000000000000000000000000600052603260045260246000fd5b7f4e487b7100000000000000000000000000000000000000000000000000000000600052601160045260246000fd5b600061398382612fa9565b915061398e83612fa9565b925082820261399c81612fa9565b915082820484148315176139b3576139b2613949565b5b5092915050565b60006139c582612fa9565b91507fffffffffffffffffffffffffffffffffffffffffffffffffffffffffffffffff82036139f7576139f6613949565b5b600182019050919050565b7f7061790000000000000000000000000000000000000000000000000000000000600082015250565b6000613a38600383612f02565b9150613a4382613a02565b602082019050919050565b60006020820190508181036000830152613a6781613a2b565b9050919050565b6000613a7982612fa9565b9150613a8483612fa9565b9250828201905080821115613a9c57613a9b613949565b5b92915050565b7f6d61782074697800000000000000000000000000000000000000000000000000600082015250565b6000613ad8600783612f02565b9150613ae382613aa2565b602082019050919050565b60006020820190508181036000830152613b0781613acb565b9050919050565b7f736f6c64206f7574000000000000000000000000000000000000000000000000600082015250565b6000613b44600883612f02565b9150613b4f82613b0e565b602082019050919050565b60006020820190508181036000830152613b7381613b37565b9050919050565b7f73686f77206973206e6f74206f70656e00000000000000000000000000000000600082015250565b6000613bb0601083612f02565b9150613bbb82613b7a565b602082019050919050565b60006020820190508181036000830152613bdf81613ba3565b9050919050565b60008190508160005260206000209050919050565b60008154613c08816134f1565b613c128186612f02565b94506001821660008114613c2d5760018114613c4357613c76565b60ff198316865281151560200286019350613c76565b613c4c85613be6565b60005b83811015613c6e57815481890152600182019150602081019050613c4f565b808801955050505b50505092915050565b7f2e6a736f6e000000000000000000000000000000000000000000000000000000600082015250565b6000613cb5600583612f02565b9150613cc082613c7f565b602082019050919050565b60006060820190508181036000830152613ce58185613bfb565b90508181036020830152613cf98184612f4e565b90508181036040830152613d0c81613ca8565b90509392505050565b6000604082019050613d2a600083018561303e565b613d3760208301846130d4565b9392505050565b600081905092915050565b6000613d5482612ef7565b613d5e8185613d3e565b9350613d6e818560208601612f13565b80840191505092915050565b6000613d868285613d49565b9150613d928284613d49565b91508190509392505050565b7f6e6f742072657363686564756c65640000000000000000000000000000000000600082015250565b6000613dd4600f83612f02565b9150613ddf82613d9e565b602082019050919050565b60006020820190508181036000830152613e0381613dc7565b9050919050565b7f73686f77206e6f7420636f6d706c657465640000000000000000000000000000600082015250565b6000613e40601283612f02565b9150613e4b82613e0a565b602082019050919050565b60006020820190508181036000830152613e6f81613e33565b9050919050565b7f4e487b7100000000000000000000000000000000000000000000000000000000600052601260045260246000fd5b6000613eb082612fa9565b9150613ebb83612fa9565b925082613ecb57613eca613e76565b5b828204905092915050565b7f6f61000000000000000000000000000000000000000000000000000000000000600082015250565b6000613f0c600283612f02565b9150613f1782613ed6565b602082019050919050565b60006020820190508181036000830152613f3b81613eff565b9050919050565b7f4552433732313a207472616e736665722066726f6d20696e636f72726563742060008201527f6f776e6572000000000000000000000000000000000000000000000000000000602082015250565b6000613f9e602583612f02565b9150613fa982613f42565b604082019050919050565b60006020820190508181036000830152613fcd81613f91565b9050919050565b7f4552433732313a207472616e7366657220746f20746865207a65726f2061646460008201527f7265737300000000000000000000000000000000000000000000000000000000602082015250565b6000614030602483612f02565b915061403b82613fd4565b604082019050919050565b6000602082019050818103600083015261405f81614023565b9050919050565b7f4552433732313a206d696e7420746f20746865207a65726f2061646472657373600082015250565b600061409c602083612f02565b91506140a782614066565b602082019050919050565b600060208201905081810360008301526140cb8161408f565b9050919050565b7f4552433732313a20746f6b656e20616c7265616479206d696e74656400000000600082015250565b6000614108601c83612f02565b9150614113826140d2565b602082019050919050565b60006020820190508181036000830152614137816140fb565b9050919050565b7f45524337323155524953746f726167653a2055524920736574206f66206e6f6e60008201527f6578697374656e7420746f6b656e000000000000000000000000000000000000602082015250565b600061419a602e83612f02565b91506141a58261413e565b604082019050919050565b600060208201905081810360008301526141c98161418d565b9050919050565b60006020601f8301049050919050565b600082821b905092915050565b60006008830261421d7fffffffffffffffffffffffffffffffffffffffffffffffffffffffffffffffff826141e0565b61422786836141e0565b95508019841693508086168417925050509392505050565b6000819050919050565b600061426461425f61425a84612fa9565b61423f565b612fa9565b9050919050565b6000819050919050565b61427e83614249565b61429261428a8261426b565b8484546141ed565b825550505050565b600090565b6142a761429a565b6142b2818484614275565b505050565b5b818110156142d6576142cb60008261429f565b6001810190506142b8565b5050565b601f82111561431b576142ec81613be6565b6142f5846141d0565b81016020851015614304578190505b614318614310856141d0565b8301826142b7565b50505b505050565b600082821c905092915050565b600061433e60001984600802614320565b1980831691505092915050565b6000614357838361432d565b9150826002028217905092915050565b61437082612ef7565b67ffffffffffffffff811115614389576143886131f4565b5b61439382546134f1565b61439e8282856142da565b600060209050601f8311600181146143d157600084156143bf578287015190505b6143c9858261434b565b865550614431565b601f1984166143df86613be6565b60005b82811015614407578489015182556001820191506020850194506020810190506143e2565b868310156144245784890151614420601f89168261432d565b8355505b6001600288020188555050505b505050505050565b7f4552433732313a20617070726f766520746f2063616c6c657200000000000000600082015250565b600061446f601983612f02565b915061447a82614439565b602082019050919050565b6000602082019050818103600083015261449e81614462565b9050919050565b7f4552433732313a207472616e7366657220746f206e6f6e20455243373231526560008201527f63656976657220696d706c656d656e7465720000000000000000000000000000602082015250565b6000614501603283612f02565b915061450c826144a5565b604082019050919050565b60006020820190508181036000830152614530816144f4565b9050919050565b600061454282612fa9565b915061454d83612fa9565b925082820390508181111561456557614564613949565b5b92915050565b600081519050919050565b600082825260208201905092915050565b60006145928261456b565b61459c8185614576565b93506145ac818560208601612f13565b6145b581612f3d565b840191505092915050565b60006080820190506145d5600083018761303e565b6145e2602083018661303e565b6145ef60408301856130d4565b81810360608301526146018184614587565b905095945050505050565b60008151905061461b81612e68565b92915050565b60006020828403121561463757614636612e32565b5b60006146458482850161460c565b9150509291505056fea2646970667358221220d6260f6d4ccdf1116ed474e0234e4d2babd1bbab6d10f77fc063f08e702d390964736f6c63430008110033",
  "linkReferences": {},
  "deployedLinkReferences": {}
}