{
  "_format": "hh-sol-artifact-1",
  "contractName": "Cryptickets",
  "sourceName": "contracts/Cryptickets.sol",
  "abi": [
    {
      "inputs": [
        {
          "internalType": "string",
          "name": "_name",
          "type": "string"
        },
        {
          "internalType": "string",
          "name": "_symbol",
          "type": "string"
        },
        {
          "internalType": "address",
          "name": "_escrowAddress",
          "type": "address"
        },
        {
          "internalType": "address",
          "name": "_bandAddress",
          "type": "address"
        },
        {
          "internalType": "address",
          "name": "_venueAddress",
          "type": "address"
        },
        {
          "internalType": "uint256",
          "name": "_endDate",
          "type": "uint256"
        },
        {
          "internalType": "uint256",
          "name": "_price",
          "type": "uint256"
        }
      ],
      "stateMutability": "nonpayable",
      "type": "constructor"
    },
    {
      "anonymous": false,
      "inputs": [
        {
          "indexed": true,
          "internalType": "address",
          "name": "owner",
          "type": "address"
        },
        {
          "indexed": true,
          "internalType": "address",
          "name": "approved",
          "type": "address"
        },
        {
          "indexed": true,
          "internalType": "uint256",
          "name": "tokenId",
          "type": "uint256"
        }
      ],
      "name": "Approval",
      "type": "event"
    },
    {
      "anonymous": false,
      "inputs": [
        {
          "indexed": true,
          "internalType": "address",
          "name": "owner",
          "type": "address"
        },
        {
          "indexed": true,
          "internalType": "address",
          "name": "operator",
          "type": "address"
        },
        {
          "indexed": false,
          "internalType": "bool",
          "name": "approved",
          "type": "bool"
        }
      ],
      "name": "ApprovalForAll",
      "type": "event"
    },
    {
      "anonymous": false,
      "inputs": [
        {
          "indexed": false,
          "internalType": "address",
          "name": "to",
          "type": "address"
        },
        {
          "indexed": false,
          "internalType": "uint256",
          "name": "amountPurchased",
          "type": "uint256"
        }
      ],
      "name": "TicketsPurchased",
      "type": "event"
    },
    {
      "anonymous": false,
      "inputs": [
        {
          "indexed": true,
          "internalType": "address",
          "name": "from",
          "type": "address"
        },
        {
          "indexed": true,
          "internalType": "address",
          "name": "to",
          "type": "address"
        },
        {
          "indexed": true,
          "internalType": "uint256",
          "name": "tokenId",
          "type": "uint256"
        }
      ],
      "name": "Transfer",
      "type": "event"
    },
    {
      "inputs": [],
      "name": "admin",
      "outputs": [
        {
          "internalType": "address",
          "name": "",
          "type": "address"
        }
      ],
      "stateMutability": "view",
      "type": "function"
    },
    {
      "inputs": [
        {
          "internalType": "uint256",
          "name": "",
          "type": "uint256"
        }
      ],
      "name": "allOwners",
      "outputs": [
        {
          "internalType": "address",
          "name": "",
          "type": "address"
        }
      ],
      "stateMutability": "view",
      "type": "function"
    },
    {
      "inputs": [
        {
          "internalType": "address",
          "name": "to",
          "type": "address"
        },
        {
          "internalType": "uint256",
          "name": "tokenId",
          "type": "uint256"
        }
      ],
      "name": "approve",
      "outputs": [],
      "stateMutability": "nonpayable",
      "type": "function"
    },
    {
      "inputs": [
        {
          "internalType": "address",
          "name": "owner",
          "type": "address"
        }
      ],
      "name": "balanceOf",
      "outputs": [
        {
          "internalType": "uint256",
          "name": "",
          "type": "uint256"
        }
      ],
      "stateMutability": "view",
      "type": "function"
    },
    {
      "inputs": [],
      "name": "bandPercent",
      "outputs": [
        {
          "internalType": "uint256",
          "name": "",
          "type": "uint256"
        }
      ],
      "stateMutability": "view",
      "type": "function"
    },
    {
      "inputs": [],
      "name": "baseUri",
      "outputs": [
        {
          "internalType": "string",
          "name": "",
          "type": "string"
        }
      ],
      "stateMutability": "view",
      "type": "function"
    },
    {
      "inputs": [
        {
          "internalType": "address",
          "name": "_controller",
          "type": "address"
        }
      ],
      "name": "changeAdmin",
      "outputs": [],
      "stateMutability": "nonpayable",
      "type": "function"
    },
    {
      "inputs": [],
      "name": "endDate",
      "outputs": [
        {
          "internalType": "uint256",
          "name": "",
          "type": "uint256"
        }
      ],
      "stateMutability": "view",
      "type": "function"
    },
    {
      "inputs": [
        {
          "internalType": "uint256",
          "name": "tokenId",
          "type": "uint256"
        }
      ],
      "name": "getApproved",
      "outputs": [
        {
          "internalType": "address",
          "name": "",
          "type": "address"
        }
      ],
      "stateMutability": "view",
      "type": "function"
    },
    {
      "inputs": [
        {
          "internalType": "address",
          "name": "owner",
          "type": "address"
        },
        {
          "internalType": "address",
          "name": "operator",
          "type": "address"
        }
      ],
      "name": "isApprovedForAll",
      "outputs": [
        {
          "internalType": "bool",
          "name": "",
          "type": "bool"
        }
      ],
      "stateMutability": "view",
      "type": "function"
    },
    {
      "inputs": [],
      "name": "maxSupply",
      "outputs": [
        {
          "internalType": "uint256",
          "name": "",
          "type": "uint256"
        }
      ],
      "stateMutability": "view",
      "type": "function"
    },
    {
      "inputs": [],
      "name": "name",
      "outputs": [
        {
          "internalType": "string",
          "name": "",
          "type": "string"
        }
      ],
      "stateMutability": "view",
      "type": "function"
    },
    {
      "inputs": [
        {
          "internalType": "uint256",
          "name": "tokenId",
          "type": "uint256"
        }
      ],
      "name": "ownerOf",
      "outputs": [
        {
          "internalType": "address",
          "name": "",
          "type": "address"
        }
      ],
      "stateMutability": "view",
      "type": "function"
    },
    {
      "inputs": [],
      "name": "payBandAndVenue",
      "outputs": [],
      "stateMutability": "payable",
      "type": "function"
    },
    {
      "inputs": [
        {
          "internalType": "uint256",
          "name": "amount",
          "type": "uint256"
        }
      ],
      "name": "purchaseTickets",
      "outputs": [],
      "stateMutability": "payable",
      "type": "function"
    },
    {
      "inputs": [],
      "name": "refundAllTickets",
      "outputs": [],
      "stateMutability": "payable",
      "type": "function"
    },
    {
      "inputs": [],
      "name": "returnAllOwners",
      "outputs": [
        {
          "internalType": "address[]",
          "name": "",
          "type": "address[]"
        }
      ],
      "stateMutability": "view",
      "type": "function"
    },
    {
      "inputs": [
        {
          "internalType": "address",
          "name": "from",
          "type": "address"
        },
        {
          "internalType": "address",
          "name": "to",
          "type": "address"
        },
        {
          "internalType": "uint256",
          "name": "tokenId",
          "type": "uint256"
        }
      ],
      "name": "safeTransferFrom",
      "outputs": [],
      "stateMutability": "nonpayable",
      "type": "function"
    },
    {
      "inputs": [
        {
          "internalType": "address",
          "name": "from",
          "type": "address"
        },
        {
          "internalType": "address",
          "name": "to",
          "type": "address"
        },
        {
          "internalType": "uint256",
          "name": "tokenId",
          "type": "uint256"
        },
        {
          "internalType": "bytes",
          "name": "data",
          "type": "bytes"
        }
      ],
      "name": "safeTransferFrom",
      "outputs": [],
      "stateMutability": "nonpayable",
      "type": "function"
    },
    {
      "inputs": [
        {
          "internalType": "address",
          "name": "operator",
          "type": "address"
        },
        {
          "internalType": "bool",
          "name": "approved",
          "type": "bool"
        }
      ],
      "name": "setApprovalForAll",
      "outputs": [],
      "stateMutability": "nonpayable",
      "type": "function"
    },
    {
      "inputs": [],
      "name": "setCancelledShow",
      "outputs": [],
      "stateMutability": "nonpayable",
      "type": "function"
    },
    {
      "inputs": [
        {
          "internalType": "uint256",
          "name": "_maxSupply",
          "type": "uint256"
        }
      ],
      "name": "setMaxSupply",
      "outputs": [],
      "stateMutability": "nonpayable",
      "type": "function"
    },
    {
      "inputs": [],
      "name": "showCancelled",
      "outputs": [
        {
          "internalType": "bool",
          "name": "",
          "type": "bool"
        }
      ],
      "stateMutability": "view",
      "type": "function"
    },
    {
      "inputs": [],
      "name": "showCompleted",
      "outputs": [
        {
          "internalType": "bool",
          "name": "",
          "type": "bool"
        }
      ],
      "stateMutability": "view",
      "type": "function"
    },
    {
      "inputs": [
        {
          "internalType": "bytes4",
          "name": "interfaceId",
          "type": "bytes4"
        }
      ],
      "name": "supportsInterface",
      "outputs": [
        {
          "internalType": "bool",
          "name": "",
          "type": "bool"
        }
      ],
      "stateMutability": "view",
      "type": "function"
    },
    {
      "inputs": [],
      "name": "symbol",
      "outputs": [
        {
          "internalType": "string",
          "name": "",
          "type": "string"
        }
      ],
      "stateMutability": "view",
      "type": "function"
    },
    {
      "inputs": [],
      "name": "ticketLimit",
      "outputs": [
        {
          "internalType": "uint256",
          "name": "",
          "type": "uint256"
        }
      ],
      "stateMutability": "view",
      "type": "function"
    },
    {
      "inputs": [],
      "name": "ticketPrice",
      "outputs": [
        {
          "internalType": "uint256",
          "name": "",
          "type": "uint256"
        }
      ],
      "stateMutability": "view",
      "type": "function"
    },
    {
      "inputs": [
        {
          "internalType": "address",
          "name": "",
          "type": "address"
        }
      ],
      "name": "ticketsPurchased",
      "outputs": [
        {
          "internalType": "uint256",
          "name": "",
          "type": "uint256"
        }
      ],
      "stateMutability": "view",
      "type": "function"
    },
    {
      "inputs": [
        {
          "internalType": "uint256",
          "name": "tokenId",
          "type": "uint256"
        }
      ],
      "name": "tokenURI",
      "outputs": [
        {
          "internalType": "string",
          "name": "",
          "type": "string"
        }
      ],
      "stateMutability": "view",
      "type": "function"
    },
    {
      "inputs": [
        {
          "internalType": "address",
          "name": "from",
          "type": "address"
        },
        {
          "internalType": "address",
          "name": "to",
          "type": "address"
        },
        {
          "internalType": "uint256",
          "name": "tokenId",
          "type": "uint256"
        }
      ],
      "name": "transferFrom",
      "outputs": [],
      "stateMutability": "nonpayable",
      "type": "function"
    },
    {
      "stateMutability": "payable",
      "type": "receive"
    }
  ],
  "bytecode": "0x60e06040526040518060400160405280600a81526020017f53414d504c454241534500000000000000000000000000000000000000000000815250600890816200004a919062000427565b506064600955600a600b556008600d553480156200006757600080fd5b5060405162004b7b38038062004b7b83398181016040528101906200008d919062000708565b86868160009081620000a0919062000427565b508060019081620000b2919062000427565b50505033600a60006101000a81548173ffffffffffffffffffffffffffffffffffffffff021916908373ffffffffffffffffffffffffffffffffffffffff1602179055508473ffffffffffffffffffffffffffffffffffffffff1660c08173ffffffffffffffffffffffffffffffffffffffff16815250508373ffffffffffffffffffffffffffffffffffffffff1660808173ffffffffffffffffffffffffffffffffffffffff16815250508273ffffffffffffffffffffffffffffffffffffffff1660a08173ffffffffffffffffffffffffffffffffffffffff168152505081600e8190555080600c8190555050505050505050620007f9565b600081519050919050565b7f4e487b7100000000000000000000000000000000000000000000000000000000600052604160045260246000fd5b7f4e487b7100000000000000000000000000000000000000000000000000000000600052602260045260246000fd5b600060028204905060018216806200022f57607f821691505b602082108103620002455762000244620001e7565b5b50919050565b60008190508160005260206000209050919050565b60006020601f8301049050919050565b600082821b905092915050565b600060088302620002af7fffffffffffffffffffffffffffffffffffffffffffffffffffffffffffffffff8262000270565b620002bb868362000270565b95508019841693508086168417925050509392505050565b6000819050919050565b6000819050919050565b60006200030862000302620002fc84620002d3565b620002dd565b620002d3565b9050919050565b6000819050919050565b6200032483620002e7565b6200033c62000333826200030f565b8484546200027d565b825550505050565b600090565b6200035362000344565b6200036081848462000319565b505050565b5b8181101562000388576200037c60008262000349565b60018101905062000366565b5050565b601f821115620003d757620003a1816200024b565b620003ac8462000260565b81016020851015620003bc578190505b620003d4620003cb8562000260565b83018262000365565b50505b505050565b600082821c905092915050565b6000620003fc60001984600802620003dc565b1980831691505092915050565b6000620004178383620003e9565b9150826002028217905092915050565b6200043282620001ad565b67ffffffffffffffff8111156200044e576200044d620001b8565b5b6200045a825462000216565b620004678282856200038c565b600060209050601f8311600181146200049f57600084156200048a578287015190505b62000496858262000409565b86555062000506565b601f198416620004af866200024b565b60005b82811015620004d957848901518255600182019150602085019450602081019050620004b2565b86831015620004f95784890151620004f5601f891682620003e9565b8355505b6001600288020188555050505b505050505050565b6000604051905090565b600080fd5b600080fd5b600080fd5b600080fd5b6000601f19601f8301169050919050565b62000548826200052c565b810181811067ffffffffffffffff821117156200056a5762000569620001b8565b5b80604052505050565b60006200057f6200050e565b90506200058d82826200053d565b919050565b600067ffffffffffffffff821115620005b057620005af620001b8565b5b620005bb826200052c565b9050602081019050919050565b60005b83811015620005e8578082015181840152602081019050620005cb565b60008484015250505050565b60006200060b620006058462000592565b62000573565b9050828152602081018484840111156200062a576200062962000527565b5b62000637848285620005c8565b509392505050565b600082601f83011262000657576200065662000522565b5b815162000669848260208601620005f4565b91505092915050565b600073ffffffffffffffffffffffffffffffffffffffff82169050919050565b60006200069f8262000672565b9050919050565b620006b18162000692565b8114620006bd57600080fd5b50565b600081519050620006d181620006a6565b92915050565b620006e281620002d3565b8114620006ee57600080fd5b50565b6000815190506200070281620006d7565b92915050565b600080600080600080600060e0888a0312156200072a576200072962000518565b5b600088015167ffffffffffffffff8111156200074b576200074a6200051d565b5b620007598a828b016200063f565b975050602088015167ffffffffffffffff8111156200077d576200077c6200051d565b5b6200078b8a828b016200063f565b96505060406200079e8a828b01620006c0565b9550506060620007b18a828b01620006c0565b9450506080620007c48a828b01620006c0565b93505060a0620007d78a828b01620006f1565b92505060c0620007ea8a828b01620006f1565b91505092959891949750929550565b60805160a05160c0516143446200083760003960008181611048015281816114fa01526117b701526000611919015260006118b201526143446000f3fe6080604052600436106101dc5760003560e01c806373b4dba111610102578063c24a0f8b11610095578063e146f72711610064578063e146f7271461069d578063e985e9c5146106a7578063ecaabf7f146106e4578063f851a4401461070f576101e3565b8063c24a0f8b146105df578063c769a5411461060a578063c87b56dd14610635578063d5abeb0114610672576101e3565b80639abc8320116100d15780639abc832014610546578063a127760014610571578063a22cb4651461058d578063b88d4fde146105b6576101e3565b806373b4dba1146104bd5780638f283970146104e857806395d89b411461051157806399203d231461053c576101e3565b80632cc403e01161017a5780636ccda0a6116101495780636ccda0a6146104035780636f8b44b01461044057806370a08231146104695780637389df8a146104a6576101e3565b80632cc403e01461034757806342842e0e146103725780635e321dfc1461039b5780636352211e146103c6576101e3565b8063095ea7b3116101b6578063095ea7b31461028d5780631209b1f6146102b65780631516db09146102e157806323b872dd1461031e576101e3565b806301ffc9a7146101e857806306fdde0314610225578063081812fc14610250576101e3565b366101e357005b600080fd5b3480156101f457600080fd5b5061020f600480360381019061020a9190612bc0565b61073a565b60405161021c9190612c08565b60405180910390f35b34801561023157600080fd5b5061023a61081c565b6040516102479190612cb3565b60405180910390f35b34801561025c57600080fd5b5061027760048036038101906102729190612d0b565b6108ae565b6040516102849190612d79565b60405180910390f35b34801561029957600080fd5b506102b460048036038101906102af9190612dc0565b6108f4565b005b3480156102c257600080fd5b506102cb610a0b565b6040516102d89190612e0f565b60405180910390f35b3480156102ed57600080fd5b5061030860048036038101906103039190612d0b565b610a11565b6040516103159190612d79565b60405180910390f35b34801561032a57600080fd5b5061034560048036038101906103409190612e2a565b610a50565b005b34801561035357600080fd5b5061035c610b13565b6040516103699190612e0f565b60405180910390f35b34801561037e57600080fd5b5061039960048036038101906103949190612e2a565b610b19565b005b3480156103a757600080fd5b506103b0610b39565b6040516103bd9190612e0f565b60405180910390f35b3480156103d257600080fd5b506103ed60048036038101906103e89190612d0b565b610b3f565b6040516103fa9190612d79565b60405180910390f35b34801561040f57600080fd5b5061042a60048036038101906104259190612e7d565b610bc5565b6040516104379190612e0f565b60405180910390f35b34801561044c57600080fd5b5061046760048036038101906104629190612d0b565b610bdd565b005b34801561047557600080fd5b50610490600480360381019061048b9190612e7d565b610c77565b60405161049d9190612e0f565b60405180910390f35b3480156104b257600080fd5b506104bb610d2e565b005b3480156104c957600080fd5b506104d2610ddb565b6040516104df9190612c08565b60405180910390f35b3480156104f457600080fd5b5061050f600480360381019061050a9190612e7d565b610dee565b005b34801561051d57600080fd5b50610526610ec2565b6040516105339190612cb3565b60405180910390f35b610544610f54565b005b34801561055257600080fd5b5061055b611189565b6040516105689190612cb3565b60405180910390f35b61058b60048036038101906105869190612d0b565b611217565b005b34801561059957600080fd5b506105b460048036038101906105af9190612ed6565b61159b565b005b3480156105c257600080fd5b506105dd60048036038101906105d8919061304b565b6115b1565b005b3480156105eb57600080fd5b506105f4611613565b6040516106019190612e0f565b60405180910390f35b34801561061657600080fd5b5061061f611619565b60405161062c9190612c08565b60405180910390f35b34801561064157600080fd5b5061065c60048036038101906106579190612d0b565b61162c565b6040516106699190612cb3565b60405180910390f35b34801561067e57600080fd5b5061068761173e565b6040516106949190612e0f565b60405180910390f35b6106a5611744565b005b3480156106b357600080fd5b506106ce60048036038101906106c991906130ce565b611981565b6040516106db9190612c08565b60405180910390f35b3480156106f057600080fd5b506106f9611a15565b60405161070691906131cc565b60405180910390f35b34801561071b57600080fd5b50610724611bc0565b6040516107319190612d79565b60405180910390f35b60007f80ac58cd000000000000000000000000000000000000000000000000000000007bffffffffffffffffffffffffffffffffffffffffffffffffffffffff1916827bffffffffffffffffffffffffffffffffffffffffffffffffffffffff1916148061080557507f5b5e139f000000000000000000000000000000000000000000000000000000007bffffffffffffffffffffffffffffffffffffffffffffffffffffffff1916827bffffffffffffffffffffffffffffffffffffffffffffffffffffffff1916145b80610815575061081482611be6565b5b9050919050565b60606000805461082b9061321d565b80601f01602080910402602001604051908101604052809291908181526020018280546108579061321d565b80156108a45780601f10610879576101008083540402835291602001916108a4565b820191906000526020600020905b81548152906001019060200180831161088757829003601f168201915b5050505050905090565b60006108b982611c50565b6004600083815260200190815260200160002060009054906101000a900473ffffffffffffffffffffffffffffffffffffffff169050919050565b60006108ff82610b3f565b90508073ffffffffffffffffffffffffffffffffffffffff168373ffffffffffffffffffffffffffffffffffffffff160361096f576040517f08c379a0000000000000000000000000000000000000000000000000000000008152600401610966906132c0565b60405180910390fd5b8073ffffffffffffffffffffffffffffffffffffffff1661098e611c9b565b73ffffffffffffffffffffffffffffffffffffffff1614806109bd57506109bc816109b7611c9b565b611981565b5b6109fc576040517f08c379a00000000000000000000000000000000000000000000000000000000081526004016109f390613352565b60405180910390fd5b610a068383611ca3565b505050565b600c5481565b60108181548110610a2157600080fd5b906000526020600020016000915054906101000a900473ffffffffffffffffffffffffffffffffffffffff1681565b610a61610a5b611c9b565b82611d5c565b610aa0576040517f08c379a0000000000000000000000000000000000000000000000000000000008152600401610a97906133e4565b60405180910390fd5b6010829080600181540180825580915050600190039060005260206000200160009091909190916101000a81548173ffffffffffffffffffffffffffffffffffffffff021916908373ffffffffffffffffffffffffffffffffffffffff160217905550610b0e838383611df1565b505050565b600b5481565b610b34838383604051806020016040528060008152506115b1565b505050565b600d5481565b600080610b4b836120ea565b9050600073ffffffffffffffffffffffffffffffffffffffff168173ffffffffffffffffffffffffffffffffffffffff1603610bbc576040517f08c379a0000000000000000000000000000000000000000000000000000000008152600401610bb390613450565b60405180910390fd5b80915050919050565b60116020528060005260406000206000915090505481565b600a60009054906101000a900473ffffffffffffffffffffffffffffffffffffffff1673ffffffffffffffffffffffffffffffffffffffff163373ffffffffffffffffffffffffffffffffffffffff1614610c6d576040517f08c379a0000000000000000000000000000000000000000000000000000000008152600401610c64906134bc565b60405180910390fd5b8060098190555050565b60008073ffffffffffffffffffffffffffffffffffffffff168273ffffffffffffffffffffffffffffffffffffffff1603610ce7576040517f08c379a0000000000000000000000000000000000000000000000000000000008152600401610cde9061354e565b60405180910390fd5b600360008373ffffffffffffffffffffffffffffffffffffffff1673ffffffffffffffffffffffffffffffffffffffff168152602001908152602001600020549050919050565b600a60009054906101000a900473ffffffffffffffffffffffffffffffffffffffff1673ffffffffffffffffffffffffffffffffffffffff163373ffffffffffffffffffffffffffffffffffffffff1614610dbe576040517f08c379a0000000000000000000000000000000000000000000000000000000008152600401610db5906135ba565b60405180910390fd5b6001600f60006101000a81548160ff021916908315150217905550565b600f60019054906101000a900460ff1681565b600a60009054906101000a900473ffffffffffffffffffffffffffffffffffffffff1673ffffffffffffffffffffffffffffffffffffffff163373ffffffffffffffffffffffffffffffffffffffff1614610e7e576040517f08c379a0000000000000000000000000000000000000000000000000000000008152600401610e75906134bc565b60405180910390fd5b80600a60006101000a81548173ffffffffffffffffffffffffffffffffffffffff021916908373ffffffffffffffffffffffffffffffffffffffff16021790555050565b606060018054610ed19061321d565b80601f0160208091040260200160405190810160405280929190818152602001828054610efd9061321d565b8015610f4a5780601f10610f1f57610100808354040283529160200191610f4a565b820191906000526020600020905b815481529060010190602001808311610f2d57829003601f168201915b5050505050905090565b60011515600f60009054906101000a900460ff16151514610faa576040517f08c379a0000000000000000000000000000000000000000000000000000000008152600401610fa190613626565b60405180910390fd5b600a60009054906101000a900473ffffffffffffffffffffffffffffffffffffffff1673ffffffffffffffffffffffffffffffffffffffff163373ffffffffffffffffffffffffffffffffffffffff161461103a576040517f08c379a0000000000000000000000000000000000000000000000000000000008152600401611031906134bc565b60405180910390fd5b6000611044611a15565b90507f000000000000000000000000000000000000000000000000000000000000000073ffffffffffffffffffffffffffffffffffffffff166369d895756040518163ffffffff1660e01b8152600401600060405180830381600087803b1580156110ae57600080fd5b505af11580156110c2573d6000803e3d6000fd5b5050505060005b6010805490508110156111855760006110fb8383815181106110ee576110ed613646565b5b6020026020010151610c77565b90506000600c548261110d91906136a4565b905083838151811061112257611121613646565b5b602002602001015173ffffffffffffffffffffffffffffffffffffffff166108fc829081150290604051600060405180830381858888f1935050505015801561116f573d6000803e3d6000fd5b505050808061117d906136e6565b9150506110c9565b5050565b600880546111969061321d565b80601f01602080910402602001604051908101604052809291908181526020018280546111c29061321d565b801561120f5780601f106111e45761010080835404028352916020019161120f565b820191906000526020600020905b8154815290600101906020018083116111f257829003601f168201915b505050505081565b80600c5461122591906136a4565b341015611267576040517f08c379a000000000000000000000000000000000000000000000000000000000815260040161125e9061377a565b60405180910390fd5b600d5481601160003373ffffffffffffffffffffffffffffffffffffffff1673ffffffffffffffffffffffffffffffffffffffff168152602001908152602001600020546112b5919061379a565b11156112f6576040517f08c379a00000000000000000000000000000000000000000000000000000000081526004016112ed9061381a565b60405180910390fd5b600954816113046007612127565b61130e919061379a565b111561134f576040517f08c379a000000000000000000000000000000000000000000000000000000000815260040161134690613886565b60405180910390fd5b60001515600f60009054906101000a900460ff1615151480611384575060011515600f60019054906101000a900460ff161515145b6113c3576040517f08c379a00000000000000000000000000000000000000000000000000000000081526004016113ba906138f2565b60405180910390fd5b80601160003373ffffffffffffffffffffffffffffffffffffffff1673ffffffffffffffffffffffffffffffffffffffff1681526020019081526020016000206000828254611412919061379a565b925050819055506010339080600181540180825580915050600190039060005260206000200160009091909190916101000a81548173ffffffffffffffffffffffffffffffffffffffff021916908373ffffffffffffffffffffffffffffffffffffffff16021790555060005b818110156114f7576114916007612135565b600061149d6007612127565b90506114a9338261214b565b600060086114b683612368565b6040516020016114c79291906139f7565b60405160208183030381529060405290506114e28282612436565b505080806114ef906136e6565b91505061147f565b507f000000000000000000000000000000000000000000000000000000000000000073ffffffffffffffffffffffffffffffffffffffff166108fc349081150290604051600060405180830381858888f1935050505015801561155e573d6000803e3d6000fd5b507fe11731cb4f1eb3ec3dd09bdc96809bb07365f4c881cda3192b397a4bc0b6da403382604051611590929190613a41565b60405180910390a150565b6115ad6115a6611c9b565b83836124a3565b5050565b6115c26115bc611c9b565b83611d5c565b611601576040517f08c379a00000000000000000000000000000000000000000000000000000000081526004016115f8906133e4565b60405180910390fd5b61160d8484848461260f565b50505050565b600e5481565b600f60009054906101000a900460ff1681565b606061163782611c50565b60006006600084815260200190815260200160002080546116579061321d565b80601f01602080910402602001604051908101604052809291908181526020018280546116839061321d565b80156116d05780601f106116a5576101008083540402835291602001916116d0565b820191906000526020600020905b8154815290600101906020018083116116b357829003601f168201915b5050505050905060006116e161266b565b905060008151036116f6578192505050611739565b60008251111561172b578082604051602001611713929190613aa6565b60405160208183030381529060405292505050611739565b61173484612682565b925050505b919050565b60095481565b60001515600f60009054906101000a900460ff1615151461179a576040517f08c379a000000000000000000000000000000000000000000000000000000000815260040161179190613b16565b60405180910390fd5b6001600f60016101000a81548160ff0219169083151502179055507f000000000000000000000000000000000000000000000000000000000000000073ffffffffffffffffffffffffffffffffffffffff166369d895756040518163ffffffff1660e01b8152600401600060405180830381600087803b15801561181d57600080fd5b505af1158015611831573d6000803e3d6000fd5b505050506000600b54476118459190613b65565b9050600a60009054906101000a900473ffffffffffffffffffffffffffffffffffffffff1673ffffffffffffffffffffffffffffffffffffffff166108fc829081150290604051600060405180830381858888f193505050501580156118af573d6000803e3d6000fd5b507f000000000000000000000000000000000000000000000000000000000000000073ffffffffffffffffffffffffffffffffffffffff166108fc829081150290604051600060405180830381858888f19350505050158015611916573d6000803e3d6000fd5b507f000000000000000000000000000000000000000000000000000000000000000073ffffffffffffffffffffffffffffffffffffffff166108fc479081150290604051600060405180830381858888f1935050505015801561197d573d6000803e3d6000fd5b5050565b6000600560008473ffffffffffffffffffffffffffffffffffffffff1673ffffffffffffffffffffffffffffffffffffffff16815260200190815260200160002060008373ffffffffffffffffffffffffffffffffffffffff1673ffffffffffffffffffffffffffffffffffffffff16815260200190815260200160002060009054906101000a900460ff16905092915050565b6060600a60009054906101000a900473ffffffffffffffffffffffffffffffffffffffff1673ffffffffffffffffffffffffffffffffffffffff163373ffffffffffffffffffffffffffffffffffffffff1614611aa7576040517f08c379a0000000000000000000000000000000000000000000000000000000008152600401611a9e90613be2565b60405180910390fd5b600060108054905067ffffffffffffffff811115611ac857611ac7612f20565b5b604051908082528060200260200182016040528015611af65781602001602082028036833780820191505090505b5090506000805b601080549050811015611bb75760108181548110611b1e57611b1d613646565b5b9060005260206000200160009054906101000a900473ffffffffffffffffffffffffffffffffffffffff16838381518110611b5c57611b5b613646565b5b602002602001019073ffffffffffffffffffffffffffffffffffffffff16908173ffffffffffffffffffffffffffffffffffffffff16815250508180611ba1906136e6565b9250508080611baf906136e6565b915050611afd565b50819250505090565b600a60009054906101000a900473ffffffffffffffffffffffffffffffffffffffff1681565b60007f01ffc9a7000000000000000000000000000000000000000000000000000000007bffffffffffffffffffffffffffffffffffffffffffffffffffffffff1916827bffffffffffffffffffffffffffffffffffffffffffffffffffffffff1916149050919050565b611c59816126ea565b611c98576040517f08c379a0000000000000000000000000000000000000000000000000000000008152600401611c8f90613450565b60405180910390fd5b50565b600033905090565b816004600083815260200190815260200160002060006101000a81548173ffffffffffffffffffffffffffffffffffffffff021916908373ffffffffffffffffffffffffffffffffffffffff160217905550808273ffffffffffffffffffffffffffffffffffffffff16611d1683610b3f565b73ffffffffffffffffffffffffffffffffffffffff167f8c5be1e5ebec7d5bd14f71427d1e84f3dd0314c0f7b2291e5b200ac8c7c3b92560405160405180910390a45050565b600080611d6883610b3f565b90508073ffffffffffffffffffffffffffffffffffffffff168473ffffffffffffffffffffffffffffffffffffffff161480611daa5750611da98185611981565b5b80611de857508373ffffffffffffffffffffffffffffffffffffffff16611dd0846108ae565b73ffffffffffffffffffffffffffffffffffffffff16145b91505092915050565b8273ffffffffffffffffffffffffffffffffffffffff16611e1182610b3f565b73ffffffffffffffffffffffffffffffffffffffff1614611e67576040517f08c379a0000000000000000000000000000000000000000000000000000000008152600401611e5e90613c74565b60405180910390fd5b600073ffffffffffffffffffffffffffffffffffffffff168273ffffffffffffffffffffffffffffffffffffffff1603611ed6576040517f08c379a0000000000000000000000000000000000000000000000000000000008152600401611ecd90613d06565b60405180910390fd5b611ee3838383600161272b565b8273ffffffffffffffffffffffffffffffffffffffff16611f0382610b3f565b73ffffffffffffffffffffffffffffffffffffffff1614611f59576040517f08c379a0000000000000000000000000000000000000000000000000000000008152600401611f5090613c74565b60405180910390fd5b6004600082815260200190815260200160002060006101000a81549073ffffffffffffffffffffffffffffffffffffffff02191690556001600360008573ffffffffffffffffffffffffffffffffffffffff1673ffffffffffffffffffffffffffffffffffffffff168152602001908152602001600020600082825403925050819055506001600360008473ffffffffffffffffffffffffffffffffffffffff1673ffffffffffffffffffffffffffffffffffffffff16815260200190815260200160002060008282540192505081905550816002600083815260200190815260200160002060006101000a81548173ffffffffffffffffffffffffffffffffffffffff021916908373ffffffffffffffffffffffffffffffffffffffff160217905550808273ffffffffffffffffffffffffffffffffffffffff168473ffffffffffffffffffffffffffffffffffffffff167fddf252ad1be2c89b69c2b068fc378daa952ba7f163c4a11628f55a4df523b3ef60405160405180910390a46120e58383836001612851565b505050565b60006002600083815260200190815260200160002060009054906101000a900473ffffffffffffffffffffffffffffffffffffffff169050919050565b600081600001549050919050565b6001816000016000828254019250508190555050565b600073ffffffffffffffffffffffffffffffffffffffff168273ffffffffffffffffffffffffffffffffffffffff16036121ba576040517f08c379a00000000000000000000000000000000000000000000000000000000081526004016121b190613d72565b60405180910390fd5b6121c3816126ea565b15612203576040517f08c379a00000000000000000000000000000000000000000000000000000000081526004016121fa90613dde565b60405180910390fd5b61221160008383600161272b565b61221a816126ea565b1561225a576040517f08c379a000000000000000000000000000000000000000000000000000000000815260040161225190613dde565b60405180910390fd5b6001600360008473ffffffffffffffffffffffffffffffffffffffff1673ffffffffffffffffffffffffffffffffffffffff16815260200190815260200160002060008282540192505081905550816002600083815260200190815260200160002060006101000a81548173ffffffffffffffffffffffffffffffffffffffff021916908373ffffffffffffffffffffffffffffffffffffffff160217905550808273ffffffffffffffffffffffffffffffffffffffff16600073ffffffffffffffffffffffffffffffffffffffff167fddf252ad1be2c89b69c2b068fc378daa952ba7f163c4a11628f55a4df523b3ef60405160405180910390a4612364600083836001612851565b5050565b60606000600161237784612857565b01905060008167ffffffffffffffff81111561239657612395612f20565b5b6040519080825280601f01601f1916602001820160405280156123c85781602001600182028036833780820191505090505b509050600082602001820190505b60011561242b578080600190039150507f3031323334353637383961626364656600000000000000000000000000000000600a86061a8153600a858161241f5761241e613b36565b5b049450600085036123d6575b819350505050919050565b61243f826126ea565b61247e576040517f08c379a000000000000000000000000000000000000000000000000000000000815260040161247590613e70565b60405180910390fd5b8060066000848152602001908152602001600020908161249e9190614027565b505050565b8173ffffffffffffffffffffffffffffffffffffffff168373ffffffffffffffffffffffffffffffffffffffff1603612511576040517f08c379a000000000000000000000000000000000000000000000000000000000815260040161250890614145565b60405180910390fd5b80600560008573ffffffffffffffffffffffffffffffffffffffff1673ffffffffffffffffffffffffffffffffffffffff16815260200190815260200160002060008473ffffffffffffffffffffffffffffffffffffffff1673ffffffffffffffffffffffffffffffffffffffff16815260200190815260200160002060006101000a81548160ff0219169083151502179055508173ffffffffffffffffffffffffffffffffffffffff168373ffffffffffffffffffffffffffffffffffffffff167f17307eab39ab6107e8899845ad3d59bd9653f200f220920489ca2b5937696c31836040516126029190612c08565b60405180910390a3505050565b61261a848484611df1565b612626848484846129aa565b612665576040517f08c379a000000000000000000000000000000000000000000000000000000000815260040161265c906141d7565b60405180910390fd5b50505050565b606060405180602001604052806000815250905090565b606061268d82611c50565b600061269761266b565b905060008151116126b757604051806020016040528060008152506126e2565b806126c184612368565b6040516020016126d2929190613aa6565b6040516020818303038152906040525b915050919050565b60008073ffffffffffffffffffffffffffffffffffffffff1661270c836120ea565b73ffffffffffffffffffffffffffffffffffffffff1614159050919050565b600181111561284b57600073ffffffffffffffffffffffffffffffffffffffff168473ffffffffffffffffffffffffffffffffffffffff16146127bf5780600360008673ffffffffffffffffffffffffffffffffffffffff1673ffffffffffffffffffffffffffffffffffffffff16815260200190815260200160002060008282546127b791906141f7565b925050819055505b600073ffffffffffffffffffffffffffffffffffffffff168373ffffffffffffffffffffffffffffffffffffffff161461284a5780600360008573ffffffffffffffffffffffffffffffffffffffff1673ffffffffffffffffffffffffffffffffffffffff1681526020019081526020016000206000828254612842919061379a565b925050819055505b5b50505050565b50505050565b600080600090507a184f03e93ff9f4daa797ed6e38ed64bf6a1f01000000000000000083106128b5577a184f03e93ff9f4daa797ed6e38ed64bf6a1f01000000000000000083816128ab576128aa613b36565b5b0492506040810190505b6d04ee2d6d415b85acef810000000083106128f2576d04ee2d6d415b85acef810000000083816128e8576128e7613b36565b5b0492506020810190505b662386f26fc10000831061292157662386f26fc10000838161291757612916613b36565b5b0492506010810190505b6305f5e100831061294a576305f5e10083816129405761293f613b36565b5b0492506008810190505b612710831061296f57612710838161296557612964613b36565b5b0492506004810190505b60648310612992576064838161298857612987613b36565b5b0492506002810190505b600a83106129a1576001810190505b80915050919050565b60006129cb8473ffffffffffffffffffffffffffffffffffffffff16612b31565b15612b24578373ffffffffffffffffffffffffffffffffffffffff1663150b7a026129f4611c9b565b8786866040518563ffffffff1660e01b8152600401612a169493929190614280565b6020604051808303816000875af1925050508015612a5257506040513d601f19601f82011682018060405250810190612a4f91906142e1565b60015b612ad4573d8060008114612a82576040519150601f19603f3d011682016040523d82523d6000602084013e612a87565b606091505b506000815103612acc576040517f08c379a0000000000000000000000000000000000000000000000000000000008152600401612ac3906141d7565b60405180910390fd5b805181602001fd5b63150b7a0260e01b7bffffffffffffffffffffffffffffffffffffffffffffffffffffffff1916817bffffffffffffffffffffffffffffffffffffffffffffffffffffffff191614915050612b29565b600190505b949350505050565b6000808273ffffffffffffffffffffffffffffffffffffffff163b119050919050565b6000604051905090565b600080fd5b600080fd5b60007fffffffff0000000000000000000000000000000000000000000000000000000082169050919050565b612b9d81612b68565b8114612ba857600080fd5b50565b600081359050612bba81612b94565b92915050565b600060208284031215612bd657612bd5612b5e565b5b6000612be484828501612bab565b91505092915050565b60008115159050919050565b612c0281612bed565b82525050565b6000602082019050612c1d6000830184612bf9565b92915050565b600081519050919050565b600082825260208201905092915050565b60005b83811015612c5d578082015181840152602081019050612c42565b60008484015250505050565b6000601f19601f8301169050919050565b6000612c8582612c23565b612c8f8185612c2e565b9350612c9f818560208601612c3f565b612ca881612c69565b840191505092915050565b60006020820190508181036000830152612ccd8184612c7a565b905092915050565b6000819050919050565b612ce881612cd5565b8114612cf357600080fd5b50565b600081359050612d0581612cdf565b92915050565b600060208284031215612d2157612d20612b5e565b5b6000612d2f84828501612cf6565b91505092915050565b600073ffffffffffffffffffffffffffffffffffffffff82169050919050565b6000612d6382612d38565b9050919050565b612d7381612d58565b82525050565b6000602082019050612d8e6000830184612d6a565b92915050565b612d9d81612d58565b8114612da857600080fd5b50565b600081359050612dba81612d94565b92915050565b60008060408385031215612dd757612dd6612b5e565b5b6000612de585828601612dab565b9250506020612df685828601612cf6565b9150509250929050565b612e0981612cd5565b82525050565b6000602082019050612e246000830184612e00565b92915050565b600080600060608486031215612e4357612e42612b5e565b5b6000612e5186828701612dab565b9350506020612e6286828701612dab565b9250506040612e7386828701612cf6565b9150509250925092565b600060208284031215612e9357612e92612b5e565b5b6000612ea184828501612dab565b91505092915050565b612eb381612bed565b8114612ebe57600080fd5b50565b600081359050612ed081612eaa565b92915050565b60008060408385031215612eed57612eec612b5e565b5b6000612efb85828601612dab565b9250506020612f0c85828601612ec1565b9150509250929050565b600080fd5b600080fd5b7f4e487b7100000000000000000000000000000000000000000000000000000000600052604160045260246000fd5b612f5882612c69565b810181811067ffffffffffffffff82111715612f7757612f76612f20565b5b80604052505050565b6000612f8a612b54565b9050612f968282612f4f565b919050565b600067ffffffffffffffff821115612fb657612fb5612f20565b5b612fbf82612c69565b9050602081019050919050565b82818337600083830152505050565b6000612fee612fe984612f9b565b612f80565b90508281526020810184848401111561300a57613009612f1b565b5b613015848285612fcc565b509392505050565b600082601f83011261303257613031612f16565b5b8135613042848260208601612fdb565b91505092915050565b6000806000806080858703121561306557613064612b5e565b5b600061307387828801612dab565b945050602061308487828801612dab565b935050604061309587828801612cf6565b925050606085013567ffffffffffffffff8111156130b6576130b5612b63565b5b6130c28782880161301d565b91505092959194509250565b600080604083850312156130e5576130e4612b5e565b5b60006130f385828601612dab565b925050602061310485828601612dab565b9150509250929050565b600081519050919050565b600082825260208201905092915050565b6000819050602082019050919050565b61314381612d58565b82525050565b6000613155838361313a565b60208301905092915050565b6000602082019050919050565b60006131798261310e565b6131838185613119565b935061318e8361312a565b8060005b838110156131bf5781516131a68882613149565b97506131b183613161565b925050600181019050613192565b5085935050505092915050565b600060208201905081810360008301526131e6818461316e565b905092915050565b7f4e487b7100000000000000000000000000000000000000000000000000000000600052602260045260246000fd5b6000600282049050600182168061323557607f821691505b602082108103613248576132476131ee565b5b50919050565b7f4552433732313a20617070726f76616c20746f2063757272656e74206f776e6560008201527f7200000000000000000000000000000000000000000000000000000000000000602082015250565b60006132aa602183612c2e565b91506132b58261324e565b604082019050919050565b600060208201905081810360008301526132d98161329d565b9050919050565b7f4552433732313a20617070726f76652063616c6c6572206973206e6f7420746f60008201527f6b656e206f776e6572206f7220617070726f76656420666f7220616c6c000000602082015250565b600061333c603d83612c2e565b9150613347826132e0565b604082019050919050565b6000602082019050818103600083015261336b8161332f565b9050919050565b7f4552433732313a2063616c6c6572206973206e6f7420746f6b656e206f776e6560008201527f72206f7220617070726f76656400000000000000000000000000000000000000602082015250565b60006133ce602d83612c2e565b91506133d982613372565b604082019050919050565b600060208201905081810360008301526133fd816133c1565b9050919050565b7f4552433732313a20696e76616c696420746f6b656e2049440000000000000000600082015250565b600061343a601883612c2e565b915061344582613404565b602082019050919050565b600060208201905081810360008301526134698161342d565b9050919050565b7f6f6e6c792061646d696e00000000000000000000000000000000000000000000600082015250565b60006134a6600a83612c2e565b91506134b182613470565b602082019050919050565b600060208201905081810360008301526134d581613499565b9050919050565b7f4552433732313a2061646472657373207a65726f206973206e6f74206120766160008201527f6c6964206f776e65720000000000000000000000000000000000000000000000602082015250565b6000613538602983612c2e565b9150613543826134dc565b604082019050919050565b600060208201905081810360008301526135678161352b565b9050919050565b7f6f6e6c7941646d696e0000000000000000000000000000000000000000000000600082015250565b60006135a4600983612c2e565b91506135af8261356e565b602082019050919050565b600060208201905081810360008301526135d381613597565b9050919050565b7f73686f77206e6f742063616e63656c6c65640000000000000000000000000000600082015250565b6000613610601283612c2e565b915061361b826135da565b602082019050919050565b6000602082019050818103600083015261363f81613603565b9050919050565b7f4e487b7100000000000000000000000000000000000000000000000000000000600052603260045260246000fd5b7f4e487b7100000000000000000000000000000000000000000000000000000000600052601160045260246000fd5b60006136af82612cd5565b91506136ba83612cd5565b92508282026136c881612cd5565b915082820484148315176136df576136de613675565b5b5092915050565b60006136f182612cd5565b91507fffffffffffffffffffffffffffffffffffffffffffffffffffffffffffffffff820361372357613722613675565b5b600182019050919050565b7f7061790000000000000000000000000000000000000000000000000000000000600082015250565b6000613764600383612c2e565b915061376f8261372e565b602082019050919050565b6000602082019050818103600083015261379381613757565b9050919050565b60006137a582612cd5565b91506137b083612cd5565b92508282019050808211156137c8576137c7613675565b5b92915050565b7f6d61782074697800000000000000000000000000000000000000000000000000600082015250565b6000613804600783612c2e565b915061380f826137ce565b602082019050919050565b60006020820190508181036000830152613833816137f7565b9050919050565b7f736f6c64206f7574000000000000000000000000000000000000000000000000600082015250565b6000613870600883612c2e565b915061387b8261383a565b602082019050919050565b6000602082019050818103600083015261389f81613863565b9050919050565b7f73686f77206973206e6f74206f70656e00000000000000000000000000000000600082015250565b60006138dc601083612c2e565b91506138e7826138a6565b602082019050919050565b6000602082019050818103600083015261390b816138cf565b9050919050565b60008190508160005260206000209050919050565b600081546139348161321d565b61393e8186612c2e565b94506001821660008114613959576001811461396f576139a2565b60ff1983168652811515602002860193506139a2565b61397885613912565b60005b8381101561399a5781548189015260018201915060208101905061397b565b808801955050505b50505092915050565b7f2e6a736f6e000000000000000000000000000000000000000000000000000000600082015250565b60006139e1600583612c2e565b91506139ec826139ab565b602082019050919050565b60006060820190508181036000830152613a118185613927565b90508181036020830152613a258184612c7a565b90508181036040830152613a38816139d4565b90509392505050565b6000604082019050613a566000830185612d6a565b613a636020830184612e00565b9392505050565b600081905092915050565b6000613a8082612c23565b613a8a8185613a6a565b9350613a9a818560208601612c3f565b80840191505092915050565b6000613ab28285613a75565b9150613abe8284613a75565b91508190509392505050565b7f73686f77206e6f7420636f6d706c657465640000000000000000000000000000600082015250565b6000613b00601283612c2e565b9150613b0b82613aca565b602082019050919050565b60006020820190508181036000830152613b2f81613af3565b9050919050565b7f4e487b7100000000000000000000000000000000000000000000000000000000600052601260045260246000fd5b6000613b7082612cd5565b9150613b7b83612cd5565b925082613b8b57613b8a613b36565b5b828204905092915050565b7f6f61000000000000000000000000000000000000000000000000000000000000600082015250565b6000613bcc600283612c2e565b9150613bd782613b96565b602082019050919050565b60006020820190508181036000830152613bfb81613bbf565b9050919050565b7f4552433732313a207472616e736665722066726f6d20696e636f72726563742060008201527f6f776e6572000000000000000000000000000000000000000000000000000000602082015250565b6000613c5e602583612c2e565b9150613c6982613c02565b604082019050919050565b60006020820190508181036000830152613c8d81613c51565b9050919050565b7f4552433732313a207472616e7366657220746f20746865207a65726f2061646460008201527f7265737300000000000000000000000000000000000000000000000000000000602082015250565b6000613cf0602483612c2e565b9150613cfb82613c94565b604082019050919050565b60006020820190508181036000830152613d1f81613ce3565b9050919050565b7f4552433732313a206d696e7420746f20746865207a65726f2061646472657373600082015250565b6000613d5c602083612c2e565b9150613d6782613d26565b602082019050919050565b60006020820190508181036000830152613d8b81613d4f565b9050919050565b7f4552433732313a20746f6b656e20616c7265616479206d696e74656400000000600082015250565b6000613dc8601c83612c2e565b9150613dd382613d92565b602082019050919050565b60006020820190508181036000830152613df781613dbb565b9050919050565b7f45524337323155524953746f726167653a2055524920736574206f66206e6f6e60008201527f6578697374656e7420746f6b656e000000000000000000000000000000000000602082015250565b6000613e5a602e83612c2e565b9150613e6582613dfe565b604082019050919050565b60006020820190508181036000830152613e8981613e4d565b9050919050565b60006020601f8301049050919050565b600082821b905092915050565b600060088302613edd7fffffffffffffffffffffffffffffffffffffffffffffffffffffffffffffffff82613ea0565b613ee78683613ea0565b95508019841693508086168417925050509392505050565b6000819050919050565b6000613f24613f1f613f1a84612cd5565b613eff565b612cd5565b9050919050565b6000819050919050565b613f3e83613f09565b613f52613f4a82613f2b565b848454613ead565b825550505050565b600090565b613f67613f5a565b613f72818484613f35565b505050565b5b81811015613f9657613f8b600082613f5f565b600181019050613f78565b5050565b601f821115613fdb57613fac81613912565b613fb584613e90565b81016020851015613fc4578190505b613fd8613fd085613e90565b830182613f77565b50505b505050565b600082821c905092915050565b6000613ffe60001984600802613fe0565b1980831691505092915050565b60006140178383613fed565b9150826002028217905092915050565b61403082612c23565b67ffffffffffffffff81111561404957614048612f20565b5b614053825461321d565b61405e828285613f9a565b600060209050601f831160018114614091576000841561407f578287015190505b614089858261400b565b8655506140f1565b601f19841661409f86613912565b60005b828110156140c7578489015182556001820191506020850194506020810190506140a2565b868310156140e457848901516140e0601f891682613fed565b8355505b6001600288020188555050505b505050505050565b7f4552433732313a20617070726f766520746f2063616c6c657200000000000000600082015250565b600061412f601983612c2e565b915061413a826140f9565b602082019050919050565b6000602082019050818103600083015261415e81614122565b9050919050565b7f4552433732313a207472616e7366657220746f206e6f6e20455243373231526560008201527f63656976657220696d706c656d656e7465720000000000000000000000000000602082015250565b60006141c1603283612c2e565b91506141cc82614165565b604082019050919050565b600060208201905081810360008301526141f0816141b4565b9050919050565b600061420282612cd5565b915061420d83612cd5565b925082820390508181111561422557614224613675565b5b92915050565b600081519050919050565b600082825260208201905092915050565b60006142528261422b565b61425c8185614236565b935061426c818560208601612c3f565b61427581612c69565b840191505092915050565b60006080820190506142956000830187612d6a565b6142a26020830186612d6a565b6142af6040830185612e00565b81810360608301526142c18184614247565b905095945050505050565b6000815190506142db81612b94565b92915050565b6000602082840312156142f7576142f6612b5e565b5b6000614305848285016142cc565b9150509291505056fea264697066735822122001ababb7c3d4646cd506a88b9d2415393e403ec14368002e4d50052c6e4e0dc964736f6c63430008110033",
  "linkReferences": {},
  "deployedLinkReferences": {}
}