{
    "_format": "hh-sol-artifact-1",
    "contractName": "Escrow",
    "sourceName": "contracts/Escrow.sol",
    "abi": [
        {
            "inputs": [],
            "stateMutability": "nonpayable",
            "type": "constructor"
        },
        {
            "inputs": [],
            "name": "releaseFunds",
            "outputs": [],
            "stateMutability": "payable",
            "type": "function"
        },
        {
            "inputs": [
                {
                    "internalType": "address",
                    "name": "_ticketAddress",
                    "type": "address"
                }
            ],
            "name": "setTicketContract",
            "outputs": [],
            "stateMutability": "nonpayable",
            "type": "function"
        },
        {
            "stateMutability": "payable",
            "type": "receive"
        }
    ],
    "bytecode": "0x608060405234801561001057600080fd5b50336000806101000a81548173ffffffffffffffffffffffffffffffffffffffff021916908373ffffffffffffffffffffffffffffffffffffffff1602179055506103e6806100606000396000f3fe60806040526004361061002d5760003560e01c806369d8957514610039578063c0caa7721461004357610034565b3661003457005b600080fd5b61004161006c565b005b34801561004f57600080fd5b5061006a6004803603810190610065919061029a565b610165565b005b60008054906101000a900473ffffffffffffffffffffffffffffffffffffffff1673ffffffffffffffffffffffffffffffffffffffff163373ffffffffffffffffffffffffffffffffffffffff16146100fa576040517f08c379a00000000000000000000000000000000000000000000000000000000081526004016100f190610324565b60405180910390fd5b600160009054906101000a900473ffffffffffffffffffffffffffffffffffffffff1673ffffffffffffffffffffffffffffffffffffffff166108fc479081150290604051600060405180830381858888f19350505050158015610162573d6000803e3d6000fd5b50565b60008054906101000a900473ffffffffffffffffffffffffffffffffffffffff1673ffffffffffffffffffffffffffffffffffffffff163373ffffffffffffffffffffffffffffffffffffffff16146101f3576040517f08c379a00000000000000000000000000000000000000000000000000000000081526004016101ea90610390565b60405180910390fd5b80600160006101000a81548173ffffffffffffffffffffffffffffffffffffffff021916908373ffffffffffffffffffffffffffffffffffffffff16021790555050565b600080fd5b600073ffffffffffffffffffffffffffffffffffffffff82169050919050565b60006102678261023c565b9050919050565b6102778161025c565b811461028257600080fd5b50565b6000813590506102948161026e565b92915050565b6000602082840312156102b0576102af610237565b5b60006102be84828501610285565b91505092915050565b600082825260208201905092915050565b7f6f6e6c792061646d696e2066756e6374696f6e00000000000000000000000000600082015250565b600061030e6013836102c7565b9150610319826102d8565b602082019050919050565b6000602082019050818103600083015261033d81610301565b9050919050565b7f6f6e6c792061646d696e00000000000000000000000000000000000000000000600082015250565b600061037a600a836102c7565b915061038582610344565b602082019050919050565b600060208201905081810360008301526103a98161036d565b905091905056fea26469706673582212209141866c28071b73fddd1e00ceae0d103cdf7225251421d3bd6a0e7bb3e2d6bf64736f6c63430008110033",
    "linkReferences": {},
    "deployedLinkReferences": {}
}